{
  "_format": "hh-sol-artifact-1",
  "contractName": "FakeHegicStakingWBTC",
  "sourceName": "contracts/TestImplementations.sol",
  "abi": [
    {
      "inputs": [
        {
          "internalType": "contract IERC20",
          "name": "_wbtc",
          "type": "address"
        },
        {
          "internalType": "contract IERC20",
          "name": "_token",
          "type": "address"
        }
      ],
      "stateMutability": "nonpayable",
      "type": "constructor"
    },
    {
      "anonymous": false,
      "inputs": [
        {
          "indexed": true,
          "internalType": "address",
          "name": "owner",
          "type": "address"
        },
        {
          "indexed": true,
          "internalType": "address",
          "name": "spender",
          "type": "address"
        },
        {
          "indexed": false,
          "internalType": "uint256",
          "name": "value",
          "type": "uint256"
        }
      ],
      "name": "Approval",
      "type": "event"
    },
    {
      "anonymous": false,
      "inputs": [
        {
          "indexed": false,
          "internalType": "address",
          "name": "account",
          "type": "address"
        },
        {
          "indexed": false,
          "internalType": "uint256",
          "name": "profit",
          "type": "uint256"
        }
      ],
      "name": "Claim",
      "type": "event"
    },
    {
      "anonymous": false,
      "inputs": [
        {
          "indexed": true,
          "internalType": "address",
          "name": "from",
          "type": "address"
        },
        {
          "indexed": true,
          "internalType": "address",
          "name": "to",
          "type": "address"
        },
        {
          "indexed": false,
          "internalType": "uint256",
          "name": "value",
          "type": "uint256"
        }
      ],
      "name": "Transfer",
      "type": "event"
    },
    {
      "inputs": [],
      "name": "LOT_PRICE",
      "outputs": [
        {
          "internalType": "uint256",
          "name": "",
          "type": "uint256"
        }
      ],
      "stateMutability": "view",
      "type": "function"
    },
    {
      "inputs": [],
      "name": "WBTC",
      "outputs": [
        {
          "internalType": "contract IERC20",
          "name": "",
          "type": "address"
        }
      ],
      "stateMutability": "view",
      "type": "function"
    },
    {
      "inputs": [
        {
          "internalType": "address",
          "name": "",
          "type": "address"
        }
      ],
      "name": "_revertTransfersInLockUpPeriod",
      "outputs": [
        {
          "internalType": "bool",
          "name": "",
          "type": "bool"
        }
      ],
      "stateMutability": "view",
      "type": "function"
    },
    {
      "inputs": [
        {
          "internalType": "address",
          "name": "owner",
          "type": "address"
        },
        {
          "internalType": "address",
          "name": "spender",
          "type": "address"
        }
      ],
      "name": "allowance",
      "outputs": [
        {
          "internalType": "uint256",
          "name": "",
          "type": "uint256"
        }
      ],
      "stateMutability": "view",
      "type": "function"
    },
    {
      "inputs": [
        {
          "internalType": "address",
          "name": "spender",
          "type": "address"
        },
        {
          "internalType": "uint256",
          "name": "amount",
          "type": "uint256"
        }
      ],
      "name": "approve",
      "outputs": [
        {
          "internalType": "bool",
          "name": "",
          "type": "bool"
        }
      ],
      "stateMutability": "nonpayable",
      "type": "function"
    },
    {
      "inputs": [
        {
          "internalType": "address",
          "name": "account",
          "type": "address"
        }
      ],
      "name": "balanceOf",
      "outputs": [
        {
          "internalType": "uint256",
          "name": "",
          "type": "uint256"
        }
      ],
      "stateMutability": "view",
      "type": "function"
    },
    {
      "inputs": [
        {
          "internalType": "uint256",
          "name": "_amount",
          "type": "uint256"
        }
      ],
      "name": "buy",
      "outputs": [],
      "stateMutability": "nonpayable",
      "type": "function"
    },
    {
      "inputs": [],
      "name": "claimProfit",
      "outputs": [
        {
          "internalType": "uint256",
          "name": "_profit",
          "type": "uint256"
        }
      ],
      "stateMutability": "nonpayable",
      "type": "function"
    },
    {
      "inputs": [],
      "name": "decimals",
      "outputs": [
        {
          "internalType": "uint8",
          "name": "",
          "type": "uint8"
        }
      ],
      "stateMutability": "view",
      "type": "function"
    },
    {
      "inputs": [
        {
          "internalType": "address",
          "name": "spender",
          "type": "address"
        },
        {
          "internalType": "uint256",
          "name": "subtractedValue",
          "type": "uint256"
        }
      ],
      "name": "decreaseAllowance",
      "outputs": [
        {
          "internalType": "bool",
          "name": "",
          "type": "bool"
        }
      ],
      "stateMutability": "nonpayable",
      "type": "function"
    },
    {
      "inputs": [
        {
          "internalType": "address",
          "name": "spender",
          "type": "address"
        },
        {
          "internalType": "uint256",
          "name": "addedValue",
          "type": "uint256"
        }
      ],
      "name": "increaseAllowance",
      "outputs": [
        {
          "internalType": "bool",
          "name": "",
          "type": "bool"
        }
      ],
      "stateMutability": "nonpayable",
      "type": "function"
    },
    {
      "inputs": [
        {
          "internalType": "address",
          "name": "",
          "type": "address"
        }
      ],
      "name": "lastBoughtTimestamp",
      "outputs": [
        {
          "internalType": "uint256",
          "name": "",
          "type": "uint256"
        }
      ],
      "stateMutability": "view",
      "type": "function"
    },
    {
      "inputs": [],
      "name": "lockupPeriod",
      "outputs": [
        {
          "internalType": "uint256",
          "name": "",
          "type": "uint256"
        }
      ],
      "stateMutability": "view",
      "type": "function"
    },
    {
      "inputs": [],
      "name": "name",
      "outputs": [
        {
          "internalType": "string",
          "name": "",
          "type": "string"
        }
      ],
      "stateMutability": "view",
      "type": "function"
    },
    {
      "inputs": [
        {
          "internalType": "address",
          "name": "",
          "type": "address"
        }
      ],
      "name": "profitOf",
      "outputs": [
        {
          "internalType": "uint256",
          "name": "_totalProfit",
          "type": "uint256"
        }
      ],
      "stateMutability": "view",
      "type": "function"
    },
    {
      "inputs": [
        {
          "internalType": "bool",
          "name": "value",
          "type": "bool"
        }
      ],
      "name": "revertTransfersInLockUpPeriod",
      "outputs": [],
      "stateMutability": "nonpayable",
      "type": "function"
    },
    {
      "inputs": [
        {
          "internalType": "uint256",
          "name": "_amount",
          "type": "uint256"
        }
      ],
      "name": "sell",
      "outputs": [],
      "stateMutability": "nonpayable",
      "type": "function"
    },
    {
      "inputs": [
        {
          "internalType": "uint256",
          "name": "_amount",
          "type": "uint256"
        }
      ],
      "name": "sendProfit",
      "outputs": [],
      "stateMutability": "nonpayable",
      "type": "function"
    },
    {
      "inputs": [],
      "name": "symbol",
      "outputs": [
        {
          "internalType": "string",
          "name": "",
          "type": "string"
        }
      ],
      "stateMutability": "view",
      "type": "function"
    },
    {
      "inputs": [],
      "name": "token",
      "outputs": [
        {
          "internalType": "contract IERC20",
          "name": "",
          "type": "address"
        }
      ],
      "stateMutability": "view",
      "type": "function"
    },
    {
      "inputs": [],
      "name": "totalProfit",
      "outputs": [
        {
          "internalType": "uint256",
          "name": "",
          "type": "uint256"
        }
      ],
      "stateMutability": "view",
      "type": "function"
    },
    {
      "inputs": [],
      "name": "totalSupply",
      "outputs": [
        {
          "internalType": "uint256",
          "name": "",
          "type": "uint256"
        }
      ],
      "stateMutability": "view",
      "type": "function"
    },
    {
      "inputs": [
        {
          "internalType": "address",
          "name": "recipient",
          "type": "address"
        },
        {
          "internalType": "uint256",
          "name": "amount",
          "type": "uint256"
        }
      ],
      "name": "transfer",
      "outputs": [
        {
          "internalType": "bool",
          "name": "",
          "type": "bool"
        }
      ],
      "stateMutability": "nonpayable",
      "type": "function"
    },
    {
      "inputs": [
        {
          "internalType": "address",
          "name": "sender",
          "type": "address"
        },
        {
          "internalType": "address",
          "name": "recipient",
          "type": "address"
        },
        {
          "internalType": "uint256",
          "name": "amount",
          "type": "uint256"
        }
      ],
      "name": "transferFrom",
      "outputs": [
        {
          "internalType": "bool",
          "name": "",
          "type": "bool"
        }
      ],
      "stateMutability": "nonpayable",
      "type": "function"
    }
  ],
  "bytecode": "0x60a060405269bc0a9392c65c3b000000600855620151806009553480156200002657600080fd5b506040516200164f3803806200164f833981810160405260408110156200004c57600080fd5b508051602091820151604080518082018252601681527f48656769632057425443205374616b696e67204c6f740000000000000000000081860190815282518084019093526006835265686c5742544360d01b958301959095528051939492939092620000bd916003919062000142565b508051620000d390600490602084019062000142565b50506005805460ff19166012179055506001600160601b0319606083901b16608052600780546001600160a01b0383166001600160a01b03199091161790556000600681905562000124906200012c565b5050620001de565b6005805460ff191660ff92909216919091179055565b828054600181600116156101000203166002900490600052602060002090601f016020900481019282601f106200018557805160ff1916838001178555620001b5565b82800160010185558215620001b5579182015b82811115620001b557825182559160200191906001019062000198565b50620001c3929150620001c7565b5090565b5b80821115620001c35760008155600101620001c8565b60805160601c611449620002066000398061066d52806106a95280610fe052506114496000f3fe608060405234801561001057600080fd5b50600436106101585760003560e01c806370a08231116100c3578063d96a094a1161007c578063d96a094a1461041e578063dd62ed3e1461043b578063e4849b3214610469578063ee947a7c14610486578063f011a7af1461048e578063fc0c546a1461049657610158565b806370a082311461036a578063860015191461039057806395d89b4114610398578063a457c2d7146103a0578063a6737291146103cc578063a9059cbb146103f257610158565b8063395093511161011557806339509351146102a95780633f40406c146102d55780634dede3de146102fb5780634ed37f021461031f57806354198ce9146103275780635fc0d2dd1461034d57610158565b806306fdde031461015d578063095ea7b3146101da57806318160ddd1461021a57806323b872dd146102345780632ba591751461026a578063313ce5671461028b575b600080fd5b61016561049e565b6040805160208082528351818301528351919283929083019185019080838360005b8381101561019f578181015183820152602001610187565b50505050905090810190601f1680156101cc5780820380516001836020036101000a031916815260200191505b509250505060405180910390f35b610206600480360360408110156101f057600080fd5b506001600160a01b038135169060200135610534565b604080519115158252519081900360200190f35b610222610552565b60408051918252519081900360200190f35b6102066004803603606081101561024a57600080fd5b506001600160a01b03813581169160208101359091169060400135610558565b6102896004803603602081101561028057600080fd5b503515156105df565b005b6102936105ff565b6040805160ff9092168252519081900360200190f35b610206600480360360408110156102bf57600080fd5b506001600160a01b038135169060200135610608565b610206600480360360208110156102eb57600080fd5b50356001600160a01b0316610656565b61030361066b565b604080516001600160a01b039092168252519081900360200190f35b61022261068f565b6102226004803603602081101561033d57600080fd5b50356001600160a01b0316610695565b6102896004803603602081101561036357600080fd5b503561069c565b6102226004803603602081101561038057600080fd5b50356001600160a01b03166106e4565b6102226106ff565b610165610705565b610206600480360360408110156103b657600080fd5b506001600160a01b038135169060200135610766565b610222600480360360208110156103e257600080fd5b50356001600160a01b03166107ce565b6102066004803603604081101561040857600080fd5b506001600160a01b0381351690602001356107e0565b6102896004803603602081101561043457600080fd5b50356107f4565b6102226004803603604081101561045157600080fd5b506001600160a01b0381358116916020013516610884565b6102896004803603602081101561047f57600080fd5b50356108af565b6102226108e5565b6102226108eb565b610303610985565b60038054604080516020601f600260001961010060018816150201909516949094049384018190048102820181019092528281526060939092909183018282801561052a5780601f106104ff5761010080835404028352916020019161052a565b820191906000526020600020905b81548152906001019060200180831161050d57829003601f168201915b5050505050905090565b6000610548610541610994565b8484610998565b5060015b92915050565b60025490565b6000610565848484610a84565b6105d584610571610994565b6105d085604051806060016040528060288152602001611333602891396001600160a01b038a166000908152600160205260408120906105af610994565b6001600160a01b031681526020810191909152604001600020549190610bdf565b610998565b5060019392505050565b336000908152600b60205260409020805460ff1916911515919091179055565b60055460ff1690565b6000610548610615610994565b846105d08560016000610626610994565b6001600160a01b03908116825260208083019390935260409182016000908120918c168152925290205490610c76565b600b6020526000908152604090205460ff1681565b7f000000000000000000000000000000000000000000000000000000000000000081565b60085481565b5060065490565b6106d16001600160a01b037f000000000000000000000000000000000000000000000000000000000000000016333084610cd7565b6006546106de9082610c76565b60065550565b6001600160a01b031660009081526020819052604090205490565b60065481565b60048054604080516020601f600260001961010060018816150201909516949094049384018190048102820181019092528281526060939092909183018282801561052a5780601f106104ff5761010080835404028352916020019161052a565b6000610548610773610994565b846105d0856040518060600160405280602581526020016113ef602591396001600061079d610994565b6001600160a01b03908116825260208083019390935260409182016000908120918d16815292529020549190610bdf565b600a6020526000908152604090205481565b60006105486107ed610994565b8484610a84565b336000908152600a6020526040902042905580610849576040805162461bcd60e51b815260206004820152600e60248201526d416d6f756e74206973207a65726f60901b604482015290519081900360640190fd5b6108533382610d37565b610881333061086d60085485610e2790919063ffffffff16565b6007546001600160a01b0316929190610cd7565b50565b6001600160a01b03918216600090815260016020908152604080832093909416825291909152205490565b6108b93382610e80565b610881336108d260085484610e2790919063ffffffff16565b6007546001600160a01b03169190610f7c565b60095481565b6006548061092e576040805162461bcd60e51b815260206004820152600b60248201526a16995c9bc81c1c9bd99a5d60aa1b604482015290519081900360640190fd5b604080513381526020810183905281517f47cee97cb7acd717b3c0aa1435d004cd5b3c8c57d70dbceb4e4458bbd60e39d4929181900390910190a161097281610fd3565b60065461097f9082611007565b60065590565b6007546001600160a01b031681565b3390565b6001600160a01b0383166109dd5760405162461bcd60e51b81526004018080602001828103825260248152602001806113a16024913960400191505060405180910390fd5b6001600160a01b038216610a225760405162461bcd60e51b81526004018080602001828103825260228152602001806112ca6022913960400191505060405180910390fd5b6001600160a01b03808416600081815260016020908152604080832094871680845294825291829020859055815185815291517f8c5be1e5ebec7d5bd14f71427d1e84f3dd0314c0f7b2291e5b200ac8c7c3b9259281900390910190a3505050565b6001600160a01b038316610ac95760405162461bcd60e51b815260040180806020018281038252602581526020018061137c6025913960400191505060405180910390fd5b6001600160a01b038216610b0e5760405162461bcd60e51b81526004018080602001828103825260238152602001806112856023913960400191505060405180910390fd5b610b19838383610fce565b610b56816040518060600160405280602681526020016112ec602691396001600160a01b0386166000908152602081905260409020549190610bdf565b6001600160a01b038085166000908152602081905260408082209390935590841681522054610b859082610c76565b6001600160a01b038084166000818152602081815260409182902094909455805185815290519193928716927fddf252ad1be2c89b69c2b068fc378daa952ba7f163c4a11628f55a4df523b3ef92918290030190a3505050565b60008184841115610c6e5760405162461bcd60e51b81526004018080602001828103825283818151815260200191508051906020019080838360005b83811015610c33578181015183820152602001610c1b565b50505050905090810190601f168015610c605780820380516001836020036101000a031916815260200191505b509250505060405180910390fd5b505050900390565b600082820183811015610cd0576040805162461bcd60e51b815260206004820152601b60248201527f536166654d6174683a206164646974696f6e206f766572666c6f770000000000604482015290519081900360640190fd5b9392505050565b604080516001600160a01b0380861660248301528416604482015260648082018490528251808303909101815260849091019091526020810180516001600160e01b03166323b872dd60e01b179052610d31908590611049565b50505050565b6001600160a01b038216610d92576040805162461bcd60e51b815260206004820152601f60248201527f45524332303a206d696e7420746f20746865207a65726f206164647265737300604482015290519081900360640190fd5b610d9e60008383610fce565b600254610dab9082610c76565b6002556001600160a01b038216600090815260208190526040902054610dd19082610c76565b6001600160a01b0383166000818152602081815260408083209490945583518581529351929391927fddf252ad1be2c89b69c2b068fc378daa952ba7f163c4a11628f55a4df523b3ef9281900390910190a35050565b600082610e365750600061054c565b82820282848281610e4357fe5b0414610cd05760405162461bcd60e51b81526004018080602001828103825260218152602001806113126021913960400191505060405180910390fd5b6001600160a01b038216610ec55760405162461bcd60e51b815260040180806020018281038252602181526020018061135b6021913960400191505060405180910390fd5b610ed182600083610fce565b610f0e816040518060600160405280602281526020016112a8602291396001600160a01b0385166000908152602081905260409020549190610bdf565b6001600160a01b038316600090815260208190526040902055600254610f349082611007565b6002556040805182815290516000916001600160a01b038516917fddf252ad1be2c89b69c2b068fc378daa952ba7f163c4a11628f55a4df523b3ef9181900360200190a35050565b604080516001600160a01b038416602482015260448082018490528251808303909101815260649091019091526020810180516001600160e01b031663a9059cbb60e01b179052610fce908490611049565b505050565b6108816001600160a01b037f0000000000000000000000000000000000000000000000000000000000000000163383610f7c565b6000610cd083836040518060400160405280601e81526020017f536166654d6174683a207375627472616374696f6e206f766572666c6f770000815250610bdf565b606061109e826040518060400160405280602081526020017f5361666545524332303a206c6f772d6c6576656c2063616c6c206661696c6564815250856001600160a01b03166110fa9092919063ffffffff16565b805190915015610fce578080602001905160208110156110bd57600080fd5b5051610fce5760405162461bcd60e51b815260040180806020018281038252602a8152602001806113c5602a913960400191505060405180910390fd5b60606111098484600085611111565b949350505050565b606061111c8561127e565b61116d576040805162461bcd60e51b815260206004820152601d60248201527f416464726573733a2063616c6c20746f206e6f6e2d636f6e7472616374000000604482015290519081900360640190fd5b60006060866001600160a01b031685876040518082805190602001908083835b602083106111ac5780518252601f19909201916020918201910161118d565b6001836020036101000a03801982511681845116808217855250505050505090500191505060006040518083038185875af1925050503d806000811461120e576040519150601f19603f3d011682016040523d82523d6000602084013e611213565b606091505b509150915081156112275791506111099050565b8051156112375780518082602001fd5b60405162461bcd60e51b8152602060048201818152865160248401528651879391928392604401919085019080838360008315610c33578181015183820152602001610c1b565b3b15159056fe45524332303a207472616e7366657220746f20746865207a65726f206164647265737345524332303a206275726e20616d6f756e7420657863656564732062616c616e636545524332303a20617070726f766520746f20746865207a65726f206164647265737345524332303a207472616e7366657220616d6f756e7420657863656564732062616c616e6365536166654d6174683a206d756c7469706c69636174696f6e206f766572666c6f7745524332303a207472616e7366657220616d6f756e74206578636565647320616c6c6f77616e636545524332303a206275726e2066726f6d20746865207a65726f206164647265737345524332303a207472616e736665722066726f6d20746865207a65726f206164647265737345524332303a20617070726f76652066726f6d20746865207a65726f20616464726573735361666545524332303a204552433230206f7065726174696f6e20646964206e6f74207375636365656445524332303a2064656372656173656420616c6c6f77616e63652062656c6f77207a65726fa26469706673582212207659b294eb060502a1d0e735d7d02c46e9a0a473ed6d6bcd0ca63786fce168a064736f6c634300060c0033",
  "linkReferences": {},
  "deployedLinkReferences": {}
}