{
  "_format": "hh-sol-artifact-1",
  "contractName": "FakeHegicStakingETH",
  "sourceName": "contracts/TestImplementations.sol",
  "abi": [
    {
      "inputs": [
        {
          "internalType": "contract IERC20",
          "name": "_token",
          "type": "address"
        }
      ],
      "stateMutability": "nonpayable",
      "type": "constructor"
    },
    {
      "anonymous": false,
      "inputs": [
        {
          "indexed": true,
          "internalType": "address",
          "name": "owner",
          "type": "address"
        },
        {
          "indexed": true,
          "internalType": "address",
          "name": "spender",
          "type": "address"
        },
        {
          "indexed": false,
          "internalType": "uint256",
          "name": "value",
          "type": "uint256"
        }
      ],
      "name": "Approval",
      "type": "event"
    },
    {
      "anonymous": false,
      "inputs": [
        {
          "indexed": false,
          "internalType": "address",
          "name": "account",
          "type": "address"
        },
        {
          "indexed": false,
          "internalType": "uint256",
          "name": "profit",
          "type": "uint256"
        }
      ],
      "name": "Claim",
      "type": "event"
    },
    {
      "anonymous": false,
      "inputs": [
        {
          "indexed": true,
          "internalType": "address",
          "name": "from",
          "type": "address"
        },
        {
          "indexed": true,
          "internalType": "address",
          "name": "to",
          "type": "address"
        },
        {
          "indexed": false,
          "internalType": "uint256",
          "name": "value",
          "type": "uint256"
        }
      ],
      "name": "Transfer",
      "type": "event"
    },
    {
      "inputs": [],
      "name": "LOT_PRICE",
      "outputs": [
        {
          "internalType": "uint256",
          "name": "",
          "type": "uint256"
        }
      ],
      "stateMutability": "view",
      "type": "function"
    },
    {
      "inputs": [],
      "name": "MAX_SUPPLY",
      "outputs": [
        {
          "internalType": "uint256",
          "name": "",
          "type": "uint256"
        }
      ],
      "stateMutability": "view",
      "type": "function"
    },
    {
      "inputs": [
        {
          "internalType": "address",
          "name": "",
          "type": "address"
        }
      ],
      "name": "_revertTransfersInLockUpPeriod",
      "outputs": [
        {
          "internalType": "bool",
          "name": "",
          "type": "bool"
        }
      ],
      "stateMutability": "view",
      "type": "function"
    },
    {
      "inputs": [
        {
          "internalType": "address",
          "name": "owner",
          "type": "address"
        },
        {
          "internalType": "address",
          "name": "spender",
          "type": "address"
        }
      ],
      "name": "allowance",
      "outputs": [
        {
          "internalType": "uint256",
          "name": "",
          "type": "uint256"
        }
      ],
      "stateMutability": "view",
      "type": "function"
    },
    {
      "inputs": [
        {
          "internalType": "address",
          "name": "spender",
          "type": "address"
        },
        {
          "internalType": "uint256",
          "name": "amount",
          "type": "uint256"
        }
      ],
      "name": "approve",
      "outputs": [
        {
          "internalType": "bool",
          "name": "",
          "type": "bool"
        }
      ],
      "stateMutability": "nonpayable",
      "type": "function"
    },
    {
      "inputs": [
        {
          "internalType": "address",
          "name": "account",
          "type": "address"
        }
      ],
      "name": "balanceOf",
      "outputs": [
        {
          "internalType": "uint256",
          "name": "",
          "type": "uint256"
        }
      ],
      "stateMutability": "view",
      "type": "function"
    },
    {
      "inputs": [
        {
          "internalType": "uint256",
          "name": "_amount",
          "type": "uint256"
        }
      ],
      "name": "buy",
      "outputs": [],
      "stateMutability": "nonpayable",
      "type": "function"
    },
    {
      "inputs": [],
      "name": "claimProfit",
      "outputs": [
        {
          "internalType": "uint256",
          "name": "_profit",
          "type": "uint256"
        }
      ],
      "stateMutability": "nonpayable",
      "type": "function"
    },
    {
      "inputs": [],
      "name": "decimals",
      "outputs": [
        {
          "internalType": "uint8",
          "name": "",
          "type": "uint8"
        }
      ],
      "stateMutability": "view",
      "type": "function"
    },
    {
      "inputs": [
        {
          "internalType": "address",
          "name": "spender",
          "type": "address"
        },
        {
          "internalType": "uint256",
          "name": "subtractedValue",
          "type": "uint256"
        }
      ],
      "name": "decreaseAllowance",
      "outputs": [
        {
          "internalType": "bool",
          "name": "",
          "type": "bool"
        }
      ],
      "stateMutability": "nonpayable",
      "type": "function"
    },
    {
      "inputs": [
        {
          "internalType": "address",
          "name": "spender",
          "type": "address"
        },
        {
          "internalType": "uint256",
          "name": "addedValue",
          "type": "uint256"
        }
      ],
      "name": "increaseAllowance",
      "outputs": [
        {
          "internalType": "bool",
          "name": "",
          "type": "bool"
        }
      ],
      "stateMutability": "nonpayable",
      "type": "function"
    },
    {
      "inputs": [
        {
          "internalType": "address",
          "name": "",
          "type": "address"
        }
      ],
      "name": "lastBoughtTimestamp",
      "outputs": [
        {
          "internalType": "uint256",
          "name": "",
          "type": "uint256"
        }
      ],
      "stateMutability": "view",
      "type": "function"
    },
    {
      "inputs": [],
      "name": "lockupPeriod",
      "outputs": [
        {
          "internalType": "uint256",
          "name": "",
          "type": "uint256"
        }
      ],
      "stateMutability": "view",
      "type": "function"
    },
    {
      "inputs": [],
      "name": "name",
      "outputs": [
        {
          "internalType": "string",
          "name": "",
          "type": "string"
        }
      ],
      "stateMutability": "view",
      "type": "function"
    },
    {
      "inputs": [
        {
          "internalType": "address",
          "name": "",
          "type": "address"
        }
      ],
      "name": "profitOf",
      "outputs": [
        {
          "internalType": "uint256",
          "name": "_totalProfit",
          "type": "uint256"
        }
      ],
      "stateMutability": "view",
      "type": "function"
    },
    {
      "inputs": [
        {
          "internalType": "bool",
          "name": "value",
          "type": "bool"
        }
      ],
      "name": "revertTransfersInLockUpPeriod",
      "outputs": [],
      "stateMutability": "nonpayable",
      "type": "function"
    },
    {
      "inputs": [
        {
          "internalType": "uint256",
          "name": "_amount",
          "type": "uint256"
        }
      ],
      "name": "sell",
      "outputs": [],
      "stateMutability": "nonpayable",
      "type": "function"
    },
    {
      "inputs": [],
      "name": "sendProfit",
      "outputs": [],
      "stateMutability": "payable",
      "type": "function"
    },
    {
      "inputs": [],
      "name": "symbol",
      "outputs": [
        {
          "internalType": "string",
          "name": "",
          "type": "string"
        }
      ],
      "stateMutability": "view",
      "type": "function"
    },
    {
      "inputs": [],
      "name": "token",
      "outputs": [
        {
          "internalType": "contract IERC20",
          "name": "",
          "type": "address"
        }
      ],
      "stateMutability": "view",
      "type": "function"
    },
    {
      "inputs": [],
      "name": "totalProfit",
      "outputs": [
        {
          "internalType": "uint256",
          "name": "",
          "type": "uint256"
        }
      ],
      "stateMutability": "view",
      "type": "function"
    },
    {
      "inputs": [],
      "name": "totalSupply",
      "outputs": [
        {
          "internalType": "uint256",
          "name": "",
          "type": "uint256"
        }
      ],
      "stateMutability": "view",
      "type": "function"
    },
    {
      "inputs": [
        {
          "internalType": "address",
          "name": "recipient",
          "type": "address"
        },
        {
          "internalType": "uint256",
          "name": "amount",
          "type": "uint256"
        }
      ],
      "name": "transfer",
      "outputs": [
        {
          "internalType": "bool",
          "name": "",
          "type": "bool"
        }
      ],
      "stateMutability": "nonpayable",
      "type": "function"
    },
    {
      "inputs": [
        {
          "internalType": "address",
          "name": "sender",
          "type": "address"
        },
        {
          "internalType": "address",
          "name": "recipient",
          "type": "address"
        },
        {
          "internalType": "uint256",
          "name": "amount",
          "type": "uint256"
        }
      ],
      "name": "transferFrom",
      "outputs": [
        {
          "internalType": "bool",
          "name": "",
          "type": "bool"
        }
      ],
      "stateMutability": "nonpayable",
      "type": "function"
    }
  ],
  "bytecode": "0x608060405269bc0a9392c65c3b000000600655620151806008553480156200002657600080fd5b506040516200173a3803806200173a833981810160405260208110156200004c57600080fd5b5051604080518082018252601581527f486567696320455448205374616b696e67204c6f7400000000000000000000006020828101918252835180850190945260058452640d0d88aa8960db1b908401528151919291620000b09160039162000122565b508051620000c690600490602084019062000122565b50506005805460ff19166012179055506000600b819055600780546001600160a01b0384166001600160a01b031990911617905562000105906200010c565b50620001be565b6005805460ff191660ff92909216919091179055565b828054600181600116156101000203166002900490600052602060002090601f016020900481019282601f106200016557805160ff191683800117855562000195565b8280016001018555821562000195579182015b828111156200019557825182559160200191906001019062000178565b50620001a3929150620001a7565b5090565b5b80821115620001a35760008155600101620001a8565b61156c80620001ce6000396000f3fe60806040526004361061014b5760003560e01c806370a08231116100b6578063d96a094a1161006f578063d96a094a146104bd578063dd62ed3e146104e7578063e4849b3214610522578063ee947a7c1461054c578063f011a7af14610561578063fc0c546a146105765761014b565b806370a08231146103bb57806386001519146103ee57806395d89b4114610403578063a457c2d714610418578063a673729114610451578063a9059cbb146104845761014b565b806332cb6b0c1161010857806332cb6b0c146102ea57806339509351146102ff5780633f40406c146103385780634d8e94251461036b5780634ed37f021461037357806354198ce9146103885761014b565b806306fdde0314610150578063095ea7b3146101da57806318160ddd1461022757806323b872dd1461024e5780632ba5917514610291578063313ce567146102bf575b600080fd5b34801561015c57600080fd5b506101656105a7565b6040805160208082528351818301528351919283929083019185019080838360005b8381101561019f578181015183820152602001610187565b50505050905090810190601f1680156101cc5780820380516001836020036101000a031916815260200191505b509250505060405180910390f35b3480156101e657600080fd5b50610213600480360360408110156101fd57600080fd5b506001600160a01b03813516906020013561063d565b604080519115158252519081900360200190f35b34801561023357600080fd5b5061023c61065b565b60408051918252519081900360200190f35b34801561025a57600080fd5b506102136004803603606081101561027157600080fd5b506001600160a01b03813581169160208101359091169060400135610661565b34801561029d57600080fd5b506102bd600480360360208110156102b457600080fd5b503515156106e8565b005b3480156102cb57600080fd5b506102d4610708565b6040805160ff9092168252519081900360200190f35b3480156102f657600080fd5b5061023c610711565b34801561030b57600080fd5b506102136004803603604081101561032257600080fd5b506001600160a01b038135169060200135610716565b34801561034457600080fd5b506102136004803603602081101561035b57600080fd5b50356001600160a01b0316610764565b6102bd610779565b34801561037f57600080fd5b5061023c61078b565b34801561039457600080fd5b5061023c600480360360208110156103ab57600080fd5b50356001600160a01b0316610791565b3480156103c757600080fd5b5061023c600480360360208110156103de57600080fd5b50356001600160a01b0316610798565b3480156103fa57600080fd5b5061023c6107b3565b34801561040f57600080fd5b506101656107b9565b34801561042457600080fd5b506102136004803603604081101561043b57600080fd5b506001600160a01b03813516906020013561081a565b34801561045d57600080fd5b5061023c6004803603602081101561047457600080fd5b50356001600160a01b0316610882565b34801561049057600080fd5b50610213600480360360408110156104a757600080fd5b506001600160a01b038135169060200135610894565b3480156104c957600080fd5b506102bd600480360360208110156104e057600080fd5b50356108a8565b3480156104f357600080fd5b5061023c6004803603604081101561050a57600080fd5b506001600160a01b0381358116916020013516610938565b34801561052e57600080fd5b506102bd6004803603602081101561054557600080fd5b5035610963565b34801561055857600080fd5b5061023c610a0b565b34801561056d57600080fd5b5061023c610a11565b34801561058257600080fd5b5061058b610aab565b604080516001600160a01b039092168252519081900360200190f35b60038054604080516020601f60026000196101006001881615020190951694909404938401819004810282018101909252828152606093909290918301828280156106335780601f1061060857610100808354040283529160200191610633565b820191906000526020600020905b81548152906001019060200180831161061657829003601f168201915b5050505050905090565b600061065161064a610aba565b8484610abe565b5060015b92915050565b60025490565b600061066e848484610baa565b6106de8461067a610aba565b6106d985604051806060016040528060288152602001611456602891396001600160a01b038a166000908152600160205260408120906106b8610aba565b6001600160a01b031681526020810191909152604001600020549190610d05565b610abe565b5060019392505050565b336000908152600a60205260409020805460ff1916911515919091179055565b60055460ff1690565b600a81565b6000610651610723610aba565b846106d98560016000610734610aba565b6001600160a01b03908116825260208083019390935260409182016000908120918c168152925290205490610d9c565b600a6020526000908152604090205460ff1681565b600b546107869034610d9c565b600b55565b60065481565b50600b5490565b6001600160a01b031660009081526020819052604090205490565b600b5481565b60048054604080516020601f60026000196101006001881615020190951694909404938401819004810282018101909252828152606093909290918301828280156106335780601f1061060857610100808354040283529160200191610633565b6000610651610827610aba565b846106d9856040518060600160405280602581526020016115126025913960016000610851610aba565b6001600160a01b03908116825260208083019390935260409182016000908120918d16815292529020549190610d05565b60096020526000908152604090205481565b60006106516108a1610aba565b8484610baa565b336000908152600960205260409020429055806108fd576040805162461bcd60e51b815260206004820152600e60248201526d416d6f756e74206973207a65726f60901b604482015290519081900360640190fd5b6109073382610dfd565b610935333061092160065485610eed90919063ffffffff16565b6007546001600160a01b0316929190610f46565b50565b6001600160a01b03918216600090815260016020908152604080832093909416825291909152205490565b6008543360009081526009602052604090205442916109829190610d9c565b11156109d5576040805162461bcd60e51b815260206004820152601e60248201527f416374696f6e2073757370656e6465642064756520746f206c6f636b75700000604482015290519081900360640190fd5b6109df3382610fa6565b610935336109f860065484610eed90919063ffffffff16565b6007546001600160a01b031691906110a2565b60085481565b600b5480610a54576040805162461bcd60e51b815260206004820152600b60248201526a16995c9bc81c1c9bd99a5d60aa1b604482015290519081900360640190fd5b604080513381526020810183905281517f47cee97cb7acd717b3c0aa1435d004cd5b3c8c57d70dbceb4e4458bbd60e39d4929181900390910190a1610a98816110f9565b600b54610aa5908261112a565b600b5590565b6007546001600160a01b031681565b3390565b6001600160a01b038316610b035760405162461bcd60e51b81526004018080602001828103825260248152602001806114c46024913960400191505060405180910390fd5b6001600160a01b038216610b485760405162461bcd60e51b81526004018080602001828103825260228152602001806113ed6022913960400191505060405180910390fd5b6001600160a01b03808416600081815260016020908152604080832094871680845294825291829020859055815185815291517f8c5be1e5ebec7d5bd14f71427d1e84f3dd0314c0f7b2291e5b200ac8c7c3b9259281900390910190a3505050565b6001600160a01b038316610bef5760405162461bcd60e51b815260040180806020018281038252602581526020018061149f6025913960400191505060405180910390fd5b6001600160a01b038216610c345760405162461bcd60e51b81526004018080602001828103825260238152602001806113a86023913960400191505060405180910390fd5b610c3f8383836110f4565b610c7c8160405180606001604052806026815260200161140f602691396001600160a01b0386166000908152602081905260409020549190610d05565b6001600160a01b038085166000908152602081905260408082209390935590841681522054610cab9082610d9c565b6001600160a01b038084166000818152602081815260409182902094909455805185815290519193928716927fddf252ad1be2c89b69c2b068fc378daa952ba7f163c4a11628f55a4df523b3ef92918290030190a3505050565b60008184841115610d945760405162461bcd60e51b81526004018080602001828103825283818151815260200191508051906020019080838360005b83811015610d59578181015183820152602001610d41565b50505050905090810190601f168015610d865780820380516001836020036101000a031916815260200191505b509250505060405180910390fd5b505050900390565b600082820183811015610df6576040805162461bcd60e51b815260206004820152601b60248201527f536166654d6174683a206164646974696f6e206f766572666c6f770000000000604482015290519081900360640190fd5b9392505050565b6001600160a01b038216610e58576040805162461bcd60e51b815260206004820152601f60248201527f45524332303a206d696e7420746f20746865207a65726f206164647265737300604482015290519081900360640190fd5b610e64600083836110f4565b600254610e719082610d9c565b6002556001600160a01b038216600090815260208190526040902054610e979082610d9c565b6001600160a01b0383166000818152602081815260408083209490945583518581529351929391927fddf252ad1be2c89b69c2b068fc378daa952ba7f163c4a11628f55a4df523b3ef9281900390910190a35050565b600082610efc57506000610655565b82820282848281610f0957fe5b0414610df65760405162461bcd60e51b81526004018080602001828103825260218152602001806114356021913960400191505060405180910390fd5b604080516001600160a01b0380861660248301528416604482015260648082018490528251808303909101815260849091019091526020810180516001600160e01b03166323b872dd60e01b179052610fa090859061116c565b50505050565b6001600160a01b038216610feb5760405162461bcd60e51b815260040180806020018281038252602181526020018061147e6021913960400191505060405180910390fd5b610ff7826000836110f4565b611034816040518060600160405280602281526020016113cb602291396001600160a01b0385166000908152602081905260409020549190610d05565b6001600160a01b03831660009081526020819052604090205560025461105a908261112a565b6002556040805182815290516000916001600160a01b038516917fddf252ad1be2c89b69c2b068fc378daa952ba7f163c4a11628f55a4df523b3ef9181900360200190a35050565b604080516001600160a01b038416602482015260448082018490528251808303909101815260649091019091526020810180516001600160e01b031663a9059cbb60e01b1790526110f490849061116c565b505050565b604051339082156108fc029083906000818181858888f19350505050158015611126573d6000803e3d6000fd5b5050565b6000610df683836040518060400160405280601e81526020017f536166654d6174683a207375627472616374696f6e206f766572666c6f770000815250610d05565b60606111c1826040518060400160405280602081526020017f5361666545524332303a206c6f772d6c6576656c2063616c6c206661696c6564815250856001600160a01b031661121d9092919063ffffffff16565b8051909150156110f4578080602001905160208110156111e057600080fd5b50516110f45760405162461bcd60e51b815260040180806020018281038252602a8152602001806114e8602a913960400191505060405180910390fd5b606061122c8484600085611234565b949350505050565b606061123f856113a1565b611290576040805162461bcd60e51b815260206004820152601d60248201527f416464726573733a2063616c6c20746f206e6f6e2d636f6e7472616374000000604482015290519081900360640190fd5b60006060866001600160a01b031685876040518082805190602001908083835b602083106112cf5780518252601f1990920191602091820191016112b0565b6001836020036101000a03801982511681845116808217855250505050505090500191505060006040518083038185875af1925050503d8060008114611331576040519150601f19603f3d011682016040523d82523d6000602084013e611336565b606091505b5091509150811561134a57915061122c9050565b80511561135a5780518082602001fd5b60405162461bcd60e51b8152602060048201818152865160248401528651879391928392604401919085019080838360008315610d59578181015183820152602001610d41565b3b15159056fe45524332303a207472616e7366657220746f20746865207a65726f206164647265737345524332303a206275726e20616d6f756e7420657863656564732062616c616e636545524332303a20617070726f766520746f20746865207a65726f206164647265737345524332303a207472616e7366657220616d6f756e7420657863656564732062616c616e6365536166654d6174683a206d756c7469706c69636174696f6e206f766572666c6f7745524332303a207472616e7366657220616d6f756e74206578636565647320616c6c6f77616e636545524332303a206275726e2066726f6d20746865207a65726f206164647265737345524332303a207472616e736665722066726f6d20746865207a65726f206164647265737345524332303a20617070726f76652066726f6d20746865207a65726f20616464726573735361666545524332303a204552433230206f7065726174696f6e20646964206e6f74207375636365656445524332303a2064656372656173656420616c6c6f77616e63652062656c6f77207a65726fa2646970667358221220bac9b310b1a8ab93a8a7345145dbdac18688ade0e243686f9c4419659501b66264736f6c634300060c0033",
  "linkReferences": {},
  "deployedLinkReferences": {}
}