{
  "_format": "hh-sol-artifact-1",
  "contractName": "FakeHegicStakingETH",
  "sourceName": "contracts/TestImplementations.sol",
  "abi": [
    {
      "inputs": [
        {
          "internalType": "contract IERC20",
          "name": "_token",
          "type": "address"
        }
      ],
      "stateMutability": "nonpayable",
      "type": "constructor"
    },
    {
      "anonymous": false,
      "inputs": [
        {
          "indexed": true,
          "internalType": "address",
          "name": "owner",
          "type": "address"
        },
        {
          "indexed": true,
          "internalType": "address",
          "name": "spender",
          "type": "address"
        },
        {
          "indexed": false,
          "internalType": "uint256",
          "name": "value",
          "type": "uint256"
        }
      ],
      "name": "Approval",
      "type": "event"
    },
    {
      "anonymous": false,
      "inputs": [
        {
          "indexed": false,
          "internalType": "address",
          "name": "account",
          "type": "address"
        },
        {
          "indexed": false,
          "internalType": "uint256",
          "name": "profit",
          "type": "uint256"
        }
      ],
      "name": "Claim",
      "type": "event"
    },
    {
      "anonymous": false,
      "inputs": [
        {
          "indexed": true,
          "internalType": "address",
          "name": "from",
          "type": "address"
        },
        {
          "indexed": true,
          "internalType": "address",
          "name": "to",
          "type": "address"
        },
        {
          "indexed": false,
          "internalType": "uint256",
          "name": "value",
          "type": "uint256"
        }
      ],
      "name": "Transfer",
      "type": "event"
    },
    {
      "inputs": [],
      "name": "LOT_PRICE",
      "outputs": [
        {
          "internalType": "uint256",
          "name": "",
          "type": "uint256"
        }
      ],
      "stateMutability": "view",
      "type": "function"
    },
    {
      "inputs": [
        {
          "internalType": "address",
          "name": "",
          "type": "address"
        }
      ],
      "name": "_revertTransfersInLockUpPeriod",
      "outputs": [
        {
          "internalType": "bool",
          "name": "",
          "type": "bool"
        }
      ],
      "stateMutability": "view",
      "type": "function"
    },
    {
      "inputs": [
        {
          "internalType": "address",
          "name": "owner",
          "type": "address"
        },
        {
          "internalType": "address",
          "name": "spender",
          "type": "address"
        }
      ],
      "name": "allowance",
      "outputs": [
        {
          "internalType": "uint256",
          "name": "",
          "type": "uint256"
        }
      ],
      "stateMutability": "view",
      "type": "function"
    },
    {
      "inputs": [
        {
          "internalType": "address",
          "name": "spender",
          "type": "address"
        },
        {
          "internalType": "uint256",
          "name": "amount",
          "type": "uint256"
        }
      ],
      "name": "approve",
      "outputs": [
        {
          "internalType": "bool",
          "name": "",
          "type": "bool"
        }
      ],
      "stateMutability": "nonpayable",
      "type": "function"
    },
    {
      "inputs": [
        {
          "internalType": "address",
          "name": "account",
          "type": "address"
        }
      ],
      "name": "balanceOf",
      "outputs": [
        {
          "internalType": "uint256",
          "name": "",
          "type": "uint256"
        }
      ],
      "stateMutability": "view",
      "type": "function"
    },
    {
      "inputs": [
        {
          "internalType": "uint256",
          "name": "_amount",
          "type": "uint256"
        }
      ],
      "name": "buy",
      "outputs": [],
      "stateMutability": "nonpayable",
      "type": "function"
    },
    {
      "inputs": [],
      "name": "claimProfit",
      "outputs": [
        {
          "internalType": "uint256",
          "name": "_profit",
          "type": "uint256"
        }
      ],
      "stateMutability": "nonpayable",
      "type": "function"
    },
    {
      "inputs": [],
      "name": "decimals",
      "outputs": [
        {
          "internalType": "uint8",
          "name": "",
          "type": "uint8"
        }
      ],
      "stateMutability": "view",
      "type": "function"
    },
    {
      "inputs": [
        {
          "internalType": "address",
          "name": "spender",
          "type": "address"
        },
        {
          "internalType": "uint256",
          "name": "subtractedValue",
          "type": "uint256"
        }
      ],
      "name": "decreaseAllowance",
      "outputs": [
        {
          "internalType": "bool",
          "name": "",
          "type": "bool"
        }
      ],
      "stateMutability": "nonpayable",
      "type": "function"
    },
    {
      "inputs": [
        {
          "internalType": "address",
          "name": "spender",
          "type": "address"
        },
        {
          "internalType": "uint256",
          "name": "addedValue",
          "type": "uint256"
        }
      ],
      "name": "increaseAllowance",
      "outputs": [
        {
          "internalType": "bool",
          "name": "",
          "type": "bool"
        }
      ],
      "stateMutability": "nonpayable",
      "type": "function"
    },
    {
      "inputs": [
        {
          "internalType": "address",
          "name": "",
          "type": "address"
        }
      ],
      "name": "lastBoughtTimestamp",
      "outputs": [
        {
          "internalType": "uint256",
          "name": "",
          "type": "uint256"
        }
      ],
      "stateMutability": "view",
      "type": "function"
    },
    {
      "inputs": [],
      "name": "lockupPeriod",
      "outputs": [
        {
          "internalType": "uint256",
          "name": "",
          "type": "uint256"
        }
      ],
      "stateMutability": "view",
      "type": "function"
    },
    {
      "inputs": [],
      "name": "name",
      "outputs": [
        {
          "internalType": "string",
          "name": "",
          "type": "string"
        }
      ],
      "stateMutability": "view",
      "type": "function"
    },
    {
      "inputs": [
        {
          "internalType": "address",
          "name": "",
          "type": "address"
        }
      ],
      "name": "profitOf",
      "outputs": [
        {
          "internalType": "uint256",
          "name": "_totalProfit",
          "type": "uint256"
        }
      ],
      "stateMutability": "view",
      "type": "function"
    },
    {
      "inputs": [
        {
          "internalType": "bool",
          "name": "value",
          "type": "bool"
        }
      ],
      "name": "revertTransfersInLockUpPeriod",
      "outputs": [],
      "stateMutability": "nonpayable",
      "type": "function"
    },
    {
      "inputs": [
        {
          "internalType": "uint256",
          "name": "_amount",
          "type": "uint256"
        }
      ],
      "name": "sell",
      "outputs": [],
      "stateMutability": "nonpayable",
      "type": "function"
    },
    {
      "inputs": [],
      "name": "sendProfit",
      "outputs": [],
      "stateMutability": "payable",
      "type": "function"
    },
    {
      "inputs": [],
      "name": "symbol",
      "outputs": [
        {
          "internalType": "string",
          "name": "",
          "type": "string"
        }
      ],
      "stateMutability": "view",
      "type": "function"
    },
    {
      "inputs": [],
      "name": "token",
      "outputs": [
        {
          "internalType": "contract IERC20",
          "name": "",
          "type": "address"
        }
      ],
      "stateMutability": "view",
      "type": "function"
    },
    {
      "inputs": [],
      "name": "totalProfit",
      "outputs": [
        {
          "internalType": "uint256",
          "name": "",
          "type": "uint256"
        }
      ],
      "stateMutability": "view",
      "type": "function"
    },
    {
      "inputs": [],
      "name": "totalSupply",
      "outputs": [
        {
          "internalType": "uint256",
          "name": "",
          "type": "uint256"
        }
      ],
      "stateMutability": "view",
      "type": "function"
    },
    {
      "inputs": [
        {
          "internalType": "address",
          "name": "recipient",
          "type": "address"
        },
        {
          "internalType": "uint256",
          "name": "amount",
          "type": "uint256"
        }
      ],
      "name": "transfer",
      "outputs": [
        {
          "internalType": "bool",
          "name": "",
          "type": "bool"
        }
      ],
      "stateMutability": "nonpayable",
      "type": "function"
    },
    {
      "inputs": [
        {
          "internalType": "address",
          "name": "sender",
          "type": "address"
        },
        {
          "internalType": "address",
          "name": "recipient",
          "type": "address"
        },
        {
          "internalType": "uint256",
          "name": "amount",
          "type": "uint256"
        }
      ],
      "name": "transferFrom",
      "outputs": [
        {
          "internalType": "bool",
          "name": "",
          "type": "bool"
        }
      ],
      "stateMutability": "nonpayable",
      "type": "function"
    }
  ],
  "bytecode": "0x608060405269bc0a9392c65c3b000000600655620151806008553480156200002657600080fd5b506040516200171538038062001715833981810160405260208110156200004c57600080fd5b5051604080518082018252601581527f486567696320455448205374616b696e67204c6f7400000000000000000000006020828101918252835180850190945260058452640d0d88aa8960db1b908401528151919291620000b09160039162000122565b508051620000c690600490602084019062000122565b50506005805460ff19166012179055506000600b819055600780546001600160a01b0384166001600160a01b031990911617905562000105906200010c565b50620001be565b6005805460ff191660ff92909216919091179055565b828054600181600116156101000203166002900490600052602060002090601f016020900481019282601f106200016557805160ff191683800117855562000195565b8280016001018555821562000195579182015b828111156200019557825182559160200191906001019062000178565b50620001a3929150620001a7565b5090565b5b80821115620001a35760008155600101620001a8565b61154780620001ce6000396000f3fe6080604052600436106101405760003560e01c806370a08231116100b6578063d96a094a1161006f578063d96a094a1461049d578063dd62ed3e146104c7578063e4849b3214610502578063ee947a7c1461052c578063f011a7af14610541578063fc0c546a1461055657610140565b806370a082311461039b57806386001519146103ce57806395d89b41146103e3578063a457c2d7146103f8578063a673729114610431578063a9059cbb1461046457610140565b8063313ce56711610108578063313ce567146102b457806339509351146102df5780633f40406c146103185780634d8e94251461034b5780634ed37f021461035357806354198ce91461036857610140565b806306fdde0314610145578063095ea7b3146101cf57806318160ddd1461021c57806323b872dd146102435780632ba5917514610286575b600080fd5b34801561015157600080fd5b5061015a610587565b6040805160208082528351818301528351919283929083019185019080838360005b8381101561019457818101518382015260200161017c565b50505050905090810190601f1680156101c15780820380516001836020036101000a031916815260200191505b509250505060405180910390f35b3480156101db57600080fd5b50610208600480360360408110156101f257600080fd5b506001600160a01b03813516906020013561061d565b604080519115158252519081900360200190f35b34801561022857600080fd5b5061023161063b565b60408051918252519081900360200190f35b34801561024f57600080fd5b506102086004803603606081101561026657600080fd5b506001600160a01b03813581169160208101359091169060400135610641565b34801561029257600080fd5b506102b2600480360360208110156102a957600080fd5b503515156106c8565b005b3480156102c057600080fd5b506102c96106e8565b6040805160ff9092168252519081900360200190f35b3480156102eb57600080fd5b506102086004803603604081101561030257600080fd5b506001600160a01b0381351690602001356106f1565b34801561032457600080fd5b506102086004803603602081101561033b57600080fd5b50356001600160a01b031661073f565b6102b2610754565b34801561035f57600080fd5b50610231610766565b34801561037457600080fd5b506102316004803603602081101561038b57600080fd5b50356001600160a01b031661076c565b3480156103a757600080fd5b50610231600480360360208110156103be57600080fd5b50356001600160a01b0316610773565b3480156103da57600080fd5b5061023161078e565b3480156103ef57600080fd5b5061015a610794565b34801561040457600080fd5b506102086004803603604081101561041b57600080fd5b506001600160a01b0381351690602001356107f5565b34801561043d57600080fd5b506102316004803603602081101561045457600080fd5b50356001600160a01b031661085d565b34801561047057600080fd5b506102086004803603604081101561048757600080fd5b506001600160a01b03813516906020013561086f565b3480156104a957600080fd5b506102b2600480360360208110156104c057600080fd5b5035610883565b3480156104d357600080fd5b50610231600480360360408110156104ea57600080fd5b506001600160a01b0381358116916020013516610913565b34801561050e57600080fd5b506102b26004803603602081101561052557600080fd5b503561093e565b34801561053857600080fd5b506102316109e6565b34801561054d57600080fd5b506102316109ec565b34801561056257600080fd5b5061056b610a86565b604080516001600160a01b039092168252519081900360200190f35b60038054604080516020601f60026000196101006001881615020190951694909404938401819004810282018101909252828152606093909290918301828280156106135780601f106105e857610100808354040283529160200191610613565b820191906000526020600020905b8154815290600101906020018083116105f657829003601f168201915b5050505050905090565b600061063161062a610a95565b8484610a99565b5060015b92915050565b60025490565b600061064e848484610b85565b6106be8461065a610a95565b6106b985604051806060016040528060288152602001611431602891396001600160a01b038a16600090815260016020526040812090610698610a95565b6001600160a01b031681526020810191909152604001600020549190610ce0565b610a99565b5060019392505050565b336000908152600a60205260409020805460ff1916911515919091179055565b60055460ff1690565b60006106316106fe610a95565b846106b9856001600061070f610a95565b6001600160a01b03908116825260208083019390935260409182016000908120918c168152925290205490610d77565b600a6020526000908152604090205460ff1681565b600b546107619034610d77565b600b55565b60065481565b50600b5490565b6001600160a01b031660009081526020819052604090205490565b600b5481565b60048054604080516020601f60026000196101006001881615020190951694909404938401819004810282018101909252828152606093909290918301828280156106135780601f106105e857610100808354040283529160200191610613565b6000610631610802610a95565b846106b9856040518060600160405280602581526020016114ed602591396001600061082c610a95565b6001600160a01b03908116825260208083019390935260409182016000908120918d16815292529020549190610ce0565b60096020526000908152604090205481565b600061063161087c610a95565b8484610b85565b336000908152600960205260409020429055806108d8576040805162461bcd60e51b815260206004820152600e60248201526d416d6f756e74206973207a65726f60901b604482015290519081900360640190fd5b6108e23382610dd8565b61091033306108fc60065485610ec890919063ffffffff16565b6007546001600160a01b0316929190610f21565b50565b6001600160a01b03918216600090815260016020908152604080832093909416825291909152205490565b60085433600090815260096020526040902054429161095d9190610d77565b11156109b0576040805162461bcd60e51b815260206004820152601e60248201527f416374696f6e2073757370656e6465642064756520746f206c6f636b75700000604482015290519081900360640190fd5b6109ba3382610f81565b610910336109d360065484610ec890919063ffffffff16565b6007546001600160a01b0316919061107d565b60085481565b600b5480610a2f576040805162461bcd60e51b815260206004820152600b60248201526a16995c9bc81c1c9bd99a5d60aa1b604482015290519081900360640190fd5b604080513381526020810183905281517f47cee97cb7acd717b3c0aa1435d004cd5b3c8c57d70dbceb4e4458bbd60e39d4929181900390910190a1610a73816110d4565b600b54610a809082611105565b600b5590565b6007546001600160a01b031681565b3390565b6001600160a01b038316610ade5760405162461bcd60e51b815260040180806020018281038252602481526020018061149f6024913960400191505060405180910390fd5b6001600160a01b038216610b235760405162461bcd60e51b81526004018080602001828103825260228152602001806113c86022913960400191505060405180910390fd5b6001600160a01b03808416600081815260016020908152604080832094871680845294825291829020859055815185815291517f8c5be1e5ebec7d5bd14f71427d1e84f3dd0314c0f7b2291e5b200ac8c7c3b9259281900390910190a3505050565b6001600160a01b038316610bca5760405162461bcd60e51b815260040180806020018281038252602581526020018061147a6025913960400191505060405180910390fd5b6001600160a01b038216610c0f5760405162461bcd60e51b81526004018080602001828103825260238152602001806113836023913960400191505060405180910390fd5b610c1a8383836110cf565b610c57816040518060600160405280602681526020016113ea602691396001600160a01b0386166000908152602081905260409020549190610ce0565b6001600160a01b038085166000908152602081905260408082209390935590841681522054610c869082610d77565b6001600160a01b038084166000818152602081815260409182902094909455805185815290519193928716927fddf252ad1be2c89b69c2b068fc378daa952ba7f163c4a11628f55a4df523b3ef92918290030190a3505050565b60008184841115610d6f5760405162461bcd60e51b81526004018080602001828103825283818151815260200191508051906020019080838360005b83811015610d34578181015183820152602001610d1c565b50505050905090810190601f168015610d615780820380516001836020036101000a031916815260200191505b509250505060405180910390fd5b505050900390565b600082820183811015610dd1576040805162461bcd60e51b815260206004820152601b60248201527f536166654d6174683a206164646974696f6e206f766572666c6f770000000000604482015290519081900360640190fd5b9392505050565b6001600160a01b038216610e33576040805162461bcd60e51b815260206004820152601f60248201527f45524332303a206d696e7420746f20746865207a65726f206164647265737300604482015290519081900360640190fd5b610e3f600083836110cf565b600254610e4c9082610d77565b6002556001600160a01b038216600090815260208190526040902054610e729082610d77565b6001600160a01b0383166000818152602081815260408083209490945583518581529351929391927fddf252ad1be2c89b69c2b068fc378daa952ba7f163c4a11628f55a4df523b3ef9281900390910190a35050565b600082610ed757506000610635565b82820282848281610ee457fe5b0414610dd15760405162461bcd60e51b81526004018080602001828103825260218152602001806114106021913960400191505060405180910390fd5b604080516001600160a01b0380861660248301528416604482015260648082018490528251808303909101815260849091019091526020810180516001600160e01b03166323b872dd60e01b179052610f7b908590611147565b50505050565b6001600160a01b038216610fc65760405162461bcd60e51b81526004018080602001828103825260218152602001806114596021913960400191505060405180910390fd5b610fd2826000836110cf565b61100f816040518060600160405280602281526020016113a6602291396001600160a01b0385166000908152602081905260409020549190610ce0565b6001600160a01b0383166000908152602081905260409020556002546110359082611105565b6002556040805182815290516000916001600160a01b038516917fddf252ad1be2c89b69c2b068fc378daa952ba7f163c4a11628f55a4df523b3ef9181900360200190a35050565b604080516001600160a01b038416602482015260448082018490528251808303909101815260649091019091526020810180516001600160e01b031663a9059cbb60e01b1790526110cf908490611147565b505050565b604051339082156108fc029083906000818181858888f19350505050158015611101573d6000803e3d6000fd5b5050565b6000610dd183836040518060400160405280601e81526020017f536166654d6174683a207375627472616374696f6e206f766572666c6f770000815250610ce0565b606061119c826040518060400160405280602081526020017f5361666545524332303a206c6f772d6c6576656c2063616c6c206661696c6564815250856001600160a01b03166111f89092919063ffffffff16565b8051909150156110cf578080602001905160208110156111bb57600080fd5b50516110cf5760405162461bcd60e51b815260040180806020018281038252602a8152602001806114c3602a913960400191505060405180910390fd5b6060611207848460008561120f565b949350505050565b606061121a8561137c565b61126b576040805162461bcd60e51b815260206004820152601d60248201527f416464726573733a2063616c6c20746f206e6f6e2d636f6e7472616374000000604482015290519081900360640190fd5b60006060866001600160a01b031685876040518082805190602001908083835b602083106112aa5780518252601f19909201916020918201910161128b565b6001836020036101000a03801982511681845116808217855250505050505090500191505060006040518083038185875af1925050503d806000811461130c576040519150601f19603f3d011682016040523d82523d6000602084013e611311565b606091505b509150915081156113255791506112079050565b8051156113355780518082602001fd5b60405162461bcd60e51b8152602060048201818152865160248401528651879391928392604401919085019080838360008315610d34578181015183820152602001610d1c565b3b15159056fe45524332303a207472616e7366657220746f20746865207a65726f206164647265737345524332303a206275726e20616d6f756e7420657863656564732062616c616e636545524332303a20617070726f766520746f20746865207a65726f206164647265737345524332303a207472616e7366657220616d6f756e7420657863656564732062616c616e6365536166654d6174683a206d756c7469706c69636174696f6e206f766572666c6f7745524332303a207472616e7366657220616d6f756e74206578636565647320616c6c6f77616e636545524332303a206275726e2066726f6d20746865207a65726f206164647265737345524332303a207472616e736665722066726f6d20746865207a65726f206164647265737345524332303a20617070726f76652066726f6d20746865207a65726f20616464726573735361666545524332303a204552433230206f7065726174696f6e20646964206e6f74207375636365656445524332303a2064656372656173656420616c6c6f77616e63652062656c6f77207a65726fa2646970667358221220c660cf9e597b3f1722c270d8b5877b5057a2c8fb836e2fc7b37af5867103844b64736f6c634300060c0033",
  "linkReferences": {},
  "deployedLinkReferences": {}
}