{
  "_format": "hh-sol-artifact-1",
  "contractName": "FakeHegicStakingWBTC",
  "sourceName": "contracts/TestImplementations.sol",
  "abi": [
    {
      "inputs": [
        {
          "internalType": "contract IERC20",
          "name": "_wbtc",
          "type": "address"
        },
        {
          "internalType": "contract IERC20",
          "name": "_token",
          "type": "address"
        }
      ],
      "stateMutability": "nonpayable",
      "type": "constructor"
    },
    {
      "anonymous": false,
      "inputs": [
        {
          "indexed": true,
          "internalType": "address",
          "name": "owner",
          "type": "address"
        },
        {
          "indexed": true,
          "internalType": "address",
          "name": "spender",
          "type": "address"
        },
        {
          "indexed": false,
          "internalType": "uint256",
          "name": "value",
          "type": "uint256"
        }
      ],
      "name": "Approval",
      "type": "event"
    },
    {
      "anonymous": false,
      "inputs": [
        {
          "indexed": false,
          "internalType": "address",
          "name": "account",
          "type": "address"
        },
        {
          "indexed": false,
          "internalType": "uint256",
          "name": "profit",
          "type": "uint256"
        }
      ],
      "name": "Claim",
      "type": "event"
    },
    {
      "anonymous": false,
      "inputs": [
        {
          "indexed": true,
          "internalType": "address",
          "name": "from",
          "type": "address"
        },
        {
          "indexed": true,
          "internalType": "address",
          "name": "to",
          "type": "address"
        },
        {
          "indexed": false,
          "internalType": "uint256",
          "name": "value",
          "type": "uint256"
        }
      ],
      "name": "Transfer",
      "type": "event"
    },
    {
      "inputs": [],
      "name": "LOT_PRICE",
      "outputs": [
        {
          "internalType": "uint256",
          "name": "",
          "type": "uint256"
        }
      ],
      "stateMutability": "view",
      "type": "function"
    },
    {
      "inputs": [],
      "name": "MAX_SUPPLY",
      "outputs": [
        {
          "internalType": "uint256",
          "name": "",
          "type": "uint256"
        }
      ],
      "stateMutability": "view",
      "type": "function"
    },
    {
      "inputs": [],
      "name": "WBTC",
      "outputs": [
        {
          "internalType": "contract IERC20",
          "name": "",
          "type": "address"
        }
      ],
      "stateMutability": "view",
      "type": "function"
    },
    {
      "inputs": [
        {
          "internalType": "address",
          "name": "",
          "type": "address"
        }
      ],
      "name": "_revertTransfersInLockUpPeriod",
      "outputs": [
        {
          "internalType": "bool",
          "name": "",
          "type": "bool"
        }
      ],
      "stateMutability": "view",
      "type": "function"
    },
    {
      "inputs": [
        {
          "internalType": "address",
          "name": "owner",
          "type": "address"
        },
        {
          "internalType": "address",
          "name": "spender",
          "type": "address"
        }
      ],
      "name": "allowance",
      "outputs": [
        {
          "internalType": "uint256",
          "name": "",
          "type": "uint256"
        }
      ],
      "stateMutability": "view",
      "type": "function"
    },
    {
      "inputs": [
        {
          "internalType": "address",
          "name": "spender",
          "type": "address"
        },
        {
          "internalType": "uint256",
          "name": "amount",
          "type": "uint256"
        }
      ],
      "name": "approve",
      "outputs": [
        {
          "internalType": "bool",
          "name": "",
          "type": "bool"
        }
      ],
      "stateMutability": "nonpayable",
      "type": "function"
    },
    {
      "inputs": [
        {
          "internalType": "address",
          "name": "account",
          "type": "address"
        }
      ],
      "name": "balanceOf",
      "outputs": [
        {
          "internalType": "uint256",
          "name": "",
          "type": "uint256"
        }
      ],
      "stateMutability": "view",
      "type": "function"
    },
    {
      "inputs": [
        {
          "internalType": "uint256",
          "name": "_amount",
          "type": "uint256"
        }
      ],
      "name": "buy",
      "outputs": [],
      "stateMutability": "nonpayable",
      "type": "function"
    },
    {
      "inputs": [],
      "name": "claimProfit",
      "outputs": [
        {
          "internalType": "uint256",
          "name": "_profit",
          "type": "uint256"
        }
      ],
      "stateMutability": "nonpayable",
      "type": "function"
    },
    {
      "inputs": [],
      "name": "decimals",
      "outputs": [
        {
          "internalType": "uint8",
          "name": "",
          "type": "uint8"
        }
      ],
      "stateMutability": "view",
      "type": "function"
    },
    {
      "inputs": [
        {
          "internalType": "address",
          "name": "spender",
          "type": "address"
        },
        {
          "internalType": "uint256",
          "name": "subtractedValue",
          "type": "uint256"
        }
      ],
      "name": "decreaseAllowance",
      "outputs": [
        {
          "internalType": "bool",
          "name": "",
          "type": "bool"
        }
      ],
      "stateMutability": "nonpayable",
      "type": "function"
    },
    {
      "inputs": [
        {
          "internalType": "address",
          "name": "spender",
          "type": "address"
        },
        {
          "internalType": "uint256",
          "name": "addedValue",
          "type": "uint256"
        }
      ],
      "name": "increaseAllowance",
      "outputs": [
        {
          "internalType": "bool",
          "name": "",
          "type": "bool"
        }
      ],
      "stateMutability": "nonpayable",
      "type": "function"
    },
    {
      "inputs": [
        {
          "internalType": "address",
          "name": "",
          "type": "address"
        }
      ],
      "name": "lastBoughtTimestamp",
      "outputs": [
        {
          "internalType": "uint256",
          "name": "",
          "type": "uint256"
        }
      ],
      "stateMutability": "view",
      "type": "function"
    },
    {
      "inputs": [],
      "name": "lockupPeriod",
      "outputs": [
        {
          "internalType": "uint256",
          "name": "",
          "type": "uint256"
        }
      ],
      "stateMutability": "view",
      "type": "function"
    },
    {
      "inputs": [],
      "name": "name",
      "outputs": [
        {
          "internalType": "string",
          "name": "",
          "type": "string"
        }
      ],
      "stateMutability": "view",
      "type": "function"
    },
    {
      "inputs": [
        {
          "internalType": "address",
          "name": "",
          "type": "address"
        }
      ],
      "name": "profitOf",
      "outputs": [
        {
          "internalType": "uint256",
          "name": "_totalProfit",
          "type": "uint256"
        }
      ],
      "stateMutability": "view",
      "type": "function"
    },
    {
      "inputs": [
        {
          "internalType": "bool",
          "name": "value",
          "type": "bool"
        }
      ],
      "name": "revertTransfersInLockUpPeriod",
      "outputs": [],
      "stateMutability": "nonpayable",
      "type": "function"
    },
    {
      "inputs": [
        {
          "internalType": "uint256",
          "name": "_amount",
          "type": "uint256"
        }
      ],
      "name": "sell",
      "outputs": [],
      "stateMutability": "nonpayable",
      "type": "function"
    },
    {
      "inputs": [
        {
          "internalType": "uint256",
          "name": "_amount",
          "type": "uint256"
        }
      ],
      "name": "sendProfit",
      "outputs": [],
      "stateMutability": "nonpayable",
      "type": "function"
    },
    {
      "inputs": [],
      "name": "symbol",
      "outputs": [
        {
          "internalType": "string",
          "name": "",
          "type": "string"
        }
      ],
      "stateMutability": "view",
      "type": "function"
    },
    {
      "inputs": [],
      "name": "token",
      "outputs": [
        {
          "internalType": "contract IERC20",
          "name": "",
          "type": "address"
        }
      ],
      "stateMutability": "view",
      "type": "function"
    },
    {
      "inputs": [],
      "name": "totalProfit",
      "outputs": [
        {
          "internalType": "uint256",
          "name": "",
          "type": "uint256"
        }
      ],
      "stateMutability": "view",
      "type": "function"
    },
    {
      "inputs": [],
      "name": "totalSupply",
      "outputs": [
        {
          "internalType": "uint256",
          "name": "",
          "type": "uint256"
        }
      ],
      "stateMutability": "view",
      "type": "function"
    },
    {
      "inputs": [
        {
          "internalType": "address",
          "name": "recipient",
          "type": "address"
        },
        {
          "internalType": "uint256",
          "name": "amount",
          "type": "uint256"
        }
      ],
      "name": "transfer",
      "outputs": [
        {
          "internalType": "bool",
          "name": "",
          "type": "bool"
        }
      ],
      "stateMutability": "nonpayable",
      "type": "function"
    },
    {
      "inputs": [
        {
          "internalType": "address",
          "name": "sender",
          "type": "address"
        },
        {
          "internalType": "address",
          "name": "recipient",
          "type": "address"
        },
        {
          "internalType": "uint256",
          "name": "amount",
          "type": "uint256"
        }
      ],
      "name": "transferFrom",
      "outputs": [
        {
          "internalType": "bool",
          "name": "",
          "type": "bool"
        }
      ],
      "stateMutability": "nonpayable",
      "type": "function"
    }
  ],
  "bytecode": "0x60a060405269bc0a9392c65c3b000000600855620151806009553480156200002657600080fd5b506040516200167738038062001677833981810160405260408110156200004c57600080fd5b508051602091820151604080518082018252601681527f48656769632057425443205374616b696e67204c6f740000000000000000000081860190815282518084019093526006835265686c5742544360d01b958301959095528051939492939092620000bd916003919062000142565b508051620000d390600490602084019062000142565b50506005805460ff19166012179055506001600160601b0319606083901b16608052600780546001600160a01b0383166001600160a01b03199091161790556000600681905562000124906200012c565b5050620001de565b6005805460ff191660ff92909216919091179055565b828054600181600116156101000203166002900490600052602060002090601f016020900481019282601f106200018557805160ff1916838001178555620001b5565b82800160010185558215620001b5579182015b82811115620001b557825182559160200191906001019062000198565b50620001c3929150620001c7565b5090565b5b80821115620001c35760008155600101620001c8565b60805160601c611471620002066000398061069552806106d1528061100852506114716000f3fe608060405234801561001057600080fd5b50600436106101735760003560e01c80635fc0d2dd116100de578063a9059cbb11610097578063e4849b3211610071578063e4849b321461048c578063ee947a7c146104a9578063f011a7af146104b1578063fc0c546a146104b957610173565b8063a9059cbb14610415578063d96a094a14610441578063dd62ed3e1461045e57610173565b80635fc0d2dd1461037057806370a082311461038d57806386001519146103b357806395d89b41146103bb578063a457c2d7146103c3578063a6737291146103ef57610173565b806332cb6b0c1161013057806332cb6b0c146102c457806339509351146102cc5780633f40406c146102f85780634dede3de1461031e5780634ed37f021461034257806354198ce91461034a57610173565b806306fdde0314610178578063095ea7b3146101f557806318160ddd1461023557806323b872dd1461024f5780632ba5917514610285578063313ce567146102a6575b600080fd5b6101806104c1565b6040805160208082528351818301528351919283929083019185019080838360005b838110156101ba5781810151838201526020016101a2565b50505050905090810190601f1680156101e75780820380516001836020036101000a031916815260200191505b509250505060405180910390f35b6102216004803603604081101561020b57600080fd5b506001600160a01b038135169060200135610557565b604080519115158252519081900360200190f35b61023d610575565b60408051918252519081900360200190f35b6102216004803603606081101561026557600080fd5b506001600160a01b0381358116916020810135909116906040013561057b565b6102a46004803603602081101561029b57600080fd5b50351515610602565b005b6102ae610622565b6040805160ff9092168252519081900360200190f35b61023d61062b565b610221600480360360408110156102e257600080fd5b506001600160a01b038135169060200135610630565b6102216004803603602081101561030e57600080fd5b50356001600160a01b031661067e565b610326610693565b604080516001600160a01b039092168252519081900360200190f35b61023d6106b7565b61023d6004803603602081101561036057600080fd5b50356001600160a01b03166106bd565b6102a46004803603602081101561038657600080fd5b50356106c4565b61023d600480360360208110156103a357600080fd5b50356001600160a01b031661070c565b61023d610727565b61018061072d565b610221600480360360408110156103d957600080fd5b506001600160a01b03813516906020013561078e565b61023d6004803603602081101561040557600080fd5b50356001600160a01b03166107f6565b6102216004803603604081101561042b57600080fd5b506001600160a01b038135169060200135610808565b6102a46004803603602081101561045757600080fd5b503561081c565b61023d6004803603604081101561047457600080fd5b506001600160a01b03813581169160200135166108ac565b6102a4600480360360208110156104a257600080fd5b50356108d7565b61023d61090d565b61023d610913565b6103266109ad565b60038054604080516020601f600260001961010060018816150201909516949094049384018190048102820181019092528281526060939092909183018282801561054d5780601f106105225761010080835404028352916020019161054d565b820191906000526020600020905b81548152906001019060200180831161053057829003601f168201915b5050505050905090565b600061056b6105646109bc565b84846109c0565b5060015b92915050565b60025490565b6000610588848484610aac565b6105f8846105946109bc565b6105f38560405180606001604052806028815260200161135b602891396001600160a01b038a166000908152600160205260408120906105d26109bc565b6001600160a01b031681526020810191909152604001600020549190610c07565b6109c0565b5060019392505050565b336000908152600b60205260409020805460ff1916911515919091179055565b60055460ff1690565b600a81565b600061056b61063d6109bc565b846105f3856001600061064e6109bc565b6001600160a01b03908116825260208083019390935260409182016000908120918c168152925290205490610c9e565b600b6020526000908152604090205460ff1681565b7f000000000000000000000000000000000000000000000000000000000000000081565b60085481565b5060065490565b6106f96001600160a01b037f000000000000000000000000000000000000000000000000000000000000000016333084610cff565b6006546107069082610c9e565b60065550565b6001600160a01b031660009081526020819052604090205490565b60065481565b60048054604080516020601f600260001961010060018816150201909516949094049384018190048102820181019092528281526060939092909183018282801561054d5780601f106105225761010080835404028352916020019161054d565b600061056b61079b6109bc565b846105f38560405180606001604052806025815260200161141760259139600160006107c56109bc565b6001600160a01b03908116825260208083019390935260409182016000908120918d16815292529020549190610c07565b600a6020526000908152604090205481565b600061056b6108156109bc565b8484610aac565b336000908152600a6020526040902042905580610871576040805162461bcd60e51b815260206004820152600e60248201526d416d6f756e74206973207a65726f60901b604482015290519081900360640190fd5b61087b3382610d5f565b6108a9333061089560085485610e4f90919063ffffffff16565b6007546001600160a01b0316929190610cff565b50565b6001600160a01b03918216600090815260016020908152604080832093909416825291909152205490565b6108e13382610ea8565b6108a9336108fa60085484610e4f90919063ffffffff16565b6007546001600160a01b03169190610fa4565b60095481565b60065480610956576040805162461bcd60e51b815260206004820152600b60248201526a16995c9bc81c1c9bd99a5d60aa1b604482015290519081900360640190fd5b604080513381526020810183905281517f47cee97cb7acd717b3c0aa1435d004cd5b3c8c57d70dbceb4e4458bbd60e39d4929181900390910190a161099a81610ffb565b6006546109a7908261102f565b60065590565b6007546001600160a01b031681565b3390565b6001600160a01b038316610a055760405162461bcd60e51b81526004018080602001828103825260248152602001806113c96024913960400191505060405180910390fd5b6001600160a01b038216610a4a5760405162461bcd60e51b81526004018080602001828103825260228152602001806112f26022913960400191505060405180910390fd5b6001600160a01b03808416600081815260016020908152604080832094871680845294825291829020859055815185815291517f8c5be1e5ebec7d5bd14f71427d1e84f3dd0314c0f7b2291e5b200ac8c7c3b9259281900390910190a3505050565b6001600160a01b038316610af15760405162461bcd60e51b81526004018080602001828103825260258152602001806113a46025913960400191505060405180910390fd5b6001600160a01b038216610b365760405162461bcd60e51b81526004018080602001828103825260238152602001806112ad6023913960400191505060405180910390fd5b610b41838383610ff6565b610b7e81604051806060016040528060268152602001611314602691396001600160a01b0386166000908152602081905260409020549190610c07565b6001600160a01b038085166000908152602081905260408082209390935590841681522054610bad9082610c9e565b6001600160a01b038084166000818152602081815260409182902094909455805185815290519193928716927fddf252ad1be2c89b69c2b068fc378daa952ba7f163c4a11628f55a4df523b3ef92918290030190a3505050565b60008184841115610c965760405162461bcd60e51b81526004018080602001828103825283818151815260200191508051906020019080838360005b83811015610c5b578181015183820152602001610c43565b50505050905090810190601f168015610c885780820380516001836020036101000a031916815260200191505b509250505060405180910390fd5b505050900390565b600082820183811015610cf8576040805162461bcd60e51b815260206004820152601b60248201527f536166654d6174683a206164646974696f6e206f766572666c6f770000000000604482015290519081900360640190fd5b9392505050565b604080516001600160a01b0380861660248301528416604482015260648082018490528251808303909101815260849091019091526020810180516001600160e01b03166323b872dd60e01b179052610d59908590611071565b50505050565b6001600160a01b038216610dba576040805162461bcd60e51b815260206004820152601f60248201527f45524332303a206d696e7420746f20746865207a65726f206164647265737300604482015290519081900360640190fd5b610dc660008383610ff6565b600254610dd39082610c9e565b6002556001600160a01b038216600090815260208190526040902054610df99082610c9e565b6001600160a01b0383166000818152602081815260408083209490945583518581529351929391927fddf252ad1be2c89b69c2b068fc378daa952ba7f163c4a11628f55a4df523b3ef9281900390910190a35050565b600082610e5e5750600061056f565b82820282848281610e6b57fe5b0414610cf85760405162461bcd60e51b815260040180806020018281038252602181526020018061133a6021913960400191505060405180910390fd5b6001600160a01b038216610eed5760405162461bcd60e51b81526004018080602001828103825260218152602001806113836021913960400191505060405180910390fd5b610ef982600083610ff6565b610f36816040518060600160405280602281526020016112d0602291396001600160a01b0385166000908152602081905260409020549190610c07565b6001600160a01b038316600090815260208190526040902055600254610f5c908261102f565b6002556040805182815290516000916001600160a01b038516917fddf252ad1be2c89b69c2b068fc378daa952ba7f163c4a11628f55a4df523b3ef9181900360200190a35050565b604080516001600160a01b038416602482015260448082018490528251808303909101815260649091019091526020810180516001600160e01b031663a9059cbb60e01b179052610ff6908490611071565b505050565b6108a96001600160a01b037f0000000000000000000000000000000000000000000000000000000000000000163383610fa4565b6000610cf883836040518060400160405280601e81526020017f536166654d6174683a207375627472616374696f6e206f766572666c6f770000815250610c07565b60606110c6826040518060400160405280602081526020017f5361666545524332303a206c6f772d6c6576656c2063616c6c206661696c6564815250856001600160a01b03166111229092919063ffffffff16565b805190915015610ff6578080602001905160208110156110e557600080fd5b5051610ff65760405162461bcd60e51b815260040180806020018281038252602a8152602001806113ed602a913960400191505060405180910390fd5b60606111318484600085611139565b949350505050565b6060611144856112a6565b611195576040805162461bcd60e51b815260206004820152601d60248201527f416464726573733a2063616c6c20746f206e6f6e2d636f6e7472616374000000604482015290519081900360640190fd5b60006060866001600160a01b031685876040518082805190602001908083835b602083106111d45780518252601f1990920191602091820191016111b5565b6001836020036101000a03801982511681845116808217855250505050505090500191505060006040518083038185875af1925050503d8060008114611236576040519150601f19603f3d011682016040523d82523d6000602084013e61123b565b606091505b5091509150811561124f5791506111319050565b80511561125f5780518082602001fd5b60405162461bcd60e51b8152602060048201818152865160248401528651879391928392604401919085019080838360008315610c5b578181015183820152602001610c43565b3b15159056fe45524332303a207472616e7366657220746f20746865207a65726f206164647265737345524332303a206275726e20616d6f756e7420657863656564732062616c616e636545524332303a20617070726f766520746f20746865207a65726f206164647265737345524332303a207472616e7366657220616d6f756e7420657863656564732062616c616e6365536166654d6174683a206d756c7469706c69636174696f6e206f766572666c6f7745524332303a207472616e7366657220616d6f756e74206578636565647320616c6c6f77616e636545524332303a206275726e2066726f6d20746865207a65726f206164647265737345524332303a207472616e736665722066726f6d20746865207a65726f206164647265737345524332303a20617070726f76652066726f6d20746865207a65726f20616464726573735361666545524332303a204552433230206f7065726174696f6e20646964206e6f74207375636365656445524332303a2064656372656173656420616c6c6f77616e63652062656c6f77207a65726fa2646970667358221220bcef964ff2dfb143274b46890daa2c39f983da2877f32a828e6cf1566aafd76464736f6c634300060c0033",
  "linkReferences": {},
  "deployedLinkReferences": {}
}