{
  "_format": "hh-sol-artifact-1",
  "contractName": "HegicStakingPool",
  "sourceName": "contracts/HegicStakingPool.sol",
  "abi": [
    {
      "inputs": [
        {
          "internalType": "contract IERC20",
          "name": "_HEGIC",
          "type": "address"
        },
        {
          "internalType": "contract IERC20",
          "name": "_WBTC",
          "type": "address"
        },
        {
          "internalType": "contract IHegicStaking",
          "name": "_stakingWBTC",
          "type": "address"
        },
        {
          "internalType": "contract IHegicStaking",
          "name": "_stakingETH",
          "type": "address"
        }
      ],
      "stateMutability": "nonpayable",
      "type": "constructor"
    },
    {
      "anonymous": false,
      "inputs": [
        {
          "indexed": true,
          "internalType": "address",
          "name": "owner",
          "type": "address"
        },
        {
          "indexed": true,
          "internalType": "address",
          "name": "spender",
          "type": "address"
        },
        {
          "indexed": false,
          "internalType": "uint256",
          "name": "value",
          "type": "uint256"
        }
      ],
      "name": "Approval",
      "type": "event"
    },
    {
      "anonymous": false,
      "inputs": [
        {
          "indexed": false,
          "internalType": "uint256",
          "name": "id",
          "type": "uint256"
        },
        {
          "indexed": false,
          "internalType": "enum HegicStakingPool.Asset",
          "name": "asset",
          "type": "uint8"
        },
        {
          "indexed": false,
          "internalType": "address",
          "name": "account",
          "type": "address"
        }
      ],
      "name": "BuyLot",
      "type": "event"
    },
    {
      "anonymous": false,
      "inputs": [
        {
          "indexed": false,
          "internalType": "address",
          "name": "account",
          "type": "address"
        },
        {
          "indexed": false,
          "internalType": "enum HegicStakingPool.Asset",
          "name": "asset",
          "type": "uint8"
        },
        {
          "indexed": false,
          "internalType": "uint256",
          "name": "netProfit",
          "type": "uint256"
        },
        {
          "indexed": false,
          "internalType": "uint256",
          "name": "fee",
          "type": "uint256"
        }
      ],
      "name": "ClaimedProfit",
      "type": "event"
    },
    {
      "anonymous": false,
      "inputs": [
        {
          "indexed": false,
          "internalType": "address",
          "name": "account",
          "type": "address"
        },
        {
          "indexed": false,
          "internalType": "uint256",
          "name": "amount",
          "type": "uint256"
        }
      ],
      "name": "Deposit",
      "type": "event"
    },
    {
      "anonymous": false,
      "inputs": [
        {
          "indexed": true,
          "internalType": "address",
          "name": "previousOwner",
          "type": "address"
        },
        {
          "indexed": true,
          "internalType": "address",
          "name": "newOwner",
          "type": "address"
        }
      ],
      "name": "OwnershipTransferred",
      "type": "event"
    },
    {
      "anonymous": false,
      "inputs": [
        {
          "indexed": false,
          "internalType": "uint256",
          "name": "id",
          "type": "uint256"
        },
        {
          "indexed": false,
          "internalType": "enum HegicStakingPool.Asset",
          "name": "asset",
          "type": "uint8"
        },
        {
          "indexed": false,
          "internalType": "address",
          "name": "account",
          "type": "address"
        }
      ],
      "name": "SellLot",
      "type": "event"
    },
    {
      "anonymous": false,
      "inputs": [
        {
          "indexed": true,
          "internalType": "address",
          "name": "from",
          "type": "address"
        },
        {
          "indexed": true,
          "internalType": "address",
          "name": "to",
          "type": "address"
        },
        {
          "indexed": false,
          "internalType": "uint256",
          "name": "value",
          "type": "uint256"
        }
      ],
      "name": "Transfer",
      "type": "event"
    },
    {
      "anonymous": false,
      "inputs": [
        {
          "indexed": false,
          "internalType": "address",
          "name": "account",
          "type": "address"
        },
        {
          "indexed": false,
          "internalType": "uint256",
          "name": "amount",
          "type": "uint256"
        }
      ],
      "name": "Withdraw",
      "type": "event"
    },
    {
      "inputs": [],
      "name": "ACCURACY",
      "outputs": [
        {
          "internalType": "uint256",
          "name": "",
          "type": "uint256"
        }
      ],
      "stateMutability": "view",
      "type": "function"
    },
    {
      "inputs": [],
      "name": "FALLBACK_RECIPIENT",
      "outputs": [
        {
          "internalType": "address payable",
          "name": "",
          "type": "address"
        }
      ],
      "stateMutability": "view",
      "type": "function"
    },
    {
      "inputs": [],
      "name": "FEE_RECIPIENT",
      "outputs": [
        {
          "internalType": "address payable",
          "name": "",
          "type": "address"
        }
      ],
      "stateMutability": "view",
      "type": "function"
    },
    {
      "inputs": [],
      "name": "HEGIC",
      "outputs": [
        {
          "internalType": "contract IERC20",
          "name": "",
          "type": "address"
        }
      ],
      "stateMutability": "view",
      "type": "function"
    },
    {
      "inputs": [],
      "name": "STAKING_LOT_PRICE",
      "outputs": [
        {
          "internalType": "uint256",
          "name": "",
          "type": "uint256"
        }
      ],
      "stateMutability": "view",
      "type": "function"
    },
    {
      "inputs": [],
      "name": "WBTC",
      "outputs": [
        {
          "internalType": "contract IERC20",
          "name": "",
          "type": "address"
        }
      ],
      "stateMutability": "view",
      "type": "function"
    },
    {
      "inputs": [
        {
          "internalType": "bool",
          "name": "_allow",
          "type": "bool"
        }
      ],
      "name": "allowDeposits",
      "outputs": [],
      "stateMutability": "nonpayable",
      "type": "function"
    },
    {
      "inputs": [
        {
          "internalType": "address",
          "name": "owner",
          "type": "address"
        },
        {
          "internalType": "address",
          "name": "spender",
          "type": "address"
        }
      ],
      "name": "allowance",
      "outputs": [
        {
          "internalType": "uint256",
          "name": "",
          "type": "uint256"
        }
      ],
      "stateMutability": "view",
      "type": "function"
    },
    {
      "inputs": [
        {
          "internalType": "address",
          "name": "spender",
          "type": "address"
        },
        {
          "internalType": "uint256",
          "name": "amount",
          "type": "uint256"
        }
      ],
      "name": "approve",
      "outputs": [
        {
          "internalType": "bool",
          "name": "",
          "type": "bool"
        }
      ],
      "stateMutability": "nonpayable",
      "type": "function"
    },
    {
      "inputs": [
        {
          "internalType": "address",
          "name": "account",
          "type": "address"
        }
      ],
      "name": "balanceOf",
      "outputs": [
        {
          "internalType": "uint256",
          "name": "",
          "type": "uint256"
        }
      ],
      "stateMutability": "view",
      "type": "function"
    },
    {
      "inputs": [
        {
          "internalType": "address",
          "name": "_recipient",
          "type": "address"
        }
      ],
      "name": "changeFallbackRecipient",
      "outputs": [],
      "stateMutability": "nonpayable",
      "type": "function"
    },
    {
      "inputs": [
        {
          "internalType": "address",
          "name": "_recipient",
          "type": "address"
        }
      ],
      "name": "changeFeeRecipient",
      "outputs": [],
      "stateMutability": "nonpayable",
      "type": "function"
    },
    {
      "inputs": [
        {
          "internalType": "uint256",
          "name": "_fee",
          "type": "uint256"
        }
      ],
      "name": "changePerformanceFee",
      "outputs": [],
      "stateMutability": "nonpayable",
      "type": "function"
    },
    {
      "inputs": [],
      "name": "claimAllProfit",
      "outputs": [],
      "stateMutability": "nonpayable",
      "type": "function"
    },
    {
      "inputs": [
        {
          "internalType": "enum HegicStakingPool.Asset",
          "name": "_asset",
          "type": "uint8"
        }
      ],
      "name": "claimProfit",
      "outputs": [],
      "stateMutability": "nonpayable",
      "type": "function"
    },
    {
      "inputs": [],
      "name": "decimals",
      "outputs": [
        {
          "internalType": "uint8",
          "name": "",
          "type": "uint8"
        }
      ],
      "stateMutability": "view",
      "type": "function"
    },
    {
      "inputs": [
        {
          "internalType": "address",
          "name": "spender",
          "type": "address"
        },
        {
          "internalType": "uint256",
          "name": "subtractedValue",
          "type": "uint256"
        }
      ],
      "name": "decreaseAllowance",
      "outputs": [
        {
          "internalType": "bool",
          "name": "",
          "type": "bool"
        }
      ],
      "stateMutability": "nonpayable",
      "type": "function"
    },
    {
      "inputs": [
        {
          "internalType": "uint256",
          "name": "_amount",
          "type": "uint256"
        }
      ],
      "name": "deposit",
      "outputs": [],
      "stateMutability": "nonpayable",
      "type": "function"
    },
    {
      "inputs": [],
      "name": "depositsAllowed",
      "outputs": [
        {
          "internalType": "bool",
          "name": "",
          "type": "bool"
        }
      ],
      "stateMutability": "view",
      "type": "function"
    },
    {
      "inputs": [
        {
          "internalType": "bool",
          "name": "_unlock",
          "type": "bool"
        }
      ],
      "name": "emergencyUnlock",
      "outputs": [],
      "stateMutability": "nonpayable",
      "type": "function"
    },
    {
      "inputs": [
        {
          "internalType": "enum HegicStakingPool.Asset",
          "name": "_asset",
          "type": "uint8"
        }
      ],
      "name": "getUnreceivedProfitPerToken",
      "outputs": [
        {
          "internalType": "uint256",
          "name": "unreceivedProfitPerToken",
          "type": "uint256"
        }
      ],
      "stateMutability": "view",
      "type": "function"
    },
    {
      "inputs": [
        {
          "internalType": "address",
          "name": "_account",
          "type": "address"
        },
        {
          "internalType": "enum HegicStakingPool.Asset",
          "name": "_asset",
          "type": "uint8"
        }
      ],
      "name": "getUnsaved",
      "outputs": [
        {
          "internalType": "uint256",
          "name": "profit",
          "type": "uint256"
        }
      ],
      "stateMutability": "view",
      "type": "function"
    },
    {
      "inputs": [
        {
          "internalType": "address",
          "name": "spender",
          "type": "address"
        },
        {
          "internalType": "uint256",
          "name": "addedValue",
          "type": "uint256"
        }
      ],
      "name": "increaseAllowance",
      "outputs": [
        {
          "internalType": "bool",
          "name": "",
          "type": "bool"
        }
      ],
      "stateMutability": "nonpayable",
      "type": "function"
    },
    {
      "inputs": [],
      "name": "isInEmergencyUnlock",
      "outputs": [
        {
          "internalType": "bool",
          "name": "",
          "type": "bool"
        }
      ],
      "stateMutability": "view",
      "type": "function"
    },
    {
      "inputs": [],
      "name": "lockedBalance",
      "outputs": [
        {
          "internalType": "uint256",
          "name": "",
          "type": "uint256"
        }
      ],
      "stateMutability": "view",
      "type": "function"
    },
    {
      "inputs": [],
      "name": "name",
      "outputs": [
        {
          "internalType": "string",
          "name": "",
          "type": "string"
        }
      ],
      "stateMutability": "view",
      "type": "function"
    },
    {
      "inputs": [
        {
          "internalType": "enum HegicStakingPool.Asset",
          "name": "",
          "type": "uint8"
        }
      ],
      "name": "numberOfStakingLots",
      "outputs": [
        {
          "internalType": "uint256",
          "name": "",
          "type": "uint256"
        }
      ],
      "stateMutability": "view",
      "type": "function"
    },
    {
      "inputs": [],
      "name": "owner",
      "outputs": [
        {
          "internalType": "address",
          "name": "",
          "type": "address"
        }
      ],
      "stateMutability": "view",
      "type": "function"
    },
    {
      "inputs": [
        {
          "internalType": "address",
          "name": "",
          "type": "address"
        }
      ],
      "name": "ownerPerformanceFee",
      "outputs": [
        {
          "internalType": "uint256",
          "name": "",
          "type": "uint256"
        }
      ],
      "stateMutability": "view",
      "type": "function"
    },
    {
      "inputs": [],
      "name": "performanceFee",
      "outputs": [
        {
          "internalType": "uint256",
          "name": "",
          "type": "uint256"
        }
      ],
      "stateMutability": "view",
      "type": "function"
    },
    {
      "inputs": [
        {
          "internalType": "address",
          "name": "_account",
          "type": "address"
        },
        {
          "internalType": "enum HegicStakingPool.Asset",
          "name": "_asset",
          "type": "uint8"
        }
      ],
      "name": "profitOf",
      "outputs": [
        {
          "internalType": "uint256",
          "name": "profit",
          "type": "uint256"
        }
      ],
      "stateMutability": "view",
      "type": "function"
    },
    {
      "inputs": [],
      "name": "renounceOwnership",
      "outputs": [],
      "stateMutability": "nonpayable",
      "type": "function"
    },
    {
      "inputs": [
        {
          "internalType": "enum HegicStakingPool.Asset",
          "name": "",
          "type": "uint8"
        }
      ],
      "name": "staking",
      "outputs": [
        {
          "internalType": "contract IHegicStaking",
          "name": "",
          "type": "address"
        }
      ],
      "stateMutability": "view",
      "type": "function"
    },
    {
      "inputs": [],
      "name": "stakingETH",
      "outputs": [
        {
          "internalType": "contract IHegicStaking",
          "name": "",
          "type": "address"
        }
      ],
      "stateMutability": "view",
      "type": "function"
    },
    {
      "inputs": [],
      "name": "stakingWBTC",
      "outputs": [
        {
          "internalType": "contract IHegicStaking",
          "name": "",
          "type": "address"
        }
      ],
      "stateMutability": "view",
      "type": "function"
    },
    {
      "inputs": [],
      "name": "symbol",
      "outputs": [
        {
          "internalType": "string",
          "name": "",
          "type": "string"
        }
      ],
      "stateMutability": "view",
      "type": "function"
    },
    {
      "inputs": [],
      "name": "totalBalance",
      "outputs": [
        {
          "internalType": "uint256",
          "name": "",
          "type": "uint256"
        }
      ],
      "stateMutability": "view",
      "type": "function"
    },
    {
      "inputs": [],
      "name": "totalNumberOfStakingLots",
      "outputs": [
        {
          "internalType": "uint256",
          "name": "",
          "type": "uint256"
        }
      ],
      "stateMutability": "view",
      "type": "function"
    },
    {
      "inputs": [
        {
          "internalType": "enum HegicStakingPool.Asset",
          "name": "",
          "type": "uint8"
        }
      ],
      "name": "totalProfitPerToken",
      "outputs": [
        {
          "internalType": "uint256",
          "name": "",
          "type": "uint256"
        }
      ],
      "stateMutability": "view",
      "type": "function"
    },
    {
      "inputs": [],
      "name": "totalSupply",
      "outputs": [
        {
          "internalType": "uint256",
          "name": "",
          "type": "uint256"
        }
      ],
      "stateMutability": "view",
      "type": "function"
    },
    {
      "inputs": [
        {
          "internalType": "address",
          "name": "recipient",
          "type": "address"
        },
        {
          "internalType": "uint256",
          "name": "amount",
          "type": "uint256"
        }
      ],
      "name": "transfer",
      "outputs": [
        {
          "internalType": "bool",
          "name": "",
          "type": "bool"
        }
      ],
      "stateMutability": "nonpayable",
      "type": "function"
    },
    {
      "inputs": [
        {
          "internalType": "address",
          "name": "sender",
          "type": "address"
        },
        {
          "internalType": "address",
          "name": "recipient",
          "type": "address"
        },
        {
          "internalType": "uint256",
          "name": "amount",
          "type": "uint256"
        }
      ],
      "name": "transferFrom",
      "outputs": [
        {
          "internalType": "bool",
          "name": "",
          "type": "bool"
        }
      ],
      "stateMutability": "nonpayable",
      "type": "function"
    },
    {
      "inputs": [
        {
          "internalType": "address",
          "name": "newOwner",
          "type": "address"
        }
      ],
      "name": "transferOwnership",
      "outputs": [],
      "stateMutability": "nonpayable",
      "type": "function"
    },
    {
      "inputs": [
        {
          "internalType": "address",
          "name": "",
          "type": "address"
        }
      ],
      "name": "unlockTime",
      "outputs": [
        {
          "internalType": "uint256",
          "name": "",
          "type": "uint256"
        }
      ],
      "stateMutability": "view",
      "type": "function"
    },
    {
      "inputs": [
        {
          "internalType": "uint256",
          "name": "_amount",
          "type": "uint256"
        }
      ],
      "name": "withdraw",
      "outputs": [],
      "stateMutability": "nonpayable",
      "type": "function"
    },
    {
      "stateMutability": "payable",
      "type": "receive"
    }
  ],
  "bytecode": "0x60c060405269bc0a9392c65c3b0000006009556d04ee2d6d415b85acef8100000000600a55611388600d55600e805461ffff19166101001790553480156200004657600080fd5b506040516200320a3803806200320a833981810160405260808110156200006c57600080fd5b50805160208083015160408085015160609095015181518083018352600c81526b5374616b656420484547494360a01b818601528251808401909352600683526573484547494360d01b94830194909452939491939192906000620000d06200038e565b600080546001600160a01b0319166001600160a01b0383169081178255604051929350917f8be0079c531659141344cd1fd0a4f28419497f9722a3daafe3b4186f6b6457e0908290a35081516200012f90600490602085019062000392565b5080516200014590600590602084019062000392565b50506006805460ff19166012179055506001600160601b0319606085811b821660805284901b1660a05281600860008060018111156200018157fe5b815260200190815260200160002060006101000a8154816001600160a01b0302191690836001600160a01b031602179055508060086000600180811115620001c557fe5b6001811115620001d157fe5b81526020808201929092526040908101600090812080546001600160a01b039586166001600160a01b031991821617909155600c8054821633908117909155600b8054909216179055808052600883527f5eff886ea0ce6ca488a3d6e336d6c0f75f46d19b42c06ce5ee98e42c96d256c754825163095ea7b360e01b815290851660048201526d2bc822bff2746599448e00000000602482015291519388169363095ea7b3936044808501949193918390030190829087803b1580156200029757600080fd5b505af1158015620002ac573d6000803e3d6000fd5b505050506040513d6020811015620002c357600080fd5b505060016000908152600860209081527fad67d757c34507f157cacfa2e3153e9f260a2244f30428821be7be64587ac55f546040805163095ea7b360e01b81526001600160a01b0392831660048201526d2bc822bff2746599448e00000000602482015290519188169363095ea7b39360448084019491939192918390030190829087803b1580156200035557600080fd5b505af11580156200036a573d6000803e3d6000fd5b505050506040513d60208110156200038157600080fd5b506200042e945050505050565b3390565b828054600181600116156101000203166002900490600052602060002090601f016020900481019282601f10620003d557805160ff191683800117855562000405565b8280016001018555821562000405579182015b8281111562000405578251825591602001919060010190620003e8565b506200041392915062000417565b5090565b5b8082111562000413576000815560010162000418565b60805160601c60a05160601c612d996200047160003980610e3c52806122495280612281528061281a525080610f695280611d445280611e905250612d996000f3fe6080604052600436106102765760003560e01c806376b467b71161014f578063bc41ab72116100c1578063f02a7d191161007a578063f02a7d19146108d7578063f2fde38b1461090a578063f6156d5a1461093d578063fbcd9b0514610967578063fbf683c11461097c578063ff4dfa96146109915761027d565b8063bc41ab72146107dc578063bdd79f0714610809578063dd62ed3e14610845578063e0ca7dbe14610880578063e32d03bf14610895578063ebd09054146108c25761027d565b80638f76137f116101135780638f76137f1461070157806395d89b4114610716578063a457c2d71461072b578063a9059cbb14610764578063ad7a672f1461079d578063b6b55f25146107b25761027d565b806376b467b7146106625780637b80889b1461069557806385335da8146106aa57806387788782146106d75780638da5cb5b146106ec5761027d565b8063313ce567116101e857806361172215116101ac57806361172215146105905780636132ac36146105a55780636cc94a69146105d857806370a0823114610605578063715018a61461063857806371e395a81461064d5761027d565b8063313ce567146104d657806339509351146105015780634a41b17b1461053a5780634dede3de146105665780635c029ac81461057b5761027d565b8063236040711161023a57806323604071146103df57806323b872dd146104125780632c2e33c3146104555780632d3008dd146104825780632e1a7d4d146104975780632f7e175a146104c15761027d565b80630100670b1461028257806306fdde03146102b0578063095ea7b31461033a57806318160ddd146103875780631b016373146103ae5761027d565b3661027d57005b600080fd5b34801561028e57600080fd5b506102ae600480360360208110156102a557600080fd5b503515156109cd565b005b3480156102bc57600080fd5b506102c5610a3f565b6040805160208082528351818301528351919283929083019185019080838360005b838110156102ff5781810151838201526020016102e7565b50505050905090810190601f16801561032c5780820380516001836020036101000a031916815260200191505b509250505060405180910390f35b34801561034657600080fd5b506103736004803603604081101561035d57600080fd5b506001600160a01b038135169060200135610ad5565b604080519115158252519081900360200190f35b34801561039357600080fd5b5061039c610af3565b60408051918252519081900360200190f35b3480156103ba57600080fd5b506103c3610af9565b604080516001600160a01b039092168252519081900360200190f35b3480156103eb57600080fd5b506102ae6004803603602081101561040257600080fd5b50356001600160a01b0316610b08565b34801561041e57600080fd5b506103736004803603606081101561043557600080fd5b506001600160a01b03813581169160208101359091169060400135610b82565b34801561046157600080fd5b5061039c6004803603602081101561047857600080fd5b503560ff16610c09565b34801561048e57600080fd5b5061039c610c1b565b3480156104a357600080fd5b506102ae600480360360208110156104ba57600080fd5b5035610c21565b3480156104cd57600080fd5b506103c3610d64565b3480156104e257600080fd5b506104eb610d78565b6040805160ff9092168252519081900360200190f35b34801561050d57600080fd5b506103736004803603604081101561052457600080fd5b506001600160a01b038135169060200135610d81565b34801561054657600080fd5b506102ae6004803603602081101561055d57600080fd5b50351515610dcf565b34801561057257600080fd5b506103c3610e3a565b34801561058757600080fd5b506102ae610e5e565b34801561059c57600080fd5b50610373610e74565b3480156105b157600080fd5b5061039c600480360360208110156105c857600080fd5b50356001600160a01b0316610e7d565b3480156105e457600080fd5b506103c3600480360360208110156105fb57600080fd5b503560ff16610e8f565b34801561061157600080fd5b5061039c6004803603602081101561062857600080fd5b50356001600160a01b0316610eaa565b34801561064457600080fd5b506102ae610ec5565b34801561065957600080fd5b506103c3610f67565b34801561066e57600080fd5b5061039c6004803603602081101561068557600080fd5b50356001600160a01b0316610f8b565b3480156106a157600080fd5b5061039c610f9d565b3480156106b657600080fd5b5061039c600480360360208110156106cd57600080fd5b503560ff16610fa3565b3480156106e357600080fd5b5061039c611067565b3480156106f857600080fd5b506103c361106d565b34801561070d57600080fd5b5061037361107c565b34801561072257600080fd5b506102c561108a565b34801561073757600080fd5b506103736004803603604081101561074e57600080fd5b506001600160a01b0381351690602001356110eb565b34801561077057600080fd5b506103736004803603604081101561078757600080fd5b506001600160a01b038135169060200135611153565b3480156107a957600080fd5b5061039c611167565b3480156107be57600080fd5b506102ae600480360360208110156107d557600080fd5b503561116d565b3480156107e857600080fd5b5061039c600480360360208110156107ff57600080fd5b503560ff166112b7565b34801561081557600080fd5b5061039c6004803603604081101561082c57600080fd5b5080356001600160a01b0316906020013560ff166112c9565b34801561085157600080fd5b5061039c6004803603604081101561086857600080fd5b506001600160a01b0381358116916020013516611325565b34801561088c57600080fd5b506103c3611350565b3480156108a157600080fd5b506102ae600480360360208110156108b857600080fd5b503560ff1661135f565b3480156108ce57600080fd5b506103c36113dd565b3480156108e357600080fd5b506102ae600480360360208110156108fa57600080fd5b50356001600160a01b03166113ec565b34801561091657600080fd5b506102ae6004803603602081101561092d57600080fd5b50356001600160a01b0316611466565b34801561094957600080fd5b506102ae6004803603602081101561096057600080fd5b503561155e565b34801561097357600080fd5b5061039c611601565b34801561098857600080fd5b5061039c611607565b34801561099d57600080fd5b5061039c600480360360408110156109b457600080fd5b5080356001600160a01b0316906020013560ff1661160d565b6109d56116b3565b6000546001600160a01b03908116911614610a25576040805162461bcd60e51b81526020600482018190526024820152600080516020612c65833981519152604482015290519081900360640190fd5b600e80549115156101000261ff0019909216919091179055565b60048054604080516020601f6002600019610100600188161502019095169490940493840181900481028201810190925282815260609390929091830182828015610acb5780601f10610aa057610100808354040283529160200191610acb565b820191906000526020600020905b815481529060010190602001808311610aae57829003601f168201915b5050505050905090565b6000610ae9610ae26116b3565b84846116b7565b5060015b92915050565b60035490565b600b546001600160a01b031681565b610b106116b3565b6000546001600160a01b03908116911614610b60576040805162461bcd60e51b81526020600482018190526024820152600080516020612c65833981519152604482015290519081900360640190fd5b600c80546001600160a01b0319166001600160a01b0392909216919091179055565b6000610b8f8484846117a3565b610bff84610b9b6116b3565b610bfa85604051806060016040528060288152602001612c3d602891396001600160a01b038a16600090815260026020526040812090610bd96116b3565b6001600160a01b031681526020810191909152604001600020549190611900565b6116b7565b5060019392505050565b60126020526000908152604090205481565b60095481565b6009548110610c77576040805162461bcd60e51b815260206004820152601e60248201527f416d6f756e7420746f20776974686472617720697320746f6f20686967680000604482015290519081900360640190fd5b610c8033610eaa565b811115610cc9576040805162461bcd60e51b81526020600482015260126024820152714e6f7420656e6f7567682062616c616e636560701b604482015290519081900360640190fd5b3360009081526016602052604090205442101580610ce95750600e5460ff165b610d32576040805162461bcd60e51b8152602060048201526015602482015274165bdd5c88199d5b991cc8185c99481b1bd8dad959605a1b604482015290519081900360640190fd5b80610d4a601054600f5461199790919063ffffffff16565b1015610d5857610d586119d9565b610d6181611cf2565b50565b60065461010090046001600160a01b031681565b60065460ff1690565b6000610ae9610d8e6116b3565b84610bfa8560026000610d9f6116b3565b6001600160a01b03908116825260208083019390935260409182016000908120918c168152925290205490611d7e565b610dd76116b3565b6000546001600160a01b03908116911614610e27576040805162461bcd60e51b81526020600482018190526024820152600080516020612c65833981519152604482015290519081900360640190fd5b600e805460ff1916911515919091179055565b7f000000000000000000000000000000000000000000000000000000000000000081565b610e68600061135f565b610e72600161135f565b565b600e5460ff1681565b60156020526000908152604090205481565b6008602052600090815260409020546001600160a01b031681565b6001600160a01b031660009081526001602052604090205490565b610ecd6116b3565b6000546001600160a01b03908116911614610f1d576040805162461bcd60e51b81526020600482018190526024820152600080516020612c65833981519152604482015290519081900360640190fd5b600080546040516001600160a01b03909116907f8be0079c531659141344cd1fd0a4f28419497f9722a3daafe3b4186f6b6457e0908390a3600080546001600160a01b0319169055565b7f000000000000000000000000000000000000000000000000000000000000000081565b60166020526000908152604090205481565b60105481565b60008060086000846001811115610fb657fe5b6001811115610fc157fe5b815260208082019290925260409081016000205481516354198ce960e01b815230600482015291516001600160a01b03909116926354198ce99260248082019391829003018186803b15801561101657600080fd5b505afa15801561102a573d6000803e3d6000fd5b505050506040513d602081101561104057600080fd5b5051600f54600a549192506110609161105a908490611dd8565b90611e31565b9392505050565b600d5481565b6000546001600160a01b031690565b600e54610100900460ff1681565b60058054604080516020601f6002600019610100600188161502019095169490940493840181900481028201810190925282815260609390929091830182828015610acb5780601f10610aa057610100808354040283529160200191610acb565b6000610ae96110f86116b3565b84610bfa85604051806060016040528060258152602001612d1960259139600260006111226116b3565b6001600160a01b03908116825260208083019390935260409182016000908120918d16815292529020549190611900565b6000610ae96111606116b3565b84846117a3565b600f5481565b600081116111b3576040805162461bcd60e51b815260206004820152600e60248201526d416d6f756e7420746f6f206c6f7760901b604482015290519081900360640190fd5b60095481106111f35760405162461bcd60e51b8152600401808060200182810382526021815260200180612b246021913960400191505060405180910390fd5b600e54610100900460ff166112395760405162461bcd60e51b8152600401808060200182810382526026815260200180612d3e6026913960400191505060405180910390fd5b600d5433600090815260156020526040902054118061125e575061125c33610eaa565b155b1561127757600d54336000908152601560205260409020555b60115461128f57336000908152601560205260408120555b61129881611e73565b600954601054600f546112aa91611997565b10610d6157610d61611ec2565b60136020526000908152604090205481565b60006110606112d8848461160d565b6001600160a01b0385166000908152601860205260408120908560018111156112fd57fe5b600181111561130857fe5b815260200190815260200160002054611d7e90919063ffffffff16565b6001600160a01b03918216600090815260026020908152604080832093909416825291909152205490565b6007546001600160a01b031681565b600061136b3383612059565b336000908152601860205260408120919250908184600181111561138b57fe5b600181111561139657fe5b8152602001908152602001600020819055506113d981833360156000336001600160a01b03166001600160a01b0316815260200190815260200160002054612170565b5050565b600c546001600160a01b031681565b6113f46116b3565b6000546001600160a01b03908116911614611444576040805162461bcd60e51b81526020600482018190526024820152600080516020612c65833981519152604482015290519081900360640190fd5b600b80546001600160a01b0319166001600160a01b0392909216919091179055565b61146e6116b3565b6000546001600160a01b039081169116146114be576040805162461bcd60e51b81526020600482018190526024820152600080516020612c65833981519152604482015290519081900360640190fd5b6001600160a01b0381166115035760405162461bcd60e51b8152600401808060200182810382526026815260200180612b676026913960400191505060405180910390fd5b600080546040516001600160a01b03808516939216917f8be0079c531659141344cd1fd0a4f28419497f9722a3daafe3b4186f6b6457e091a3600080546001600160a01b0319166001600160a01b0392909216919091179055565b6115666116b3565b6000546001600160a01b039081169116146115b6576040805162461bcd60e51b81526020600482018190526024820152600080516020612c65833981519152604482015290519081900360640190fd5b611f408111156115fc576040805162461bcd60e51b815260206004820152600c60248201526b08ccaca40e8dede40d0d2ced60a31b604482015290519081900360640190fd5b600d55565b600a5481565b60115481565b6000611060600a5461105a61162186610eaa565b6116ad61162d87610fa3565b6001600160a01b03891660009081526017602052604081206116a7918a600181111561165557fe5b600181111561166057fe5b815260200190815260200160002054601360008b600181111561167f57fe5b600181111561168a57fe5b81526020019081526020016000205461199790919063ffffffff16565b90611d7e565b90611dd8565b3390565b6001600160a01b0383166116fc5760405162461bcd60e51b8152600401808060200182810382526024815260200180612ccb6024913960400191505060405180910390fd5b6001600160a01b0382166117415760405162461bcd60e51b8152600401808060200182810382526022815260200180612b8d6022913960400191505060405180910390fd5b6001600160a01b03808416600081815260026020908152604080832094871680845294825291829020859055815185815291517f8c5be1e5ebec7d5bd14f71427d1e84f3dd0314c0f7b2291e5b200ac8c7c3b9259281900390910190a3505050565b6001600160a01b0383166117e85760405162461bcd60e51b8152600401808060200182810382526025815260200180612ca66025913960400191505060405180910390fd5b6001600160a01b03821661182d5760405162461bcd60e51b8152600401808060200182810382526023815260200180612b016023913960400191505060405180910390fd5b611838838383612315565b61187581604051806060016040528060268152602001612baf602691396001600160a01b0386166000908152600160205260409020549190611900565b6001600160a01b0380851660009081526001602052604080822093909355908416815220546118a49082611d7e565b6001600160a01b0380841660008181526001602090815260409182902094909455805185815290519193928716927fddf252ad1be2c89b69c2b068fc378daa952ba7f163c4a11628f55a4df523b3ef92918290030190a3505050565b6000818484111561198f5760405162461bcd60e51b81526004018080602001828103825283818151815260200191508051906020019080838360005b8381101561195457818101518382015260200161193c565b50505050905090810190601f1680156119815780820380516001836020036101000a031916815260200191505b509250505060405180910390fd5b505050900390565b600061106083836040518060400160405280601e81526020017f536166654d6174683a207375627472616374696f6e206f766572666c6f770000815250611900565b60126020527f7e7fa33969761a458e04f477e039a608702b4f924981d6653935a8319a08ad7b54600160008190527f71a67924699a20698523213e55fe499d539379d7769cd5567e2c45d583f815a35490911115611a35575060005b42611b7c60086000846001811115611a4957fe5b6001811115611a5457fe5b815260200190815260200160002060009054906101000a90046001600160a01b03166001600160a01b031663ee947a7c6040518163ffffffff1660e01b815260040160206040518083038186803b158015611aae57600080fd5b505afa158015611ac2573d6000803e3d6000fd5b505050506040513d6020811015611ad857600080fd5b505160086000856001811115611aea57fe5b6001811115611af557fe5b8152602080820192909252604090810160002054815163a673729160e01b815230600482015291516001600160a01b039091169263a67372919260248082019391829003018186803b158015611b4a57600080fd5b505afa158015611b5e573d6000803e3d6000fd5b505050506040513d6020811015611b7457600080fd5b505190611d7e565b1115611bb95760405162461bcd60e51b8152600401808060200182810382526047815260200180612bd56047913960600191505060405180910390fd5b600954601054611bc891611997565b60105560086000826001811115611bdb57fe5b6001811115611be657fe5b81526020810191909152604090810160009081205482516372424d9960e11b81526001600482015292516001600160a01b039091169263e4849b3292602480830193919282900301818387803b158015611c3f57600080fd5b505af1158015611c53573d6000803e3d6000fd5b505050507f24cd5f994ad649e7a524dd5aced6dd8e80ca7541246c3cf335422bd80c565caa42823360405180848152602001836001811115611c9157fe5b8152602001826001600160a01b03168152602001935050505060405180910390a16011805460001901905560126000826001811115611ccc57fe5b6001811115611cd757fe5b81526020810191909152604001600020805460001901905550565b604080513381526020810183905281517f884edad9ce6fa2440d8a54cc123490eb96d2768479d49ff9c7366125a9424364929181900390910190a1611d37338261234e565b611d6b6001600160a01b037f000000000000000000000000000000000000000000000000000000000000000016338361244a565b600f54611d789082611997565b600f5550565b600082820183811015611060576040805162461bcd60e51b815260206004820152601b60248201527f536166654d6174683a206164646974696f6e206f766572666c6f770000000000604482015290519081900360640190fd5b600082611de757506000610aed565b82820282848281611df457fe5b04146110605760405162461bcd60e51b8152600401808060200182810382526021815260200180612c1c6021913960400191505060405180910390fd5b600061106083836040518060400160405280601a81526020017f536166654d6174683a206469766973696f6e206279207a65726f00000000000081525061249c565b600f54611e809082611d7e565b600f55611eb86001600160a01b037f000000000000000000000000000000000000000000000000000000000000000016333084612501565b610d61338261255b565b60126020527f7e7fa33969761a458e04f477e039a608702b4f924981d6653935a8319a08ad7b54600160008190527f71a67924699a20698523213e55fe499d539379d7769cd5567e2c45d583f815a35490911015611f1e575060005b600954601054611f2d91611d7e565b60105560086000826001811115611f4057fe5b6001811115611f4b57fe5b8152602081019190915260409081016000908120548251636cb504a560e11b81526001600482015292516001600160a01b039091169263d96a094a92602480830193919282900301818387803b158015611fa457600080fd5b505af1158015611fb8573d6000803e3d6000fd5b505050507fd1b43b4b3653b24940204c31867a89713bb84aabe4ee82be10570f0dd791ccb042823360405180848152602001836001811115611ff657fe5b8152602001826001600160a01b03168152602001935050505060405180910390a1601180546001908101909155601290600090839081111561203457fe5b600181111561203f57fe5b815260208101919091526040016000208054600101905550565b60006120648261264d565b6000612070848461160d565b90506013600084600181111561208257fe5b600181111561208d57fe5b81526020019081526020016000205460176000866001600160a01b03166001600160a01b0316815260200190815260200160002060008560018111156120cf57fe5b60018111156120da57fe5b8152602001908152602001600020819055506121238160186000876001600160a01b03166001600160a01b0316815260200190815260200160002060008660018111156112fd57fe5b6001600160a01b038516600090815260186020526040812091935083919085600181111561214d57fe5b600181111561215857fe5b81526020810191909152604001600020555092915050565b600061218d620186a061105a6121868286611997565b8890611dd8565b9050600061219b8683611997565b905060018560018111156121ab57fe5b1415612228576040516001600160a01b0385169083156108fc029084906000818181858888f193505050501580156121e7573d6000803e3d6000fd5b50600c546040516001600160a01b039091169082156108fc029083906000818181858888f19350505050158015612222573d6000803e3d6000fd5b506122aa565b600085600181111561223657fe5b14156122aa576122706001600160a01b037f000000000000000000000000000000000000000000000000000000000000000016858461244a565b600c546122aa906001600160a01b037f0000000000000000000000000000000000000000000000000000000000000000811691168361244a565b7f42bf830ec222b3077f036a1be5d7d50fd1fc16cfcb9c67a8547cf0241679eae08486848460405180856001600160a01b031681526020018460018111156122ee57fe5b815260200183815260200182815260200194505050505060405180910390a1505050505050565b6001600160a01b0383161561232f5761232d836128a6565b505b6001600160a01b0382161561234957612347826128a6565b505b505050565b6001600160a01b0382166123935760405162461bcd60e51b8152600401808060200182810382526021815260200180612c856021913960400191505060405180910390fd5b61239f82600083612315565b6123dc81604051806060016040528060228152602001612b45602291396001600160a01b0385166000908152600160205260409020549190611900565b6001600160a01b0383166000908152600160205260409020556003546124029082611997565b6003556040805182815290516000916001600160a01b038516917fddf252ad1be2c89b69c2b068fc378daa952ba7f163c4a11628f55a4df523b3ef9181900360200190a35050565b604080516001600160a01b038416602482015260448082018490528251808303909101815260649091019091526020810180516001600160e01b031663a9059cbb60e01b1790526123499084906128c5565b600081836124eb5760405162461bcd60e51b815260206004820181815283516024840152835190928392604490910191908501908083836000831561195457818101518382015260200161193c565b5060008385816124f757fe5b0495945050505050565b604080516001600160a01b0380861660248301528416604482015260648082018490528251808303909101815260849091019091526020810180516001600160e01b03166323b872dd60e01b1790526123479085906128c5565b6001600160a01b0382166125b6576040805162461bcd60e51b815260206004820152601f60248201527f45524332303a206d696e7420746f20746865207a65726f206164647265737300604482015290519081900360640190fd5b6125c260008383612315565b6003546125cf9082611d7e565b6003556001600160a01b0382166000908152600160205260409020546125f59082611d7e565b6001600160a01b03831660008181526001602090815260408083209490945583518581529351929391927fddf252ad1be2c89b69c2b068fc378daa952ba7f163c4a11628f55a4df523b3ef9281900390910190a35050565b60006008600083600181111561265f57fe5b600181111561266a57fe5b815260208082019290925260409081016000205481516354198ce960e01b815230600482015291516001600160a01b03909116926354198ce99260248082019391829003018186803b1580156126bf57600080fd5b505afa1580156126d3573d6000803e3d6000fd5b505050506040513d60208110156126e957600080fd5b505190508015612797576008600083600181111561270357fe5b600181111561270e57fe5b815260200190815260200160002060009054906101000a90046001600160a01b03166001600160a01b031663f011a7af6040518163ffffffff1660e01b8152600401602060405180830381600087803b15801561276a57600080fd5b505af115801561277e573d6000803e3d6000fd5b505050506040513d602081101561279457600080fd5b50505b6000600f54116128485760018260018111156127af57fe5b14156127f557600b546040516001600160a01b039091169082156108fc029083906000818181858888f193505050501580156127ef573d6000803e3d6000fd5b50612843565b600082600181111561280357fe5b141561284357600b54612843906001600160a01b037f0000000000000000000000000000000000000000000000000000000000000000811691168361244a565b6113d9565b612876612866600f5461105a600a5485611dd890919063ffffffff16565b601360008560018111156112fd57fe5b6013600084600181111561288657fe5b600181111561289157fe5b81526020810191909152604001600020555050565b60006128b3826000612059565b016128bf826001612059565b01919050565b606061291a826040518060400160405280602081526020017f5361666545524332303a206c6f772d6c6576656c2063616c6c206661696c6564815250856001600160a01b03166129769092919063ffffffff16565b8051909150156123495780806020019051602081101561293957600080fd5b50516123495760405162461bcd60e51b815260040180806020018281038252602a815260200180612cef602a913960400191505060405180910390fd5b6060612985848460008561298d565b949350505050565b606061299885612afa565b6129e9576040805162461bcd60e51b815260206004820152601d60248201527f416464726573733a2063616c6c20746f206e6f6e2d636f6e7472616374000000604482015290519081900360640190fd5b60006060866001600160a01b031685876040518082805190602001908083835b60208310612a285780518252601f199092019160209182019101612a09565b6001836020036101000a03801982511681845116808217855250505050505090500191505060006040518083038185875af1925050503d8060008114612a8a576040519150601f19603f3d011682016040523d82523d6000602084013e612a8f565b606091505b50915091508115612aa35791506129859050565b805115612ab35780518082602001fd5b60405162461bcd60e51b815260206004820181815286516024840152865187939192839260440191908501908083836000831561195457818101518382015260200161193c565b3b15159056fe45524332303a207472616e7366657220746f20746865207a65726f2061646472657373416d6f756e7420746f6f20686967682c2062757920796f7572206f776e206c6f7445524332303a206275726e20616d6f756e7420657863656564732062616c616e63654f776e61626c653a206e6577206f776e657220697320746865207a65726f206164647265737345524332303a20617070726f766520746f20746865207a65726f206164647265737345524332303a207472616e7366657220616d6f756e7420657863656564732062616c616e63654c6f742073616c65206973206c6f636b65642062792048656769632e2046756e64732073686f756c6420626520617661696c61626c6520696e206c657373207468616e20323468536166654d6174683a206d756c7469706c69636174696f6e206f766572666c6f7745524332303a207472616e7366657220616d6f756e74206578636565647320616c6c6f77616e63654f776e61626c653a2063616c6c6572206973206e6f7420746865206f776e657245524332303a206275726e2066726f6d20746865207a65726f206164647265737345524332303a207472616e736665722066726f6d20746865207a65726f206164647265737345524332303a20617070726f76652066726f6d20746865207a65726f20616464726573735361666545524332303a204552433230206f7065726174696f6e20646964206e6f74207375636365656445524332303a2064656372656173656420616c6c6f77616e63652062656c6f77207a65726f4465706f7369747320617265206e6f7420616c6c6f77656420617420746865206d6f6d656e74a2646970667358221220ef4bac9b910e31887604156829097236d3d6b14f30ba106e7225c50fea1e2fda64736f6c634300060c0033",
  "linkReferences": {},
  "deployedLinkReferences": {}
}