{
  "contractName": "HegicPooledStakingWBTC",
  "abi": [
    {
      "inputs": [
        {
          "internalType": "contract IERC20",
          "name": "_token",
          "type": "address"
        },
        {
          "internalType": "contract IHegicStaking",
          "name": "_staking",
          "type": "address"
        },
        {
          "internalType": "contract IERC20",
          "name": "_underlying",
          "type": "address"
        }
      ],
      "stateMutability": "nonpayable",
      "type": "constructor"
    },
    {
      "anonymous": false,
      "inputs": [
        {
          "indexed": false,
          "internalType": "address",
          "name": "account",
          "type": "address"
        },
        {
          "indexed": false,
          "internalType": "uint256",
          "name": "amount",
          "type": "uint256"
        },
        {
          "indexed": false,
          "internalType": "uint256",
          "name": "lotId",
          "type": "uint256"
        }
      ],
      "name": "AddLiquidity",
      "type": "event"
    },
    {
      "anonymous": false,
      "inputs": [
        {
          "indexed": true,
          "internalType": "address",
          "name": "owner",
          "type": "address"
        },
        {
          "indexed": true,
          "internalType": "address",
          "name": "spender",
          "type": "address"
        },
        {
          "indexed": false,
          "internalType": "uint256",
          "name": "value",
          "type": "uint256"
        }
      ],
      "name": "Approval",
      "type": "event"
    },
    {
      "anonymous": false,
      "inputs": [
        {
          "indexed": false,
          "internalType": "uint256",
          "name": "buyDate",
          "type": "uint256"
        }
      ],
      "name": "BuyLot",
      "type": "event"
    },
    {
      "anonymous": false,
      "inputs": [
        {
          "indexed": false,
          "internalType": "address",
          "name": "account",
          "type": "address"
        },
        {
          "indexed": false,
          "internalType": "uint256",
          "name": "amount",
          "type": "uint256"
        }
      ],
      "name": "Deposit",
      "type": "event"
    },
    {
      "anonymous": false,
      "inputs": [
        {
          "indexed": true,
          "internalType": "address",
          "name": "previousOwner",
          "type": "address"
        },
        {
          "indexed": true,
          "internalType": "address",
          "name": "newOwner",
          "type": "address"
        }
      ],
      "name": "OwnershipTransferred",
      "type": "event"
    },
    {
      "anonymous": false,
      "inputs": [
        {
          "indexed": false,
          "internalType": "address",
          "name": "account",
          "type": "address"
        },
        {
          "indexed": false,
          "internalType": "uint256",
          "name": "profit",
          "type": "uint256"
        }
      ],
      "name": "Pay",
      "type": "event"
    },
    {
      "anonymous": false,
      "inputs": [
        {
          "indexed": false,
          "internalType": "uint256",
          "name": "sellDate",
          "type": "uint256"
        }
      ],
      "name": "SellLot",
      "type": "event"
    },
    {
      "anonymous": false,
      "inputs": [
        {
          "indexed": true,
          "internalType": "address",
          "name": "from",
          "type": "address"
        },
        {
          "indexed": true,
          "internalType": "address",
          "name": "to",
          "type": "address"
        },
        {
          "indexed": false,
          "internalType": "uint256",
          "name": "value",
          "type": "uint256"
        }
      ],
      "name": "Transfer",
      "type": "event"
    },
    {
      "inputs": [],
      "name": "ACCURACY",
      "outputs": [
        {
          "internalType": "uint256",
          "name": "",
          "type": "uint256"
        }
      ],
      "stateMutability": "view",
      "type": "function",
      "constant": true
    },
    {
      "inputs": [],
      "name": "FALLBACK_RECIPIENT",
      "outputs": [
        {
          "internalType": "address payable",
          "name": "",
          "type": "address"
        }
      ],
      "stateMutability": "view",
      "type": "function",
      "constant": true
    },
    {
      "inputs": [],
      "name": "FEE",
      "outputs": [
        {
          "internalType": "uint256",
          "name": "",
          "type": "uint256"
        }
      ],
      "stateMutability": "view",
      "type": "function",
      "constant": true
    },
    {
      "inputs": [],
      "name": "FEE_RECIPIENT",
      "outputs": [
        {
          "internalType": "address payable",
          "name": "",
          "type": "address"
        }
      ],
      "stateMutability": "view",
      "type": "function",
      "constant": true
    },
    {
      "inputs": [],
      "name": "HEGIC",
      "outputs": [
        {
          "internalType": "contract IERC20",
          "name": "",
          "type": "address"
        }
      ],
      "stateMutability": "view",
      "type": "function",
      "constant": true
    },
    {
      "inputs": [],
      "name": "LOCK_UP_PERIOD",
      "outputs": [
        {
          "internalType": "uint256",
          "name": "",
          "type": "uint256"
        }
      ],
      "stateMutability": "view",
      "type": "function",
      "constant": true
    },
    {
      "inputs": [],
      "name": "STAKING_LOT_PRICE",
      "outputs": [
        {
          "internalType": "uint256",
          "name": "",
          "type": "uint256"
        }
      ],
      "stateMutability": "view",
      "type": "function",
      "constant": true
    },
    {
      "inputs": [
        {
          "internalType": "address",
          "name": "owner",
          "type": "address"
        },
        {
          "internalType": "address",
          "name": "spender",
          "type": "address"
        }
      ],
      "name": "allowance",
      "outputs": [
        {
          "internalType": "uint256",
          "name": "",
          "type": "uint256"
        }
      ],
      "stateMutability": "view",
      "type": "function",
      "constant": true
    },
    {
      "inputs": [
        {
          "internalType": "address",
          "name": "spender",
          "type": "address"
        },
        {
          "internalType": "uint256",
          "name": "amount",
          "type": "uint256"
        }
      ],
      "name": "approve",
      "outputs": [
        {
          "internalType": "bool",
          "name": "",
          "type": "bool"
        }
      ],
      "stateMutability": "nonpayable",
      "type": "function"
    },
    {
      "inputs": [
        {
          "internalType": "address",
          "name": "account",
          "type": "address"
        }
      ],
      "name": "balanceOf",
      "outputs": [
        {
          "internalType": "uint256",
          "name": "",
          "type": "uint256"
        }
      ],
      "stateMutability": "view",
      "type": "function",
      "constant": true
    },
    {
      "inputs": [
        {
          "internalType": "uint256",
          "name": "_fee",
          "type": "uint256"
        }
      ],
      "name": "changeFee",
      "outputs": [],
      "stateMutability": "nonpayable",
      "type": "function"
    },
    {
      "inputs": [
        {
          "internalType": "address",
          "name": "_recipient",
          "type": "address"
        }
      ],
      "name": "changeFeeRecipient",
      "outputs": [],
      "stateMutability": "nonpayable",
      "type": "function"
    },
    {
      "inputs": [],
      "name": "decimals",
      "outputs": [
        {
          "internalType": "uint8",
          "name": "",
          "type": "uint8"
        }
      ],
      "stateMutability": "view",
      "type": "function",
      "constant": true
    },
    {
      "inputs": [
        {
          "internalType": "address",
          "name": "spender",
          "type": "address"
        },
        {
          "internalType": "uint256",
          "name": "subtractedValue",
          "type": "uint256"
        }
      ],
      "name": "decreaseAllowance",
      "outputs": [
        {
          "internalType": "bool",
          "name": "",
          "type": "bool"
        }
      ],
      "stateMutability": "nonpayable",
      "type": "function"
    },
    {
      "inputs": [
        {
          "internalType": "uint256",
          "name": "_HEGICAmount",
          "type": "uint256"
        }
      ],
      "name": "deposit",
      "outputs": [],
      "stateMutability": "nonpayable",
      "type": "function"
    },
    {
      "inputs": [
        {
          "internalType": "uint256",
          "name": "_slotId",
          "type": "uint256"
        }
      ],
      "name": "exitFromStakingLot",
      "outputs": [],
      "stateMutability": "nonpayable",
      "type": "function"
    },
    {
      "inputs": [
        {
          "internalType": "address",
          "name": "_account",
          "type": "address"
        }
      ],
      "name": "getNotPayableProfit",
      "outputs": [
        {
          "internalType": "uint256",
          "name": "notPayableProfit",
          "type": "uint256"
        }
      ],
      "stateMutability": "view",
      "type": "function",
      "constant": true
    },
    {
      "inputs": [
        {
          "internalType": "uint256",
          "name": "_slotId",
          "type": "uint256"
        },
        {
          "internalType": "address",
          "name": "_account",
          "type": "address"
        }
      ],
      "name": "getStakingLotShares",
      "outputs": [
        {
          "internalType": "uint256",
          "name": "",
          "type": "uint256"
        }
      ],
      "stateMutability": "view",
      "type": "function",
      "constant": true
    },
    {
      "inputs": [
        {
          "internalType": "address",
          "name": "_account",
          "type": "address"
        }
      ],
      "name": "getUnlockedTokens",
      "outputs": [
        {
          "internalType": "uint256",
          "name": "lockedTokens",
          "type": "uint256"
        }
      ],
      "stateMutability": "view",
      "type": "function",
      "constant": true
    },
    {
      "inputs": [
        {
          "internalType": "address",
          "name": "_account",
          "type": "address"
        }
      ],
      "name": "getUnreceivedProfit",
      "outputs": [
        {
          "internalType": "uint256",
          "name": "unreceived",
          "type": "uint256"
        }
      ],
      "stateMutability": "view",
      "type": "function",
      "constant": true
    },
    {
      "inputs": [
        {
          "internalType": "address",
          "name": "_account",
          "type": "address"
        }
      ],
      "name": "getUnsaved",
      "outputs": [
        {
          "internalType": "uint256",
          "name": "profit",
          "type": "uint256"
        }
      ],
      "stateMutability": "view",
      "type": "function",
      "constant": true
    },
    {
      "inputs": [
        {
          "internalType": "address",
          "name": "spender",
          "type": "address"
        },
        {
          "internalType": "uint256",
          "name": "addedValue",
          "type": "uint256"
        }
      ],
      "name": "increaseAllowance",
      "outputs": [
        {
          "internalType": "bool",
          "name": "",
          "type": "bool"
        }
      ],
      "stateMutability": "nonpayable",
      "type": "function"
    },
    {
      "inputs": [],
      "name": "lockedBalance",
      "outputs": [
        {
          "internalType": "uint256",
          "name": "",
          "type": "uint256"
        }
      ],
      "stateMutability": "view",
      "type": "function",
      "constant": true
    },
    {
      "inputs": [],
      "name": "name",
      "outputs": [
        {
          "internalType": "string",
          "name": "",
          "type": "string"
        }
      ],
      "stateMutability": "view",
      "type": "function",
      "constant": true
    },
    {
      "inputs": [],
      "name": "numberOfStakingLots",
      "outputs": [
        {
          "internalType": "uint256",
          "name": "",
          "type": "uint256"
        }
      ],
      "stateMutability": "view",
      "type": "function",
      "constant": true
    },
    {
      "inputs": [],
      "name": "owner",
      "outputs": [
        {
          "internalType": "address",
          "name": "",
          "type": "address"
        }
      ],
      "stateMutability": "view",
      "type": "function",
      "constant": true
    },
    {
      "inputs": [],
      "name": "payProfit",
      "outputs": [],
      "stateMutability": "nonpayable",
      "type": "function"
    },
    {
      "inputs": [
        {
          "internalType": "address",
          "name": "_account",
          "type": "address"
        }
      ],
      "name": "profitOf",
      "outputs": [
        {
          "internalType": "uint256",
          "name": "profit",
          "type": "uint256"
        }
      ],
      "stateMutability": "view",
      "type": "function",
      "constant": true
    },
    {
      "inputs": [],
      "name": "renounceOwnership",
      "outputs": [],
      "stateMutability": "nonpayable",
      "type": "function"
    },
    {
      "inputs": [],
      "name": "staking",
      "outputs": [
        {
          "internalType": "contract IHegicStaking",
          "name": "",
          "type": "address"
        }
      ],
      "stateMutability": "view",
      "type": "function",
      "constant": true
    },
    {
      "inputs": [],
      "name": "symbol",
      "outputs": [
        {
          "internalType": "string",
          "name": "",
          "type": "string"
        }
      ],
      "stateMutability": "view",
      "type": "function",
      "constant": true
    },
    {
      "inputs": [],
      "name": "totalBalance",
      "outputs": [
        {
          "internalType": "uint256",
          "name": "",
          "type": "uint256"
        }
      ],
      "stateMutability": "view",
      "type": "function",
      "constant": true
    },
    {
      "inputs": [],
      "name": "totalProfitPerToken",
      "outputs": [
        {
          "internalType": "uint256",
          "name": "",
          "type": "uint256"
        }
      ],
      "stateMutability": "view",
      "type": "function",
      "constant": true
    },
    {
      "inputs": [],
      "name": "totalSupply",
      "outputs": [
        {
          "internalType": "uint256",
          "name": "",
          "type": "uint256"
        }
      ],
      "stateMutability": "view",
      "type": "function",
      "constant": true
    },
    {
      "inputs": [
        {
          "internalType": "address",
          "name": "recipient",
          "type": "address"
        },
        {
          "internalType": "uint256",
          "name": "amount",
          "type": "uint256"
        }
      ],
      "name": "transfer",
      "outputs": [
        {
          "internalType": "bool",
          "name": "",
          "type": "bool"
        }
      ],
      "stateMutability": "nonpayable",
      "type": "function"
    },
    {
      "inputs": [
        {
          "internalType": "address",
          "name": "sender",
          "type": "address"
        },
        {
          "internalType": "address",
          "name": "recipient",
          "type": "address"
        },
        {
          "internalType": "uint256",
          "name": "amount",
          "type": "uint256"
        }
      ],
      "name": "transferFrom",
      "outputs": [
        {
          "internalType": "bool",
          "name": "",
          "type": "bool"
        }
      ],
      "stateMutability": "nonpayable",
      "type": "function"
    },
    {
      "inputs": [
        {
          "internalType": "address",
          "name": "newOwner",
          "type": "address"
        }
      ],
      "name": "transferOwnership",
      "outputs": [],
      "stateMutability": "nonpayable",
      "type": "function"
    },
    {
      "inputs": [],
      "name": "underlying",
      "outputs": [
        {
          "internalType": "contract IERC20",
          "name": "",
          "type": "address"
        }
      ],
      "stateMutability": "view",
      "type": "function",
      "constant": true
    },
    {
      "stateMutability": "payable",
      "type": "receive",
      "payable": true
    },
    {
      "inputs": [],
      "name": "updateProfit",
      "outputs": [],
      "stateMutability": "nonpayable",
      "type": "function"
    }
  ],
  "bytecode": "0x60a06040526212750060075569bc0a9392c65c3b0000006008556c0c9f2c9cd04674edea400000006009553480156200003757600080fd5b5060405162002b7038038062002b70833981810160405260608110156200005d57600080fd5b50805160208083015160409384015184518086018652601081526f455448205374616b656420484547494360801b81850152855180870190965260098652680e6908a8e92868aa8960bb1b938601939093529293909291849184919081816000620000c76200026d565b600080546001600160a01b0319166001600160a01b0383169081178255604051929350917f8be0079c531659141344cd1fd0a4f28419497f9722a3daafe3b4186f6b6457e0908290a35081516200012690600490602085019062000271565b5080516200013c90600590602084019062000271565b505060068054606087901b6001600160601b031916608052601260ff1990911617610100600160a81b0319166101006001600160a01b03878116918202929092179092556000600e819055600f819055600d8190556010819055600a8054336001600160a01b031991821681178355600b8054909216179055600c556040805163095ea7b360e01b815260048101949094526c0c9f2c9cd04674edea40000000602485015251918816935063095ea7b392604480820193602093909283900390910190829087803b1580156200021157600080fd5b505af115801562000226573d6000803e3d6000fd5b505050506040513d60208110156200023d57600080fd5b5050601980546001600160a01b0319166001600160a01b039690961695909517909455506200030d945050505050565b3390565b828054600181600116156101000203166002900490600052602060002090601f016020900481019282601f10620002b457805160ff1916838001178555620002e4565b82800160010185558215620002e4579182015b82811115620002e4578251825591602001919060010190620002c7565b50620002f2929150620002f6565b5090565b5b80821115620002f25760008155600101620002f7565b60805160601c61283b62000335600039806112e65280611c7b5280611e04525061283b6000f3fe6080604052600436106102345760003560e01c80636f307dc31161012e578063a9059cbb116100ab578063da119ced1161006f578063da119ced146107cc578063dd62ed3e146107e1578063ebd090541461081c578063f2fde38b14610831578063fbcd9b05146108645761023b565b8063a9059cbb1461072a578063ad7a672f14610763578063b6b55f2514610778578063c018fb6f146107a2578063c57981b5146107b75761023b565b80638da5cb5b116100f25780638da5cb5b1461067f5780638ec848121461069457806391b1e118146106a957806395d89b41146106dc578063a457c2d7146106f15761023b565b80636f307dc3146105f857806370a082311461060d578063715018a61461064057806371e395a8146106555780637b80889b1461066a5761023b565b80632d3008dd116101bc57806348de85171161018057806348de8517146105385780634cf088d91461057157806354198ce91461058657806356e2da1b146105b95780636a1db1bf146105ce5761023b565b80632d3008dd14610480578063313ce5671461049557806335e20bff146104c057806339509351146104ea5780634456bb22146105235761023b565b80631b016373116102035780631b016373146103715780631f803ac3146103a257806323604071146103d557806323b872dd1461040a5780632a69c1bb1461044d5761023b565b806306f498a91461024057806306fdde0314610285578063095ea7b31461030f57806318160ddd1461035c5761023b565b3661023b57005b600080fd5b34801561024c57600080fd5b506102736004803603602081101561026357600080fd5b50356001600160a01b0316610879565b60408051918252519081900360200190f35b34801561029157600080fd5b5061029a6109b5565b6040805160208082528351818301528351919283929083019185019080838360005b838110156102d45781810151838201526020016102bc565b50505050905090810190601f1680156103015780820380516001836020036101000a031916815260200191505b509250505060405180910390f35b34801561031b57600080fd5b506103486004803603604081101561033257600080fd5b506001600160a01b038135169060200135610a4b565b604080519115158252519081900360200190f35b34801561036857600080fd5b50610273610a69565b34801561037d57600080fd5b50610386610a6f565b604080516001600160a01b039092168252519081900360200190f35b3480156103ae57600080fd5b50610273600480360360208110156103c557600080fd5b50356001600160a01b0316610a7e565b3480156103e157600080fd5b50610408600480360360208110156103f857600080fd5b50356001600160a01b0316610b07565b005b34801561041657600080fd5b506103486004803603606081101561042d57600080fd5b506001600160a01b03813581169160208101359091169060400135610b81565b34801561045957600080fd5b506102736004803603602081101561047057600080fd5b50356001600160a01b0316610c08565b34801561048c57600080fd5b50610273610d12565b3480156104a157600080fd5b506104aa610d18565b6040805160ff9092168252519081900360200190f35b3480156104cc57600080fd5b50610408600480360360208110156104e357600080fd5b5035610d21565b3480156104f657600080fd5b506103486004803603604081101561050d57600080fd5b506001600160a01b038135169060200135611054565b34801561052f57600080fd5b506102736110a2565b34801561054457600080fd5b506102736004803603604081101561055b57600080fd5b50803590602001356001600160a01b03166110a8565b34801561057d57600080fd5b506103866110d0565b34801561059257600080fd5b50610273600480360360208110156105a957600080fd5b50356001600160a01b03166110e4565b3480156105c557600080fd5b5061027361112e565b3480156105da57600080fd5b50610408600480360360208110156105f157600080fd5b5035611134565b34801561060457600080fd5b50610386611218565b34801561061957600080fd5b506102736004803603602081101561063057600080fd5b50356001600160a01b0316611227565b34801561064c57600080fd5b50610408611242565b34801561066157600080fd5b506103866112e4565b34801561067657600080fd5b50610273611308565b34801561068b57600080fd5b5061038661130e565b3480156106a057600080fd5b5061040861131d565b3480156106b557600080fd5b50610273600480360360208110156106cc57600080fd5b50356001600160a01b0316611479565b3480156106e857600080fd5b5061029a6114d6565b3480156106fd57600080fd5b506103486004803603604081101561071457600080fd5b506001600160a01b038135169060200135611537565b34801561073657600080fd5b506103486004803603604081101561074d57600080fd5b506001600160a01b03813516906020013561159f565b34801561076f57600080fd5b506102736115b3565b34801561078457600080fd5b506104086004803603602081101561079b57600080fd5b50356115b9565b3480156107ae57600080fd5b50610408611690565b3480156107c357600080fd5b506102736116f5565b3480156107d857600080fd5b506102736116fb565b3480156107ed57600080fd5b506102736004803603604081101561080457600080fd5b506001600160a01b0381358116916020013516611701565b34801561082857600080fd5b5061038661172c565b34801561083d57600080fd5b506104086004803603602081101561085457600080fd5b50356001600160a01b031661173b565b34801561087057600080fd5b50610273611833565b6001600160a01b038116600090815260146020526040812054156109b0576001600160a01b0382166000908152601460205260408120805460001981019081106108bf57fe5b60009182526020808320909101546001600160a01b03861683526017825260408084205482855260159093529092205491925090811161098b5760008281526011602090815260408083206001600160a01b038816845290915281205461093a906109339061092d88611227565b90611839565b839061187b565b60008481526011602090815260408083206001600160a01b038a168452825280832054878452601590925282205492935090916109769161187b565b905061098282826118d4565b945050506109ad565b6109aa6109a361099a86610a7e565b61092d87611227565b829061187b565b92505b50505b919050565b60048054604080516020601f6002600019610100600188161502019095169490940493840181900481028201810190925282815260609390929091830182828015610a415780601f10610a1657610100808354040283529160200191610a41565b820191906000526020600020905b815481529060010190602001808311610a2457829003601f168201915b5050505050905090565b6000610a5f610a5861192e565b8484611932565b5060015b92915050565b60035490565b600a546001600160a01b031681565b6001600160a01b038116600090815260146020526040812054156109b0576001600160a01b038216600090815260146020526040812080546000198101908110610ac457fe5b90600052602060002001549050600d54811415610b015760008181526011602090815260408083206001600160a01b038716845290915290205491505b50919050565b610b0f61192e565b6000546001600160a01b03908116911614610b5f576040805162461bcd60e51b8152602060048201819052602482015260008051602061272d833981519152604482015290519081900360640190fd5b600b80546001600160a01b0319166001600160a01b0392909216919091179055565b6000610b8e848484611a1e565b610bfe84610b9a61192e565b610bf985604051806060016040528060288152602001612705602891396001600160a01b038a16600090815260026020526040812090610bd861192e565b6001600160a01b031681526020810191909152604001600020549190611b7b565b611932565b5060019392505050565b600080610c1483611227565b90506000610c2184610a7e565b90506000610c2f8383611839565b90506000600660019054906101000a90046001600160a01b03166001600160a01b03166354198ce9306040518263ffffffff1660e01b815260040180826001600160a01b0316815260200191505060206040518083038186803b158015610c9557600080fd5b505afa158015610ca9573d6000803e3d6000fd5b505050506040513d6020811015610cbf57600080fd5b5051600f5490915015610d0457610cfd600954610cf184610cf7600f54610cf16009548861187b90919063ffffffff16565b90611c12565b9061187b565b9450610d09565b600094505b50505050919050565b60085481565b60065460ff1690565b6000818152601160209081526040808320338452909152902054610d8c576040805162461bcd60e51b815260206004820152601d60248201527f4e6f742070617274696369706174696e6720696e2074686973206c6f74000000604482015290519081900360640190fd5b600d54811115610ddb576040805162461bcd60e51b815260206004820152601560248201527414dd185ada5b99c81b1bdd081b9bdd08199bdd5b99605a1b604482015290519081900360640190fd5b600d54811415610e2a57600d546000908152601160209081526040808320338452909152902054610e0b90611c54565b6000818152601160209081526040808320338452909152812055611051565b600081815260186020526040902054421015610e775760405162461bcd60e51b815260040180806020018281038252604a81526020018061269a604a913960600191505060405180910390fd5b600660019054906101000a90046001600160a01b03166001600160a01b031663e4849b3260016040518263ffffffff1660e01b815260040180828152602001915050600060405180830381600087803b158015610ed357600080fd5b505af1158015610ee7573d6000803e3d6000fd5b50506040805142815290517fd49accdec98ee69b54d4406b129420fc3adf0c8d610bcb9ef28806fb07d318349350908190036020019150a1600081815260136020908152604091829020805483518184028101840190945280845260609392830182828015610f7f57602002820191906000526020600020905b81546001600160a01b03168152600190910190602001808311610f61575b5050506000858152601160209081526040808320338452909152902054929350610fac9150829050611c54565b600f805482900390556000805b835181101561104c57838181518110610fce57fe5b60209081029190910181015160008781526011835260408082206001600160a01b038416808452945290205494509250331461102157600f8054849003905561101682611ca2565b506110218383611d0f565b60008581526011602090815260408083206001600160a01b0386168452909152812055600101610fb9565b505050505b50565b6000610a5f61106161192e565b84610bf9856002600061107261192e565b6001600160a01b03908116825260208083019390935260409182016000908120918c1681529252902054906118d4565b60105481565b60009182526011602090815260408084206001600160a01b0393909316845291905290205490565b60065461010090046001600160a01b031681565b6000806110f083610c08565b90506111278161112161110286611479565b6001600160a01b038716600090815260166020526040902054906118d4565b906118d4565b9392505050565b60075481565b61113c61192e565b6000546001600160a01b0390811691161461118c576040805162461bcd60e51b8152602060048201819052602482015260008051602061272d833981519152604482015290519081900360640190fd5b600081116111cf576040805162461bcd60e51b815260206004820152600b60248201526a46656520746f6f206c6f7760a81b604482015290519081900360640190fd5b60648110611213576040805162461bcd60e51b815260206004820152600c60248201526b08ccaca40e8dede40d0d2ced60a31b604482015290519081900360640190fd5b600c55565b6019546001600160a01b031681565b6001600160a01b031660009081526001602052604090205490565b61124a61192e565b6000546001600160a01b0390811691161461129a576040805162461bcd60e51b8152602060048201819052602482015260008051602061272d833981519152604482015290519081900360640190fd5b600080546040516001600160a01b03909116907f8be0079c531659141344cd1fd0a4f28419497f9722a3daafe3b4186f6b6457e0908390a3600080546001600160a01b0319169055565b7f000000000000000000000000000000000000000000000000000000000000000081565b600f5481565b6000546001600160a01b031690565b600654604080516354198ce960e01b8152306004820152905160009261010090046001600160a01b0316916354198ce9916024808301926020929190829003018186803b15801561136d57600080fd5b505afa158015611381573d6000803e3d6000fd5b505050506040513d602081101561139757600080fd5b50519050801561142057600660019054906101000a90046001600160a01b03166001600160a01b031663f011a7af6040518163ffffffff1660e01b8152600401602060405180830381600087803b1580156113f157600080fd5b505af1158015611405573d6000803e3d6000fd5b505050506040513d602081101561141b57600080fd5b505190505b6000600f541161144c57600a54601954611447916001600160a01b03918216911683611d86565b611051565b61147361146a600f54610cf16009548561187b90919063ffffffff16565b601054906118d4565b60105550565b60008061148583611227565b9050600061149284610a7e565b905060006114a08383611839565b60009450905080156114ce576114cb600954610cf16114be88610879565b60105461092d908661187b565b93505b505050919050565b60058054604080516020601f6002600019610100600188161502019095169490940493840181900481028201810190925282815260609390929091830182828015610a415780601f10610a1657610100808354040283529160200191610a41565b6000610a5f61154461192e565b84610bf9856040518060600160405280602581526020016127e1602591396002600061156e61192e565b6001600160a01b03908116825260208083019390935260409182016000908120918d16815292529020549190611b7b565b6000610a5f6115ac61192e565b8484611a1e565b600e5481565b600081116115ff576040805162461bcd60e51b815260206004820152600e60248201526d416d6f756e7420746f6f206c6f7760901b604482015290519081900360640190fd5b600854811061163f5760405162461bcd60e51b81526004018080602001828103825260218152602001806125e96021913960400191505060405180910390fd5b61164881611ddd565b6116528133611d0f565b604080513381526020810183905281517fe1fffcc4923d04b559f4d29a8bfc6cda04eb5b0d3c460751c2402c5c5cc9109c929181900390910190a150565b600061169b33611ca2565b90506116a681611e2c565b336000818152601660209081526040808320929092558151928352820183905280517f357b676c439b9e49b4410f8eb8680bee4223724802d8e3fd422e1756f87b475f9281900390910190a150565b600c5481565b600d5481565b6001600160a01b03918216600090815260026020908152604080832093909416825291909152205490565b600b546001600160a01b031681565b61174361192e565b6000546001600160a01b03908116911614611793576040805162461bcd60e51b8152602060048201819052602482015260008051602061272d833981519152604482015290519081900360640190fd5b6001600160a01b0381166117d85760405162461bcd60e51b815260040180806020018281038252602681526020018061262c6026913960400191505060405180910390fd5b600080546040516001600160a01b03808516939216917f8be0079c531659141344cd1fd0a4f28419497f9722a3daafe3b4186f6b6457e091a3600080546001600160a01b0319166001600160a01b0392909216919091179055565b60095481565b600061112783836040518060400160405280601e81526020017f536166654d6174683a207375627472616374696f6e206f766572666c6f770000815250611b7b565b60008261188a57506000610a63565b8282028284828161189757fe5b04146111275760405162461bcd60e51b81526004018080602001828103825260218152602001806126e46021913960400191505060405180910390fd5b600082820183811015611127576040805162461bcd60e51b815260206004820152601b60248201527f536166654d6174683a206164646974696f6e206f766572666c6f770000000000604482015290519081900360640190fd5b3390565b6001600160a01b0383166119775760405162461bcd60e51b81526004018080602001828103825260248152602001806127936024913960400191505060405180910390fd5b6001600160a01b0382166119bc5760405162461bcd60e51b81526004018080602001828103825260228152602001806126526022913960400191505060405180910390fd5b6001600160a01b03808416600081815260026020908152604080832094871680845294825291829020859055815185815291517f8c5be1e5ebec7d5bd14f71427d1e84f3dd0314c0f7b2291e5b200ac8c7c3b9259281900390910190a3505050565b6001600160a01b038316611a635760405162461bcd60e51b815260040180806020018281038252602581526020018061276e6025913960400191505060405180910390fd5b6001600160a01b038216611aa85760405162461bcd60e51b81526004018080602001828103825260238152602001806125c66023913960400191505060405180910390fd5b611ab3838383611e8e565b611af081604051806060016040528060268152602001612674602691396001600160a01b0386166000908152600160205260409020549190611b7b565b6001600160a01b038085166000908152600160205260408082209390935590841681522054611b1f90826118d4565b6001600160a01b0380841660008181526001602090815260409182902094909455805185815290519193928716927fddf252ad1be2c89b69c2b068fc378daa952ba7f163c4a11628f55a4df523b3ef92918290030190a3505050565b60008184841115611c0a5760405162461bcd60e51b81526004018080602001828103825283818151815260200191508051906020019080838360005b83811015611bcf578181015183820152602001611bb7565b50505050905090810190601f168015611bfc5780820380516001836020036101000a031916815260200191505b509250505060405180910390fd5b505050900390565b600061112783836040518060400160405280601a81526020017f536166654d6174683a206469766973696f6e206279207a65726f000000000000815250611ec6565b600e54611c619082611839565b600e55611c6e3382611f2b565b6110516001600160a01b037f0000000000000000000000000000000000000000000000000000000000000000163383611d86565b6000611cac61131d565b6000611cb783611479565b6010546001600160a01b038516600090815260176020908152604080832093909355601690522054909150611cec90826118d4565b6001600160a01b0390931660009081526016602052604090208390555090919050565b600854600f54600e54611d2191611839565b10611d78576000611d4560085461092d600f54600e5461183990919063ffffffff16565b9050611d5a611d548483611839565b83612027565b611d6261214a565b8015611d7257611d728183612027565b50611d82565b611d828282612027565b5050565b604080516001600160a01b038416602482015260448082018490528251808303909101815260649091019091526020810180516001600160e01b031663a9059cbb60e01b179052611dd890849061223e565b505050565b600e54611dea90826118d4565b600e55611df733826122ef565b6110516001600160a01b037f0000000000000000000000000000000000000000000000000000000000000000163330846123e1565b611e6833611e556064610cf1611e4e600c54606461183990919063ffffffff16565b869061187b565b6019546001600160a01b03169190611d86565b600b54600c54611051916001600160a01b031690611e5590606490610cf190869061187b565b6001600160a01b03831615611ea857611ea683611ca2565b505b6001600160a01b03821615611dd857611ec082611ca2565b50505050565b60008183611f155760405162461bcd60e51b8152602060048201818152835160248401528351909283926044909101919085019080838360008315611bcf578181015183820152602001611bb7565b506000838581611f2157fe5b0495945050505050565b6001600160a01b038216611f705760405162461bcd60e51b815260040180806020018281038252602181526020018061274d6021913960400191505060405180910390fd5b611f7c82600083611e8e565b611fb98160405180606001604052806022815260200161260a602291396001600160a01b0385166000908152600160205260409020549190611b7b565b6001600160a01b038316600090815260016020526040902055600354611fdf9082611839565b6003556040805182815290516000916001600160a01b038516917fddf252ad1be2c89b69c2b068fc378daa952ba7f163c4a11628f55a4df523b3ef9181900360200190a35050565b600d5460009081526011602090815260408083206001600160a01b03851684529091529020546120a9576001600160a01b0381166000818152601460209081526040808320600d805482546001818101855593875285872001555484526013835290832080549182018155835291200180546001600160a01b03191690911790555b600d5460009081526011602090815260408083206001600160a01b03851684529091529020546120d990836118d4565b600d805460009081526011602090815260408083206001600160a01b0387168085529083529281902094909455915483519182529181018590528083019190915290517f06239653922ac7bea6aa2b19dc486b9361821d37712eb796adfd38d81de278ca9181900360600190a15050565b600660019054906101000a90046001600160a01b03166001600160a01b031663d96a094a60016040518263ffffffff1660e01b815260040180828152602001915050600060405180830381600087803b1580156121a657600080fd5b505af11580156121ba573d6000803e3d6000fd5b5050601054600d805460009081526015602090815260408083209490945560075483548352601890915292902042909201909155805460010190555050600854600f54612206916118d4565b600f556040805142815290517fda7648eeaf3d0dc82ce7240eed345d3268ee5959cc3021dad64a9743214bc9a19181900360200190a1565b6060612293826040518060400160405280602081526020017f5361666545524332303a206c6f772d6c6576656c2063616c6c206661696c6564815250856001600160a01b031661243b9092919063ffffffff16565b805190915015611dd8578080602001905160208110156122b257600080fd5b5051611dd85760405162461bcd60e51b815260040180806020018281038252602a8152602001806127b7602a913960400191505060405180910390fd5b6001600160a01b03821661234a576040805162461bcd60e51b815260206004820152601f60248201527f45524332303a206d696e7420746f20746865207a65726f206164647265737300604482015290519081900360640190fd5b61235660008383611e8e565b60035461236390826118d4565b6003556001600160a01b03821660009081526001602052604090205461238990826118d4565b6001600160a01b03831660008181526001602090815260408083209490945583518581529351929391927fddf252ad1be2c89b69c2b068fc378daa952ba7f163c4a11628f55a4df523b3ef9281900390910190a35050565b604080516001600160a01b0380861660248301528416604482015260648082018490528251808303909101815260849091019091526020810180516001600160e01b03166323b872dd60e01b179052611ec090859061223e565b606061244a8484600085612452565b949350505050565b606061245d856125bf565b6124ae576040805162461bcd60e51b815260206004820152601d60248201527f416464726573733a2063616c6c20746f206e6f6e2d636f6e7472616374000000604482015290519081900360640190fd5b60006060866001600160a01b031685876040518082805190602001908083835b602083106124ed5780518252601f1990920191602091820191016124ce565b6001836020036101000a03801982511681845116808217855250505050505090500191505060006040518083038185875af1925050503d806000811461254f576040519150601f19603f3d011682016040523d82523d6000602084013e612554565b606091505b5091509150811561256857915061244a9050565b8051156125785780518082602001fd5b60405162461bcd60e51b8152602060048201818152865160248401528651879391928392604401919085019080838360008315611bcf578181015183820152602001611bb7565b3b15159056fe45524332303a207472616e7366657220746f20746865207a65726f2061646472657373416d6f756e7420746f6f20686967682c2062757920796f7572206f776e206c6f7445524332303a206275726e20616d6f756e7420657863656564732062616c616e63654f776e61626c653a206e6577206f776e657220697320746865207a65726f206164647265737345524332303a20617070726f766520746f20746865207a65726f206164647265737345524332303a207472616e7366657220616d6f756e7420657863656564732062616c616e63655374616b696e67204c6f74206973207374696c6c206c6f636b65642e20596f75206861766520746f20776169742032207765656b732073696e6365206c6f742773207075726368617365536166654d6174683a206d756c7469706c69636174696f6e206f766572666c6f7745524332303a207472616e7366657220616d6f756e74206578636565647320616c6c6f77616e63654f776e61626c653a2063616c6c6572206973206e6f7420746865206f776e657245524332303a206275726e2066726f6d20746865207a65726f206164647265737345524332303a207472616e736665722066726f6d20746865207a65726f206164647265737345524332303a20617070726f76652066726f6d20746865207a65726f20616464726573735361666545524332303a204552433230206f7065726174696f6e20646964206e6f74207375636365656445524332303a2064656372656173656420616c6c6f77616e63652062656c6f77207a65726fa2646970667358221220051d85730ff5b22d440e97fd44fdc12aa6667bcfb220121cf726c18c70e6d23f64736f6c634300060c0033",
  "immutableReferences": {
    "17": [
      {
        "length": 32,
        "start": 4838
      },
      {
        "length": 32,
        "start": 7291
      },
      {
        "length": 32,
        "start": 7684
      }
    ]
  },
  "source": "// SPDX-License-Identifier: MIT\npragma solidity 0.6.12;\n\nimport \"./HegicPooledStaking.sol\";\n\ncontract HegicPooledStakingWBTC is HegicPooledStaking {\n\n    IERC20 public underlying;\n\n    constructor(IERC20 _token, IHegicStaking _staking, IERC20 _underlying) public HegicPooledStaking(_token, _staking, \"ETH Staked HEGIC\", \"sHEGICETH\") {\n        underlying = _underlying;\n    }\n\n    function _transferProfit(uint _amount) internal override {\n        underlying.safeTransfer(msg.sender, _amount.mul(uint(100).sub(FEE)).div(100));\n        underlying.safeTransfer(FEE_RECIPIENT, _amount.mul(FEE).div(100));\n    }\n\n    function updateProfit() public override {\n        uint profit = staking.profitOf(address(this));\n        if(profit > 0) profit = staking.claimProfit();\n        if(lockedBalance <= 0) underlying.safeTransfer(FALLBACK_RECIPIENT, profit);\n        else totalProfitPerToken = totalProfitPerToken.add(profit.mul(ACCURACY).div(lockedBalance));\n    }\n}",
  "sourcePath": "/Users/juanmontero/Projects/DeFi/hegic/hegic-pooled-staking/contracts/HegicPooledStakingWBTC.sol",
  "compiler": {
    "name": "solc",
    "version": "0.6.12+commit.27d51765.Emscripten.clang"
  },
  "schemaVersion": "3.2.5",
  "updatedAt": "2020-10-06T14:15:01.405Z",
  "networkType": "ethereum",
  "devdoc": {
    "kind": "dev",
    "methods": {
      "allowance(address,address)": {
        "details": "See {IERC20-allowance}."
      },
      "approve(address,uint256)": {
        "details": "See {IERC20-approve}. Requirements: - `spender` cannot be the zero address."
      },
      "balanceOf(address)": {
        "details": "See {IERC20-balanceOf}."
      },
      "decimals()": {
        "details": "Returns the number of decimals used to get its user representation. For example, if `decimals` equals `2`, a balance of `505` tokens should be displayed to a user as `5,05` (`505 / 10 ** 2`). Tokens usually opt for a value of 18, imitating the relationship between Ether and Wei. This is the value {ERC20} uses, unless {_setupDecimals} is called. NOTE: This information is only used for _display_ purposes: it in no way affects any of the arithmetic of the contract, including {IERC20-balanceOf} and {IERC20-transfer}."
      },
      "decreaseAllowance(address,uint256)": {
        "details": "Atomically decreases the allowance granted to `spender` by the caller. This is an alternative to {approve} that can be used as a mitigation for problems described in {IERC20-approve}. Emits an {Approval} event indicating the updated allowance. Requirements: - `spender` cannot be the zero address. - `spender` must have allowance for the caller of at least `subtractedValue`."
      },
      "increaseAllowance(address,uint256)": {
        "details": "Atomically increases the allowance granted to `spender` by the caller. This is an alternative to {approve} that can be used as a mitigation for problems described in {IERC20-approve}. Emits an {Approval} event indicating the updated allowance. Requirements: - `spender` cannot be the zero address."
      },
      "name()": {
        "details": "Returns the name of the token."
      },
      "owner()": {
        "details": "Returns the address of the current owner."
      },
      "renounceOwnership()": {
        "details": "Leaves the contract without owner. It will not be possible to call `onlyOwner` functions anymore. Can only be called by the current owner. NOTE: Renouncing ownership will leave the contract without an owner, thereby removing any functionality that is only available to the owner."
      },
      "symbol()": {
        "details": "Returns the symbol of the token, usually a shorter version of the name."
      },
      "totalSupply()": {
        "details": "See {IERC20-totalSupply}."
      },
      "transfer(address,uint256)": {
        "details": "See {IERC20-transfer}. Requirements: - `recipient` cannot be the zero address. - the caller must have a balance of at least `amount`."
      },
      "transferFrom(address,address,uint256)": {
        "details": "See {IERC20-transferFrom}. Emits an {Approval} event indicating the updated allowance. This is not required by the EIP. See the note at the beginning of {ERC20}; Requirements: - `sender` and `recipient` cannot be the zero address. - `sender` must have a balance of at least `amount`. - the caller must have allowance for ``sender``'s tokens of at least `amount`."
      },
      "transferOwnership(address)": {
        "details": "Transfers ownership of the contract to a new account (`newOwner`). Can only be called by the current owner."
      }
    },
    "version": 1
  },
  "userdoc": {
    "kind": "user",
    "methods": {},
    "version": 1
  }
}