{
  "contractName": "HegicPooledStakingETH",
  "abi": [
    {
      "inputs": [
        {
          "internalType": "contract IERC20",
          "name": "_token",
          "type": "address"
        },
        {
          "internalType": "contract IHegicStaking",
          "name": "_staking",
          "type": "address"
        }
      ],
      "stateMutability": "nonpayable",
      "type": "constructor"
    },
    {
      "anonymous": false,
      "inputs": [
        {
          "indexed": false,
          "internalType": "address",
          "name": "account",
          "type": "address"
        },
        {
          "indexed": false,
          "internalType": "uint256",
          "name": "amount",
          "type": "uint256"
        },
        {
          "indexed": false,
          "internalType": "uint256",
          "name": "lotId",
          "type": "uint256"
        }
      ],
      "name": "AddLiquidity",
      "type": "event"
    },
    {
      "anonymous": false,
      "inputs": [
        {
          "indexed": true,
          "internalType": "address",
          "name": "owner",
          "type": "address"
        },
        {
          "indexed": true,
          "internalType": "address",
          "name": "spender",
          "type": "address"
        },
        {
          "indexed": false,
          "internalType": "uint256",
          "name": "value",
          "type": "uint256"
        }
      ],
      "name": "Approval",
      "type": "event"
    },
    {
      "anonymous": false,
      "inputs": [
        {
          "indexed": false,
          "internalType": "uint256",
          "name": "buyDate",
          "type": "uint256"
        }
      ],
      "name": "BuyLot",
      "type": "event"
    },
    {
      "anonymous": false,
      "inputs": [
        {
          "indexed": false,
          "internalType": "address",
          "name": "account",
          "type": "address"
        },
        {
          "indexed": false,
          "internalType": "uint256",
          "name": "amount",
          "type": "uint256"
        }
      ],
      "name": "Deposit",
      "type": "event"
    },
    {
      "anonymous": false,
      "inputs": [
        {
          "indexed": true,
          "internalType": "address",
          "name": "previousOwner",
          "type": "address"
        },
        {
          "indexed": true,
          "internalType": "address",
          "name": "newOwner",
          "type": "address"
        }
      ],
      "name": "OwnershipTransferred",
      "type": "event"
    },
    {
      "anonymous": false,
      "inputs": [
        {
          "indexed": false,
          "internalType": "address",
          "name": "account",
          "type": "address"
        },
        {
          "indexed": false,
          "internalType": "uint256",
          "name": "profit",
          "type": "uint256"
        }
      ],
      "name": "Pay",
      "type": "event"
    },
    {
      "anonymous": false,
      "inputs": [
        {
          "indexed": false,
          "internalType": "uint256",
          "name": "sellDate",
          "type": "uint256"
        }
      ],
      "name": "SellLot",
      "type": "event"
    },
    {
      "anonymous": false,
      "inputs": [
        {
          "indexed": true,
          "internalType": "address",
          "name": "from",
          "type": "address"
        },
        {
          "indexed": true,
          "internalType": "address",
          "name": "to",
          "type": "address"
        },
        {
          "indexed": false,
          "internalType": "uint256",
          "name": "value",
          "type": "uint256"
        }
      ],
      "name": "Transfer",
      "type": "event"
    },
    {
      "inputs": [],
      "name": "ACCURACY",
      "outputs": [
        {
          "internalType": "uint256",
          "name": "",
          "type": "uint256"
        }
      ],
      "stateMutability": "view",
      "type": "function",
      "constant": true
    },
    {
      "inputs": [],
      "name": "FALLBACK_RECIPIENT",
      "outputs": [
        {
          "internalType": "address payable",
          "name": "",
          "type": "address"
        }
      ],
      "stateMutability": "view",
      "type": "function",
      "constant": true
    },
    {
      "inputs": [],
      "name": "FEE",
      "outputs": [
        {
          "internalType": "uint256",
          "name": "",
          "type": "uint256"
        }
      ],
      "stateMutability": "view",
      "type": "function",
      "constant": true
    },
    {
      "inputs": [],
      "name": "FEE_RECIPIENT",
      "outputs": [
        {
          "internalType": "address payable",
          "name": "",
          "type": "address"
        }
      ],
      "stateMutability": "view",
      "type": "function",
      "constant": true
    },
    {
      "inputs": [],
      "name": "HEGIC",
      "outputs": [
        {
          "internalType": "contract IERC20",
          "name": "",
          "type": "address"
        }
      ],
      "stateMutability": "view",
      "type": "function",
      "constant": true
    },
    {
      "inputs": [],
      "name": "LOCK_UP_PERIOD",
      "outputs": [
        {
          "internalType": "uint256",
          "name": "",
          "type": "uint256"
        }
      ],
      "stateMutability": "view",
      "type": "function",
      "constant": true
    },
    {
      "inputs": [],
      "name": "STAKING_LOT_PRICE",
      "outputs": [
        {
          "internalType": "uint256",
          "name": "",
          "type": "uint256"
        }
      ],
      "stateMutability": "view",
      "type": "function",
      "constant": true
    },
    {
      "inputs": [
        {
          "internalType": "address",
          "name": "owner",
          "type": "address"
        },
        {
          "internalType": "address",
          "name": "spender",
          "type": "address"
        }
      ],
      "name": "allowance",
      "outputs": [
        {
          "internalType": "uint256",
          "name": "",
          "type": "uint256"
        }
      ],
      "stateMutability": "view",
      "type": "function",
      "constant": true
    },
    {
      "inputs": [
        {
          "internalType": "address",
          "name": "spender",
          "type": "address"
        },
        {
          "internalType": "uint256",
          "name": "amount",
          "type": "uint256"
        }
      ],
      "name": "approve",
      "outputs": [
        {
          "internalType": "bool",
          "name": "",
          "type": "bool"
        }
      ],
      "stateMutability": "nonpayable",
      "type": "function"
    },
    {
      "inputs": [
        {
          "internalType": "address",
          "name": "account",
          "type": "address"
        }
      ],
      "name": "balanceOf",
      "outputs": [
        {
          "internalType": "uint256",
          "name": "",
          "type": "uint256"
        }
      ],
      "stateMutability": "view",
      "type": "function",
      "constant": true
    },
    {
      "inputs": [
        {
          "internalType": "uint256",
          "name": "_fee",
          "type": "uint256"
        }
      ],
      "name": "changeFee",
      "outputs": [],
      "stateMutability": "nonpayable",
      "type": "function"
    },
    {
      "inputs": [
        {
          "internalType": "address",
          "name": "_recipient",
          "type": "address"
        }
      ],
      "name": "changeFeeRecipient",
      "outputs": [],
      "stateMutability": "nonpayable",
      "type": "function"
    },
    {
      "inputs": [],
      "name": "decimals",
      "outputs": [
        {
          "internalType": "uint8",
          "name": "",
          "type": "uint8"
        }
      ],
      "stateMutability": "view",
      "type": "function",
      "constant": true
    },
    {
      "inputs": [
        {
          "internalType": "address",
          "name": "spender",
          "type": "address"
        },
        {
          "internalType": "uint256",
          "name": "subtractedValue",
          "type": "uint256"
        }
      ],
      "name": "decreaseAllowance",
      "outputs": [
        {
          "internalType": "bool",
          "name": "",
          "type": "bool"
        }
      ],
      "stateMutability": "nonpayable",
      "type": "function"
    },
    {
      "inputs": [
        {
          "internalType": "uint256",
          "name": "_HEGICAmount",
          "type": "uint256"
        }
      ],
      "name": "deposit",
      "outputs": [],
      "stateMutability": "nonpayable",
      "type": "function"
    },
    {
      "inputs": [
        {
          "internalType": "uint256",
          "name": "_slotId",
          "type": "uint256"
        }
      ],
      "name": "exitFromStakingLot",
      "outputs": [],
      "stateMutability": "nonpayable",
      "type": "function"
    },
    {
      "inputs": [
        {
          "internalType": "address",
          "name": "_account",
          "type": "address"
        }
      ],
      "name": "getNotPayableProfit",
      "outputs": [
        {
          "internalType": "uint256",
          "name": "notPayableProfit",
          "type": "uint256"
        }
      ],
      "stateMutability": "view",
      "type": "function",
      "constant": true
    },
    {
      "inputs": [
        {
          "internalType": "uint256",
          "name": "_slotId",
          "type": "uint256"
        },
        {
          "internalType": "address",
          "name": "_account",
          "type": "address"
        }
      ],
      "name": "getStakingLotShares",
      "outputs": [
        {
          "internalType": "uint256",
          "name": "",
          "type": "uint256"
        }
      ],
      "stateMutability": "view",
      "type": "function",
      "constant": true
    },
    {
      "inputs": [
        {
          "internalType": "address",
          "name": "_account",
          "type": "address"
        }
      ],
      "name": "getUnlockedTokens",
      "outputs": [
        {
          "internalType": "uint256",
          "name": "lockedTokens",
          "type": "uint256"
        }
      ],
      "stateMutability": "view",
      "type": "function",
      "constant": true
    },
    {
      "inputs": [
        {
          "internalType": "address",
          "name": "_account",
          "type": "address"
        }
      ],
      "name": "getUnreceivedProfit",
      "outputs": [
        {
          "internalType": "uint256",
          "name": "unreceived",
          "type": "uint256"
        }
      ],
      "stateMutability": "view",
      "type": "function",
      "constant": true
    },
    {
      "inputs": [
        {
          "internalType": "address",
          "name": "_account",
          "type": "address"
        }
      ],
      "name": "getUnsaved",
      "outputs": [
        {
          "internalType": "uint256",
          "name": "profit",
          "type": "uint256"
        }
      ],
      "stateMutability": "view",
      "type": "function",
      "constant": true
    },
    {
      "inputs": [
        {
          "internalType": "address",
          "name": "spender",
          "type": "address"
        },
        {
          "internalType": "uint256",
          "name": "addedValue",
          "type": "uint256"
        }
      ],
      "name": "increaseAllowance",
      "outputs": [
        {
          "internalType": "bool",
          "name": "",
          "type": "bool"
        }
      ],
      "stateMutability": "nonpayable",
      "type": "function"
    },
    {
      "inputs": [],
      "name": "lockedBalance",
      "outputs": [
        {
          "internalType": "uint256",
          "name": "",
          "type": "uint256"
        }
      ],
      "stateMutability": "view",
      "type": "function",
      "constant": true
    },
    {
      "inputs": [],
      "name": "name",
      "outputs": [
        {
          "internalType": "string",
          "name": "",
          "type": "string"
        }
      ],
      "stateMutability": "view",
      "type": "function",
      "constant": true
    },
    {
      "inputs": [],
      "name": "numberOfStakingLots",
      "outputs": [
        {
          "internalType": "uint256",
          "name": "",
          "type": "uint256"
        }
      ],
      "stateMutability": "view",
      "type": "function",
      "constant": true
    },
    {
      "inputs": [],
      "name": "owner",
      "outputs": [
        {
          "internalType": "address",
          "name": "",
          "type": "address"
        }
      ],
      "stateMutability": "view",
      "type": "function",
      "constant": true
    },
    {
      "inputs": [],
      "name": "payProfit",
      "outputs": [],
      "stateMutability": "nonpayable",
      "type": "function"
    },
    {
      "inputs": [
        {
          "internalType": "address",
          "name": "_account",
          "type": "address"
        }
      ],
      "name": "profitOf",
      "outputs": [
        {
          "internalType": "uint256",
          "name": "profit",
          "type": "uint256"
        }
      ],
      "stateMutability": "view",
      "type": "function",
      "constant": true
    },
    {
      "inputs": [],
      "name": "renounceOwnership",
      "outputs": [],
      "stateMutability": "nonpayable",
      "type": "function"
    },
    {
      "inputs": [],
      "name": "staking",
      "outputs": [
        {
          "internalType": "contract IHegicStaking",
          "name": "",
          "type": "address"
        }
      ],
      "stateMutability": "view",
      "type": "function",
      "constant": true
    },
    {
      "inputs": [],
      "name": "symbol",
      "outputs": [
        {
          "internalType": "string",
          "name": "",
          "type": "string"
        }
      ],
      "stateMutability": "view",
      "type": "function",
      "constant": true
    },
    {
      "inputs": [],
      "name": "totalBalance",
      "outputs": [
        {
          "internalType": "uint256",
          "name": "",
          "type": "uint256"
        }
      ],
      "stateMutability": "view",
      "type": "function",
      "constant": true
    },
    {
      "inputs": [],
      "name": "totalProfitPerToken",
      "outputs": [
        {
          "internalType": "uint256",
          "name": "",
          "type": "uint256"
        }
      ],
      "stateMutability": "view",
      "type": "function",
      "constant": true
    },
    {
      "inputs": [],
      "name": "totalSupply",
      "outputs": [
        {
          "internalType": "uint256",
          "name": "",
          "type": "uint256"
        }
      ],
      "stateMutability": "view",
      "type": "function",
      "constant": true
    },
    {
      "inputs": [
        {
          "internalType": "address",
          "name": "recipient",
          "type": "address"
        },
        {
          "internalType": "uint256",
          "name": "amount",
          "type": "uint256"
        }
      ],
      "name": "transfer",
      "outputs": [
        {
          "internalType": "bool",
          "name": "",
          "type": "bool"
        }
      ],
      "stateMutability": "nonpayable",
      "type": "function"
    },
    {
      "inputs": [
        {
          "internalType": "address",
          "name": "sender",
          "type": "address"
        },
        {
          "internalType": "address",
          "name": "recipient",
          "type": "address"
        },
        {
          "internalType": "uint256",
          "name": "amount",
          "type": "uint256"
        }
      ],
      "name": "transferFrom",
      "outputs": [
        {
          "internalType": "bool",
          "name": "",
          "type": "bool"
        }
      ],
      "stateMutability": "nonpayable",
      "type": "function"
    },
    {
      "inputs": [
        {
          "internalType": "address",
          "name": "newOwner",
          "type": "address"
        }
      ],
      "name": "transferOwnership",
      "outputs": [],
      "stateMutability": "nonpayable",
      "type": "function"
    },
    {
      "stateMutability": "payable",
      "type": "receive",
      "payable": true
    },
    {
      "inputs": [],
      "name": "updateProfit",
      "outputs": [],
      "stateMutability": "nonpayable",
      "type": "function"
    }
  ],
  "bytecode": "0x60a06040526212750060075569bc0a9392c65c3b0000006008556c0c9f2c9cd04674edea400000006009553480156200003757600080fd5b5060405162002b7938038062002b79833981810160405260408110156200005d57600080fd5b508051602091820151604080518082018252601081526f455448205374616b656420484547494360801b81860152815180830190925260098252680e6908a8e92868aa8960bb1b94820194909452919290918391839181816000620000c162000246565b600080546001600160a01b0319166001600160a01b0383169081178255604051929350917f8be0079c531659141344cd1fd0a4f28419497f9722a3daafe3b4186f6b6457e0908290a3508151620001209060049060208501906200024a565b508051620001369060059060208401906200024a565b505060068054606087901b6001600160601b031916608052601260ff1990911617610100600160a81b0319166101006001600160a01b03878116918202929092179092556000600e819055600f819055600d8190556010819055600a8054336001600160a01b031991821681178355600b8054909216179055600c556040805163095ea7b360e01b815260048101949094526c0c9f2c9cd04674edea40000000602485015251918816935063095ea7b392604480820193602093909283900390910190829087803b1580156200020b57600080fd5b505af115801562000220573d6000803e3d6000fd5b505050506040513d60208110156200023757600080fd5b50620002e69650505050505050565b3390565b828054600181600116156101000203166002900490600052602060002090601f016020900481019282601f106200028d57805160ff1916838001178555620002bd565b82800160010185558215620002bd579182015b82811115620002bd578251825591602001919060010190620002a0565b50620002cb929150620002cf565b5090565b5b80821115620002cb5760008155600101620002d0565b60805160601c61286b6200030e600039806112b75280611c6a5280611d9c525061286b6000f3fe6080604052600436106102295760003560e01c806370a0823111610123578063a9059cbb116100ab578063da119ced1161006f578063da119ced146107ac578063dd62ed3e146107c1578063ebd09054146107fc578063f2fde38b14610811578063fbcd9b051461084457610230565b8063a9059cbb1461070a578063ad7a672f14610743578063b6b55f2514610758578063c018fb6f14610782578063c57981b51461079757610230565b80638da5cb5b116100f25780638da5cb5b1461065f5780638ec848121461067457806391b1e1181461068957806395d89b41146106bc578063a457c2d7146106d157610230565b806370a08231146105ed578063715018a61461062057806371e395a8146106355780637b80889b1461064a57610230565b80632d3008dd116101b157806348de85171161017557806348de85171461052d5780634cf088d91461056657806354198ce91461057b57806356e2da1b146105ae5780636a1db1bf146105c357610230565b80632d3008dd14610475578063313ce5671461048a57806335e20bff146104b557806339509351146104df5780634456bb221461051857610230565b80631b016373116101f85780631b016373146103665780631f803ac31461039757806323604071146103ca57806323b872dd146103ff5780632a69c1bb1461044257610230565b806306f498a91461023557806306fdde031461027a578063095ea7b31461030457806318160ddd1461035157610230565b3661023057005b600080fd5b34801561024157600080fd5b506102686004803603602081101561025857600080fd5b50356001600160a01b0316610859565b60408051918252519081900360200190f35b34801561028657600080fd5b5061028f610995565b6040805160208082528351818301528351919283929083019185019080838360005b838110156102c95781810151838201526020016102b1565b50505050905090810190601f1680156102f65780820380516001836020036101000a031916815260200191505b509250505060405180910390f35b34801561031057600080fd5b5061033d6004803603604081101561032757600080fd5b506001600160a01b038135169060200135610a2b565b604080519115158252519081900360200190f35b34801561035d57600080fd5b50610268610a49565b34801561037257600080fd5b5061037b610a4f565b604080516001600160a01b039092168252519081900360200190f35b3480156103a357600080fd5b50610268600480360360208110156103ba57600080fd5b50356001600160a01b0316610a5e565b3480156103d657600080fd5b506103fd600480360360208110156103ed57600080fd5b50356001600160a01b0316610ae7565b005b34801561040b57600080fd5b5061033d6004803603606081101561042257600080fd5b506001600160a01b03813581169160208101359091169060400135610b61565b34801561044e57600080fd5b506102686004803603602081101561046557600080fd5b50356001600160a01b0316610be8565b34801561048157600080fd5b50610268610cf2565b34801561049657600080fd5b5061049f610cf8565b6040805160ff9092168252519081900360200190f35b3480156104c157600080fd5b506103fd600480360360208110156104d857600080fd5b5035610d01565b3480156104eb57600080fd5b5061033d6004803603604081101561050257600080fd5b506001600160a01b038135169060200135611034565b34801561052457600080fd5b50610268611082565b34801561053957600080fd5b506102686004803603604081101561055057600080fd5b50803590602001356001600160a01b0316611088565b34801561057257600080fd5b5061037b6110b0565b34801561058757600080fd5b506102686004803603602081101561059e57600080fd5b50356001600160a01b03166110c4565b3480156105ba57600080fd5b5061026861110e565b3480156105cf57600080fd5b506103fd600480360360208110156105e657600080fd5b5035611114565b3480156105f957600080fd5b506102686004803603602081101561061057600080fd5b50356001600160a01b03166111f8565b34801561062c57600080fd5b506103fd611213565b34801561064157600080fd5b5061037b6112b5565b34801561065657600080fd5b506102686112d9565b34801561066b57600080fd5b5061037b6112df565b34801561068057600080fd5b506103fd6112ee565b34801561069557600080fd5b50610268600480360360208110156106ac57600080fd5b50356001600160a01b0316611468565b3480156106c857600080fd5b5061028f6114c5565b3480156106dd57600080fd5b5061033d600480360360408110156106f457600080fd5b506001600160a01b038135169060200135611526565b34801561071657600080fd5b5061033d6004803603604081101561072d57600080fd5b506001600160a01b03813516906020013561158e565b34801561074f57600080fd5b506102686115a2565b34801561076457600080fd5b506103fd6004803603602081101561077b57600080fd5b50356115a8565b34801561078e57600080fd5b506103fd61167f565b3480156107a357600080fd5b506102686116e4565b3480156107b857600080fd5b506102686116ea565b3480156107cd57600080fd5b50610268600480360360408110156107e457600080fd5b506001600160a01b03813581169160200135166116f0565b34801561080857600080fd5b5061037b61171b565b34801561081d57600080fd5b506103fd6004803603602081101561083457600080fd5b50356001600160a01b031661172a565b34801561085057600080fd5b50610268611822565b6001600160a01b03811660009081526014602052604081205415610990576001600160a01b03821660009081526014602052604081208054600019810190811061089f57fe5b60009182526020808320909101546001600160a01b03861683526017825260408084205482855260159093529092205491925090811161096b5760008281526011602090815260408083206001600160a01b038816845290915281205461091a906109139061090d886111f8565b90611828565b839061186a565b60008481526011602090815260408083206001600160a01b038a168452825280832054878452601590925282205492935090916109569161186a565b905061096282826118c3565b9450505061098d565b61098a61098361097a86610a5e565b61090d876111f8565b829061186a565b92505b50505b919050565b60048054604080516020601f6002600019610100600188161502019095169490940493840181900481028201810190925282815260609390929091830182828015610a215780601f106109f657610100808354040283529160200191610a21565b820191906000526020600020905b815481529060010190602001808311610a0457829003601f168201915b5050505050905090565b6000610a3f610a3861191d565b8484611921565b5060015b92915050565b60035490565b600a546001600160a01b031681565b6001600160a01b03811660009081526014602052604081205415610990576001600160a01b038216600090815260146020526040812080546000198101908110610aa457fe5b90600052602060002001549050600d54811415610ae15760008181526011602090815260408083206001600160a01b038716845290915290205491505b50919050565b610aef61191d565b6000546001600160a01b03908116911614610b3f576040805162461bcd60e51b8152602060048201819052602482015260008051602061275d833981519152604482015290519081900360640190fd5b600b80546001600160a01b0319166001600160a01b0392909216919091179055565b6000610b6e848484611a0d565b610bde84610b7a61191d565b610bd985604051806060016040528060288152602001612735602891396001600160a01b038a16600090815260026020526040812090610bb861191d565b6001600160a01b031681526020810191909152604001600020549190611b6a565b611921565b5060019392505050565b600080610bf4836111f8565b90506000610c0184610a5e565b90506000610c0f8383611828565b90506000600660019054906101000a90046001600160a01b03166001600160a01b03166354198ce9306040518263ffffffff1660e01b815260040180826001600160a01b0316815260200191505060206040518083038186803b158015610c7557600080fd5b505afa158015610c89573d6000803e3d6000fd5b505050506040513d6020811015610c9f57600080fd5b5051600f5490915015610ce457610cdd600954610cd184610cd7600f54610cd16009548861186a90919063ffffffff16565b90611c01565b9061186a565b9450610ce9565b600094505b50505050919050565b60085481565b60065460ff1690565b6000818152601160209081526040808320338452909152902054610d6c576040805162461bcd60e51b815260206004820152601d60248201527f4e6f742070617274696369706174696e6720696e2074686973206c6f74000000604482015290519081900360640190fd5b600d54811115610dbb576040805162461bcd60e51b815260206004820152601560248201527414dd185ada5b99c81b1bdd081b9bdd08199bdd5b99605a1b604482015290519081900360640190fd5b600d54811415610e0a57600d546000908152601160209081526040808320338452909152902054610deb90611c43565b6000818152601160209081526040808320338452909152812055611031565b600081815260186020526040902054421015610e575760405162461bcd60e51b815260040180806020018281038252604a8152602001806126ca604a913960600191505060405180910390fd5b600660019054906101000a90046001600160a01b03166001600160a01b031663e4849b3260016040518263ffffffff1660e01b815260040180828152602001915050600060405180830381600087803b158015610eb357600080fd5b505af1158015610ec7573d6000803e3d6000fd5b50506040805142815290517fd49accdec98ee69b54d4406b129420fc3adf0c8d610bcb9ef28806fb07d318349350908190036020019150a1600081815260136020908152604091829020805483518184028101840190945280845260609392830182828015610f5f57602002820191906000526020600020905b81546001600160a01b03168152600190910190602001808311610f41575b5050506000858152601160209081526040808320338452909152902054929350610f8c9150829050611c43565b600f805482900390556000805b835181101561102c57838181518110610fae57fe5b60209081029190910181015160008781526011835260408082206001600160a01b038416808452945290205494509250331461100157600f80548490039055610ff682611c91565b506110018383611cfe565b60008581526011602090815260408083206001600160a01b0386168452909152812055600101610f99565b505050505b50565b6000610a3f61104161191d565b84610bd9856002600061105261191d565b6001600160a01b03908116825260208083019390935260409182016000908120918c1681529252902054906118c3565b60105481565b60009182526011602090815260408084206001600160a01b0393909316845291905290205490565b60065461010090046001600160a01b031681565b6000806110d083610be8565b9050611107816111016110e286611468565b6001600160a01b038716600090815260166020526040902054906118c3565b906118c3565b9392505050565b60075481565b61111c61191d565b6000546001600160a01b0390811691161461116c576040805162461bcd60e51b8152602060048201819052602482015260008051602061275d833981519152604482015290519081900360640190fd5b600081116111af576040805162461bcd60e51b815260206004820152600b60248201526a46656520746f6f206c6f7760a81b604482015290519081900360640190fd5b606481106111f3576040805162461bcd60e51b815260206004820152600c60248201526b08ccaca40e8dede40d0d2ced60a31b604482015290519081900360640190fd5b600c55565b6001600160a01b031660009081526001602052604090205490565b61121b61191d565b6000546001600160a01b0390811691161461126b576040805162461bcd60e51b8152602060048201819052602482015260008051602061275d833981519152604482015290519081900360640190fd5b600080546040516001600160a01b03909116907f8be0079c531659141344cd1fd0a4f28419497f9722a3daafe3b4186f6b6457e0908390a3600080546001600160a01b0319169055565b7f000000000000000000000000000000000000000000000000000000000000000081565b600f5481565b6000546001600160a01b031690565b600654604080516354198ce960e01b8152306004820152905160009261010090046001600160a01b0316916354198ce9916024808301926020929190829003018186803b15801561133e57600080fd5b505afa158015611352573d6000803e3d6000fd5b505050506040513d602081101561136857600080fd5b5051905080156113f157600660019054906101000a90046001600160a01b03166001600160a01b031663f011a7af6040518163ffffffff1660e01b8152600401602060405180830381600087803b1580156113c257600080fd5b505af11580156113d6573d6000803e3d6000fd5b505050506040513d60208110156113ec57600080fd5b505190505b6000600f541161143b57600a546040516001600160a01b039091169082156108fc029083906000818181858888f19350505050158015611435573d6000803e3d6000fd5b50611031565b611462611459600f54610cd16009548561186a90919063ffffffff16565b601054906118c3565b60105550565b600080611474836111f8565b9050600061148184610a5e565b9050600061148f8383611828565b60009450905080156114bd576114ba600954610cd16114ad88610859565b60105461090d908661186a565b93505b505050919050565b60058054604080516020601f6002600019610100600188161502019095169490940493840181900481028201810190925282815260609390929091830182828015610a215780601f106109f657610100808354040283529160200191610a21565b6000610a3f61153361191d565b84610bd985604051806060016040528060258152602001612811602591396002600061155d61191d565b6001600160a01b03908116825260208083019390935260409182016000908120918d16815292529020549190611b6a565b6000610a3f61159b61191d565b8484611a0d565b600e5481565b600081116115ee576040805162461bcd60e51b815260206004820152600e60248201526d416d6f756e7420746f6f206c6f7760901b604482015290519081900360640190fd5b600854811061162e5760405162461bcd60e51b81526004018080602001828103825260218152602001806126196021913960400191505060405180910390fd5b61163781611d75565b6116418133611cfe565b604080513381526020810183905281517fe1fffcc4923d04b559f4d29a8bfc6cda04eb5b0d3c460751c2402c5c5cc9109c929181900390910190a150565b600061168a33611c91565b905061169581611dc4565b336000818152601660209081526040808320929092558151928352820183905280517f357b676c439b9e49b4410f8eb8680bee4223724802d8e3fd422e1756f87b475f9281900390910190a150565b600c5481565b600d5481565b6001600160a01b03918216600090815260026020908152604080832093909416825291909152205490565b600b546001600160a01b031681565b61173261191d565b6000546001600160a01b03908116911614611782576040805162461bcd60e51b8152602060048201819052602482015260008051602061275d833981519152604482015290519081900360640190fd5b6001600160a01b0381166117c75760405162461bcd60e51b815260040180806020018281038252602681526020018061265c6026913960400191505060405180910390fd5b600080546040516001600160a01b03808516939216917f8be0079c531659141344cd1fd0a4f28419497f9722a3daafe3b4186f6b6457e091a3600080546001600160a01b0319166001600160a01b0392909216919091179055565b60095481565b600061110783836040518060400160405280601e81526020017f536166654d6174683a207375627472616374696f6e206f766572666c6f770000815250611b6a565b60008261187957506000610a43565b8282028284828161188657fe5b04146111075760405162461bcd60e51b81526004018080602001828103825260218152602001806127146021913960400191505060405180910390fd5b600082820183811015611107576040805162461bcd60e51b815260206004820152601b60248201527f536166654d6174683a206164646974696f6e206f766572666c6f770000000000604482015290519081900360640190fd5b3390565b6001600160a01b0383166119665760405162461bcd60e51b81526004018080602001828103825260248152602001806127c36024913960400191505060405180910390fd5b6001600160a01b0382166119ab5760405162461bcd60e51b81526004018080602001828103825260228152602001806126826022913960400191505060405180910390fd5b6001600160a01b03808416600081815260026020908152604080832094871680845294825291829020859055815185815291517f8c5be1e5ebec7d5bd14f71427d1e84f3dd0314c0f7b2291e5b200ac8c7c3b9259281900390910190a3505050565b6001600160a01b038316611a525760405162461bcd60e51b815260040180806020018281038252602581526020018061279e6025913960400191505060405180910390fd5b6001600160a01b038216611a975760405162461bcd60e51b81526004018080602001828103825260238152602001806125f66023913960400191505060405180910390fd5b611aa2838383611e6f565b611adf816040518060600160405280602681526020016126a4602691396001600160a01b0386166000908152600160205260409020549190611b6a565b6001600160a01b038085166000908152600160205260408082209390935590841681522054611b0e90826118c3565b6001600160a01b0380841660008181526001602090815260409182902094909455805185815290519193928716927fddf252ad1be2c89b69c2b068fc378daa952ba7f163c4a11628f55a4df523b3ef92918290030190a3505050565b60008184841115611bf95760405162461bcd60e51b81526004018080602001828103825283818151815260200191508051906020019080838360005b83811015611bbe578181015183820152602001611ba6565b50505050905090810190601f168015611beb5780820380516001836020036101000a031916815260200191505b509250505060405180910390fd5b505050900390565b600061110783836040518060400160405280601a81526020017f536166654d6174683a206469766973696f6e206279207a65726f000000000000815250611ea8565b600e54611c509082611828565b600e55611c5d3382611f0d565b6110316001600160a01b037f0000000000000000000000000000000000000000000000000000000000000000163383612009565b6000611c9b6112ee565b6000611ca683611468565b6010546001600160a01b038516600090815260176020908152604080832093909355601690522054909150611cdb90826118c3565b6001600160a01b0390931660009081526016602052604090208390555090919050565b600854600f54600e54611d1091611828565b10611d67576000611d3460085461090d600f54600e5461182890919063ffffffff16565b9050611d49611d438483611828565b8361205b565b611d5161217e565b8015611d6157611d61818361205b565b50611d71565b611d71828261205b565b5050565b600e54611d8290826118c3565b600e55611d8f3382612272565b6110316001600160a01b037f000000000000000000000000000000000000000000000000000000000000000016333084612364565b336001600160a01b03166108fc611df66064610cd1611def600c54606461182890919063ffffffff16565b869061186a565b6040518115909202916000818181858888f19350505050158015611e1e573d6000803e3d6000fd5b50600b54600c546001600160a01b03909116906108fc90611e4790606490610cd190869061186a565b6040518115909202916000818181858888f19350505050158015611d71573d6000803e3d6000fd5b6001600160a01b03831615611e8957611e8783611c91565b505b6001600160a01b03821615611ea357611ea182611c91565b505b505050565b60008183611ef75760405162461bcd60e51b8152602060048201818152835160248401528351909283926044909101919085019080838360008315611bbe578181015183820152602001611ba6565b506000838581611f0357fe5b0495945050505050565b6001600160a01b038216611f525760405162461bcd60e51b815260040180806020018281038252602181526020018061277d6021913960400191505060405180910390fd5b611f5e82600083611e6f565b611f9b8160405180606001604052806022815260200161263a602291396001600160a01b0385166000908152600160205260409020549190611b6a565b6001600160a01b038316600090815260016020526040902055600354611fc19082611828565b6003556040805182815290516000916001600160a01b038516917fddf252ad1be2c89b69c2b068fc378daa952ba7f163c4a11628f55a4df523b3ef9181900360200190a35050565b604080516001600160a01b038416602482015260448082018490528251808303909101815260649091019091526020810180516001600160e01b031663a9059cbb60e01b179052611ea39084906123ba565b600d5460009081526011602090815260408083206001600160a01b03851684529091529020546120dd576001600160a01b0381166000818152601460209081526040808320600d805482546001818101855593875285872001555484526013835290832080549182018155835291200180546001600160a01b03191690911790555b600d5460009081526011602090815260408083206001600160a01b038516845290915290205461210d90836118c3565b600d805460009081526011602090815260408083206001600160a01b0387168085529083529281902094909455915483519182529181018590528083019190915290517f06239653922ac7bea6aa2b19dc486b9361821d37712eb796adfd38d81de278ca9181900360600190a15050565b600660019054906101000a90046001600160a01b03166001600160a01b031663d96a094a60016040518263ffffffff1660e01b815260040180828152602001915050600060405180830381600087803b1580156121da57600080fd5b505af11580156121ee573d6000803e3d6000fd5b5050601054600d805460009081526015602090815260408083209490945560075483548352601890915292902042909201909155805460010190555050600854600f5461223a916118c3565b600f556040805142815290517fda7648eeaf3d0dc82ce7240eed345d3268ee5959cc3021dad64a9743214bc9a19181900360200190a1565b6001600160a01b0382166122cd576040805162461bcd60e51b815260206004820152601f60248201527f45524332303a206d696e7420746f20746865207a65726f206164647265737300604482015290519081900360640190fd5b6122d960008383611e6f565b6003546122e690826118c3565b6003556001600160a01b03821660009081526001602052604090205461230c90826118c3565b6001600160a01b03831660008181526001602090815260408083209490945583518581529351929391927fddf252ad1be2c89b69c2b068fc378daa952ba7f163c4a11628f55a4df523b3ef9281900390910190a35050565b604080516001600160a01b0380861660248301528416604482015260648082018490528251808303909101815260849091019091526020810180516001600160e01b03166323b872dd60e01b179052611ea19085905b606061240f826040518060400160405280602081526020017f5361666545524332303a206c6f772d6c6576656c2063616c6c206661696c6564815250856001600160a01b031661246b9092919063ffffffff16565b805190915015611ea35780806020019051602081101561242e57600080fd5b5051611ea35760405162461bcd60e51b815260040180806020018281038252602a8152602001806127e7602a913960400191505060405180910390fd5b606061247a8484600085612482565b949350505050565b606061248d856125ef565b6124de576040805162461bcd60e51b815260206004820152601d60248201527f416464726573733a2063616c6c20746f206e6f6e2d636f6e7472616374000000604482015290519081900360640190fd5b60006060866001600160a01b031685876040518082805190602001908083835b6020831061251d5780518252601f1990920191602091820191016124fe565b6001836020036101000a03801982511681845116808217855250505050505090500191505060006040518083038185875af1925050503d806000811461257f576040519150601f19603f3d011682016040523d82523d6000602084013e612584565b606091505b5091509150811561259857915061247a9050565b8051156125a85780518082602001fd5b60405162461bcd60e51b8152602060048201818152865160248401528651879391928392604401919085019080838360008315611bbe578181015183820152602001611ba6565b3b15159056fe45524332303a207472616e7366657220746f20746865207a65726f2061646472657373416d6f756e7420746f6f20686967682c2062757920796f7572206f776e206c6f7445524332303a206275726e20616d6f756e7420657863656564732062616c616e63654f776e61626c653a206e6577206f776e657220697320746865207a65726f206164647265737345524332303a20617070726f766520746f20746865207a65726f206164647265737345524332303a207472616e7366657220616d6f756e7420657863656564732062616c616e63655374616b696e67204c6f74206973207374696c6c206c6f636b65642e20596f75206861766520746f20776169742032207765656b732073696e6365206c6f742773207075726368617365536166654d6174683a206d756c7469706c69636174696f6e206f766572666c6f7745524332303a207472616e7366657220616d6f756e74206578636565647320616c6c6f77616e63654f776e61626c653a2063616c6c6572206973206e6f7420746865206f776e657245524332303a206275726e2066726f6d20746865207a65726f206164647265737345524332303a207472616e736665722066726f6d20746865207a65726f206164647265737345524332303a20617070726f76652066726f6d20746865207a65726f20616464726573735361666545524332303a204552433230206f7065726174696f6e20646964206e6f74207375636365656445524332303a2064656372656173656420616c6c6f77616e63652062656c6f77207a65726fa2646970667358221220b1d78c2b61acb15c3659ca3b1253a2bb092f777dd4a1af75ebb130cd668fce8a64736f6c634300060c0033",
  "immutableReferences": {
    "17": [
      {
        "length": 32,
        "start": 4791
      },
      {
        "length": 32,
        "start": 7274
      },
      {
        "length": 32,
        "start": 7580
      }
    ]
  },
  "source": "// SPDX-License-Identifier: MIT\npragma solidity 0.6.12;\n\nimport \"./HegicPooledStaking.sol\";\n\ncontract HegicPooledStakingETH is HegicPooledStaking {\n\n    constructor(IERC20 _token, IHegicStaking _staking) public HegicPooledStaking(_token, _staking, \"ETH Staked HEGIC\", \"sHEGICETH\") {\n    }\n\n    function _transferProfit(uint _amount) internal override{\n        msg.sender.transfer(_amount.mul(uint(100).sub(FEE)).div(100));\n        FEE_RECIPIENT.transfer(_amount.mul(FEE).div(100));\n    }\n\n    function updateProfit() public override {\n        uint profit = staking.profitOf(address(this));\n        if(profit > 0) profit = staking.claimProfit();\n        if(lockedBalance <= 0) FALLBACK_RECIPIENT.transfer(profit);\n        else totalProfitPerToken = totalProfitPerToken.add(profit.mul(ACCURACY).div(lockedBalance));\n    }\n}",
  "sourcePath": "/Users/juanmontero/Projects/DeFi/hegic/hegic-pooled-staking/contracts/HegicPooledStakingETH.sol",
  "compiler": {
    "name": "solc",
    "version": "0.6.12+commit.27d51765.Emscripten.clang"
  },
  "schemaVersion": "3.2.5",
  "updatedAt": "2020-10-06T14:15:01.358Z",
  "networkType": "ethereum",
  "devdoc": {
    "kind": "dev",
    "methods": {
      "allowance(address,address)": {
        "details": "See {IERC20-allowance}."
      },
      "approve(address,uint256)": {
        "details": "See {IERC20-approve}. Requirements: - `spender` cannot be the zero address."
      },
      "balanceOf(address)": {
        "details": "See {IERC20-balanceOf}."
      },
      "decimals()": {
        "details": "Returns the number of decimals used to get its user representation. For example, if `decimals` equals `2`, a balance of `505` tokens should be displayed to a user as `5,05` (`505 / 10 ** 2`). Tokens usually opt for a value of 18, imitating the relationship between Ether and Wei. This is the value {ERC20} uses, unless {_setupDecimals} is called. NOTE: This information is only used for _display_ purposes: it in no way affects any of the arithmetic of the contract, including {IERC20-balanceOf} and {IERC20-transfer}."
      },
      "decreaseAllowance(address,uint256)": {
        "details": "Atomically decreases the allowance granted to `spender` by the caller. This is an alternative to {approve} that can be used as a mitigation for problems described in {IERC20-approve}. Emits an {Approval} event indicating the updated allowance. Requirements: - `spender` cannot be the zero address. - `spender` must have allowance for the caller of at least `subtractedValue`."
      },
      "increaseAllowance(address,uint256)": {
        "details": "Atomically increases the allowance granted to `spender` by the caller. This is an alternative to {approve} that can be used as a mitigation for problems described in {IERC20-approve}. Emits an {Approval} event indicating the updated allowance. Requirements: - `spender` cannot be the zero address."
      },
      "name()": {
        "details": "Returns the name of the token."
      },
      "owner()": {
        "details": "Returns the address of the current owner."
      },
      "renounceOwnership()": {
        "details": "Leaves the contract without owner. It will not be possible to call `onlyOwner` functions anymore. Can only be called by the current owner. NOTE: Renouncing ownership will leave the contract without an owner, thereby removing any functionality that is only available to the owner."
      },
      "symbol()": {
        "details": "Returns the symbol of the token, usually a shorter version of the name."
      },
      "totalSupply()": {
        "details": "See {IERC20-totalSupply}."
      },
      "transfer(address,uint256)": {
        "details": "See {IERC20-transfer}. Requirements: - `recipient` cannot be the zero address. - the caller must have a balance of at least `amount`."
      },
      "transferFrom(address,address,uint256)": {
        "details": "See {IERC20-transferFrom}. Emits an {Approval} event indicating the updated allowance. This is not required by the EIP. See the note at the beginning of {ERC20}; Requirements: - `sender` and `recipient` cannot be the zero address. - `sender` must have a balance of at least `amount`. - the caller must have allowance for ``sender``'s tokens of at least `amount`."
      },
      "transferOwnership(address)": {
        "details": "Transfers ownership of the contract to a new account (`newOwner`). Can only be called by the current owner."
      }
    },
    "version": 1
  },
  "userdoc": {
    "kind": "user",
    "methods": {},
    "version": 1
  }
}