{
  "_format": "hh-sol-artifact-1",
  "contractName": "HegicStakingPool",
  "sourceName": "contracts/HegicStakingPool.sol",
  "abi": [
    {
      "inputs": [
        {
          "internalType": "contract IERC20",
          "name": "_HEGIC",
          "type": "address"
        },
        {
          "internalType": "contract IERC20",
          "name": "_WBTC",
          "type": "address"
        },
        {
          "internalType": "contract IHegicStaking",
          "name": "_stakingWBTC",
          "type": "address"
        },
        {
          "internalType": "contract IHegicStaking",
          "name": "_stakingETH",
          "type": "address"
        }
      ],
      "stateMutability": "nonpayable",
      "type": "constructor"
    },
    {
      "anonymous": false,
      "inputs": [
        {
          "indexed": true,
          "internalType": "address",
          "name": "owner",
          "type": "address"
        },
        {
          "indexed": true,
          "internalType": "address",
          "name": "spender",
          "type": "address"
        },
        {
          "indexed": false,
          "internalType": "uint256",
          "name": "value",
          "type": "uint256"
        }
      ],
      "name": "Approval",
      "type": "event"
    },
    {
      "anonymous": false,
      "inputs": [
        {
          "indexed": false,
          "internalType": "uint256",
          "name": "id",
          "type": "uint256"
        },
        {
          "indexed": false,
          "internalType": "enum HegicStakingPool.Asset",
          "name": "asset",
          "type": "uint8"
        },
        {
          "indexed": false,
          "internalType": "address",
          "name": "account",
          "type": "address"
        }
      ],
      "name": "BuyLot",
      "type": "event"
    },
    {
      "anonymous": false,
      "inputs": [
        {
          "indexed": false,
          "internalType": "address",
          "name": "account",
          "type": "address"
        },
        {
          "indexed": false,
          "internalType": "enum HegicStakingPool.Asset",
          "name": "asset",
          "type": "uint8"
        },
        {
          "indexed": false,
          "internalType": "uint256",
          "name": "netProfit",
          "type": "uint256"
        },
        {
          "indexed": false,
          "internalType": "uint256",
          "name": "fee",
          "type": "uint256"
        }
      ],
      "name": "ClaimedProfit",
      "type": "event"
    },
    {
      "anonymous": false,
      "inputs": [
        {
          "indexed": false,
          "internalType": "address",
          "name": "account",
          "type": "address"
        },
        {
          "indexed": false,
          "internalType": "uint256",
          "name": "amount",
          "type": "uint256"
        }
      ],
      "name": "Deposit",
      "type": "event"
    },
    {
      "anonymous": false,
      "inputs": [
        {
          "indexed": true,
          "internalType": "address",
          "name": "previousOwner",
          "type": "address"
        },
        {
          "indexed": true,
          "internalType": "address",
          "name": "newOwner",
          "type": "address"
        }
      ],
      "name": "OwnershipTransferred",
      "type": "event"
    },
    {
      "anonymous": false,
      "inputs": [
        {
          "indexed": false,
          "internalType": "uint256",
          "name": "id",
          "type": "uint256"
        },
        {
          "indexed": false,
          "internalType": "enum HegicStakingPool.Asset",
          "name": "asset",
          "type": "uint8"
        },
        {
          "indexed": false,
          "internalType": "address",
          "name": "account",
          "type": "address"
        }
      ],
      "name": "SellLot",
      "type": "event"
    },
    {
      "anonymous": false,
      "inputs": [
        {
          "indexed": true,
          "internalType": "address",
          "name": "from",
          "type": "address"
        },
        {
          "indexed": true,
          "internalType": "address",
          "name": "to",
          "type": "address"
        },
        {
          "indexed": false,
          "internalType": "uint256",
          "name": "value",
          "type": "uint256"
        }
      ],
      "name": "Transfer",
      "type": "event"
    },
    {
      "anonymous": false,
      "inputs": [
        {
          "indexed": false,
          "internalType": "address",
          "name": "account",
          "type": "address"
        },
        {
          "indexed": false,
          "internalType": "uint256",
          "name": "amount",
          "type": "uint256"
        }
      ],
      "name": "Withdraw",
      "type": "event"
    },
    {
      "inputs": [],
      "name": "ACCURACY",
      "outputs": [
        {
          "internalType": "uint256",
          "name": "",
          "type": "uint256"
        }
      ],
      "stateMutability": "view",
      "type": "function"
    },
    {
      "inputs": [],
      "name": "DISCOUNTED_LOTS",
      "outputs": [
        {
          "internalType": "uint256",
          "name": "",
          "type": "uint256"
        }
      ],
      "stateMutability": "view",
      "type": "function"
    },
    {
      "inputs": [],
      "name": "DISCOUNT_FIRST_LOTS",
      "outputs": [
        {
          "internalType": "uint256",
          "name": "",
          "type": "uint256"
        }
      ],
      "stateMutability": "view",
      "type": "function"
    },
    {
      "inputs": [],
      "name": "FALLBACK_RECIPIENT",
      "outputs": [
        {
          "internalType": "address payable",
          "name": "",
          "type": "address"
        }
      ],
      "stateMutability": "view",
      "type": "function"
    },
    {
      "inputs": [],
      "name": "FEE_RECIPIENT",
      "outputs": [
        {
          "internalType": "address payable",
          "name": "",
          "type": "address"
        }
      ],
      "stateMutability": "view",
      "type": "function"
    },
    {
      "inputs": [],
      "name": "HEGIC",
      "outputs": [
        {
          "internalType": "contract IERC20",
          "name": "",
          "type": "address"
        }
      ],
      "stateMutability": "view",
      "type": "function"
    },
    {
      "inputs": [],
      "name": "STAKING_LOT_PRICE",
      "outputs": [
        {
          "internalType": "uint256",
          "name": "",
          "type": "uint256"
        }
      ],
      "stateMutability": "view",
      "type": "function"
    },
    {
      "inputs": [],
      "name": "WBTC",
      "outputs": [
        {
          "internalType": "contract IERC20",
          "name": "",
          "type": "address"
        }
      ],
      "stateMutability": "view",
      "type": "function"
    },
    {
      "inputs": [
        {
          "internalType": "bool",
          "name": "_allow",
          "type": "bool"
        }
      ],
      "name": "allowDeposits",
      "outputs": [],
      "stateMutability": "nonpayable",
      "type": "function"
    },
    {
      "inputs": [
        {
          "internalType": "address",
          "name": "owner",
          "type": "address"
        },
        {
          "internalType": "address",
          "name": "spender",
          "type": "address"
        }
      ],
      "name": "allowance",
      "outputs": [
        {
          "internalType": "uint256",
          "name": "",
          "type": "uint256"
        }
      ],
      "stateMutability": "view",
      "type": "function"
    },
    {
      "inputs": [
        {
          "internalType": "address",
          "name": "spender",
          "type": "address"
        },
        {
          "internalType": "uint256",
          "name": "amount",
          "type": "uint256"
        }
      ],
      "name": "approve",
      "outputs": [
        {
          "internalType": "bool",
          "name": "",
          "type": "bool"
        }
      ],
      "stateMutability": "nonpayable",
      "type": "function"
    },
    {
      "inputs": [
        {
          "internalType": "address",
          "name": "account",
          "type": "address"
        }
      ],
      "name": "balanceOf",
      "outputs": [
        {
          "internalType": "uint256",
          "name": "",
          "type": "uint256"
        }
      ],
      "stateMutability": "view",
      "type": "function"
    },
    {
      "inputs": [
        {
          "internalType": "address",
          "name": "_account",
          "type": "address"
        }
      ],
      "name": "canWithdraw",
      "outputs": [
        {
          "internalType": "bool",
          "name": "",
          "type": "bool"
        }
      ],
      "stateMutability": "view",
      "type": "function"
    },
    {
      "inputs": [
        {
          "internalType": "address",
          "name": "_recipient",
          "type": "address"
        }
      ],
      "name": "changeFallbackRecipient",
      "outputs": [],
      "stateMutability": "nonpayable",
      "type": "function"
    },
    {
      "inputs": [
        {
          "internalType": "address",
          "name": "_recipient",
          "type": "address"
        }
      ],
      "name": "changeFeeRecipient",
      "outputs": [],
      "stateMutability": "nonpayable",
      "type": "function"
    },
    {
      "inputs": [
        {
          "internalType": "uint256",
          "name": "_fee",
          "type": "uint256"
        }
      ],
      "name": "changePerformanceFee",
      "outputs": [],
      "stateMutability": "nonpayable",
      "type": "function"
    },
    {
      "inputs": [],
      "name": "claimAllProfit",
      "outputs": [],
      "stateMutability": "nonpayable",
      "type": "function"
    },
    {
      "inputs": [
        {
          "internalType": "enum HegicStakingPool.Asset",
          "name": "_asset",
          "type": "uint8"
        }
      ],
      "name": "claimProfit",
      "outputs": [],
      "stateMutability": "nonpayable",
      "type": "function"
    },
    {
      "inputs": [],
      "name": "claimProfitAndWithdraw",
      "outputs": [],
      "stateMutability": "nonpayable",
      "type": "function"
    },
    {
      "inputs": [],
      "name": "decimals",
      "outputs": [
        {
          "internalType": "uint8",
          "name": "",
          "type": "uint8"
        }
      ],
      "stateMutability": "view",
      "type": "function"
    },
    {
      "inputs": [
        {
          "internalType": "address",
          "name": "spender",
          "type": "address"
        },
        {
          "internalType": "uint256",
          "name": "subtractedValue",
          "type": "uint256"
        }
      ],
      "name": "decreaseAllowance",
      "outputs": [
        {
          "internalType": "bool",
          "name": "",
          "type": "bool"
        }
      ],
      "stateMutability": "nonpayable",
      "type": "function"
    },
    {
      "inputs": [
        {
          "internalType": "uint256",
          "name": "_amount",
          "type": "uint256"
        }
      ],
      "name": "deposit",
      "outputs": [],
      "stateMutability": "nonpayable",
      "type": "function"
    },
    {
      "inputs": [],
      "name": "depositsAllowed",
      "outputs": [
        {
          "internalType": "bool",
          "name": "",
          "type": "bool"
        }
      ],
      "stateMutability": "view",
      "type": "function"
    },
    {
      "inputs": [],
      "name": "getHegicStakingETH",
      "outputs": [
        {
          "internalType": "contract IHegicStaking",
          "name": "HegicStakingETH",
          "type": "address"
        }
      ],
      "stateMutability": "view",
      "type": "function"
    },
    {
      "inputs": [],
      "name": "getHegicStakingWBTC",
      "outputs": [
        {
          "internalType": "contract IHegicStaking",
          "name": "HegicStakingWBTC",
          "type": "address"
        }
      ],
      "stateMutability": "view",
      "type": "function"
    },
    {
      "inputs": [
        {
          "internalType": "enum HegicStakingPool.Asset",
          "name": "_asset",
          "type": "uint8"
        }
      ],
      "name": "getUnreceivedProfitPerToken",
      "outputs": [
        {
          "internalType": "uint256",
          "name": "unreceivedProfitPerToken",
          "type": "uint256"
        }
      ],
      "stateMutability": "view",
      "type": "function"
    },
    {
      "inputs": [
        {
          "internalType": "address",
          "name": "_account",
          "type": "address"
        },
        {
          "internalType": "enum HegicStakingPool.Asset",
          "name": "_asset",
          "type": "uint8"
        }
      ],
      "name": "getUnsaved",
      "outputs": [
        {
          "internalType": "uint256",
          "name": "profit",
          "type": "uint256"
        }
      ],
      "stateMutability": "view",
      "type": "function"
    },
    {
      "inputs": [
        {
          "internalType": "address",
          "name": "spender",
          "type": "address"
        },
        {
          "internalType": "uint256",
          "name": "addedValue",
          "type": "uint256"
        }
      ],
      "name": "increaseAllowance",
      "outputs": [
        {
          "internalType": "bool",
          "name": "",
          "type": "bool"
        }
      ],
      "stateMutability": "nonpayable",
      "type": "function"
    },
    {
      "inputs": [
        {
          "internalType": "address",
          "name": "",
          "type": "address"
        }
      ],
      "name": "isNotFirstTime",
      "outputs": [
        {
          "internalType": "bool",
          "name": "",
          "type": "bool"
        }
      ],
      "stateMutability": "view",
      "type": "function"
    },
    {
      "inputs": [
        {
          "internalType": "address",
          "name": "",
          "type": "address"
        }
      ],
      "name": "lastDepositTime",
      "outputs": [
        {
          "internalType": "uint256",
          "name": "",
          "type": "uint256"
        }
      ],
      "stateMutability": "view",
      "type": "function"
    },
    {
      "inputs": [],
      "name": "lockUpPeriod",
      "outputs": [
        {
          "internalType": "uint256",
          "name": "",
          "type": "uint256"
        }
      ],
      "stateMutability": "view",
      "type": "function"
    },
    {
      "inputs": [],
      "name": "lockedBalance",
      "outputs": [
        {
          "internalType": "uint256",
          "name": "",
          "type": "uint256"
        }
      ],
      "stateMutability": "view",
      "type": "function"
    },
    {
      "inputs": [],
      "name": "name",
      "outputs": [
        {
          "internalType": "string",
          "name": "",
          "type": "string"
        }
      ],
      "stateMutability": "view",
      "type": "function"
    },
    {
      "inputs": [
        {
          "internalType": "enum HegicStakingPool.Asset",
          "name": "",
          "type": "uint8"
        }
      ],
      "name": "numberOfStakingLots",
      "outputs": [
        {
          "internalType": "uint256",
          "name": "",
          "type": "uint256"
        }
      ],
      "stateMutability": "view",
      "type": "function"
    },
    {
      "inputs": [],
      "name": "owner",
      "outputs": [
        {
          "internalType": "address",
          "name": "",
          "type": "address"
        }
      ],
      "stateMutability": "view",
      "type": "function"
    },
    {
      "inputs": [
        {
          "internalType": "address",
          "name": "",
          "type": "address"
        }
      ],
      "name": "ownerPerformanceFee",
      "outputs": [
        {
          "internalType": "uint256",
          "name": "",
          "type": "uint256"
        }
      ],
      "stateMutability": "view",
      "type": "function"
    },
    {
      "inputs": [],
      "name": "performanceFee",
      "outputs": [
        {
          "internalType": "uint256",
          "name": "",
          "type": "uint256"
        }
      ],
      "stateMutability": "view",
      "type": "function"
    },
    {
      "inputs": [
        {
          "internalType": "address",
          "name": "_account",
          "type": "address"
        },
        {
          "internalType": "enum HegicStakingPool.Asset",
          "name": "_asset",
          "type": "uint8"
        }
      ],
      "name": "profitOf",
      "outputs": [
        {
          "internalType": "uint256",
          "name": "profit",
          "type": "uint256"
        }
      ],
      "stateMutability": "view",
      "type": "function"
    },
    {
      "inputs": [],
      "name": "renounceOwnership",
      "outputs": [],
      "stateMutability": "nonpayable",
      "type": "function"
    },
    {
      "inputs": [
        {
          "internalType": "enum HegicStakingPool.Asset",
          "name": "",
          "type": "uint8"
        }
      ],
      "name": "staking",
      "outputs": [
        {
          "internalType": "contract IHegicStaking",
          "name": "",
          "type": "address"
        }
      ],
      "stateMutability": "view",
      "type": "function"
    },
    {
      "inputs": [],
      "name": "symbol",
      "outputs": [
        {
          "internalType": "string",
          "name": "",
          "type": "string"
        }
      ],
      "stateMutability": "view",
      "type": "function"
    },
    {
      "inputs": [],
      "name": "totalBalance",
      "outputs": [
        {
          "internalType": "uint256",
          "name": "",
          "type": "uint256"
        }
      ],
      "stateMutability": "view",
      "type": "function"
    },
    {
      "inputs": [],
      "name": "totalNumberOfStakingLots",
      "outputs": [
        {
          "internalType": "uint256",
          "name": "",
          "type": "uint256"
        }
      ],
      "stateMutability": "view",
      "type": "function"
    },
    {
      "inputs": [
        {
          "internalType": "enum HegicStakingPool.Asset",
          "name": "",
          "type": "uint8"
        }
      ],
      "name": "totalProfitPerToken",
      "outputs": [
        {
          "internalType": "uint256",
          "name": "",
          "type": "uint256"
        }
      ],
      "stateMutability": "view",
      "type": "function"
    },
    {
      "inputs": [],
      "name": "totalSupply",
      "outputs": [
        {
          "internalType": "uint256",
          "name": "",
          "type": "uint256"
        }
      ],
      "stateMutability": "view",
      "type": "function"
    },
    {
      "inputs": [
        {
          "internalType": "address",
          "name": "recipient",
          "type": "address"
        },
        {
          "internalType": "uint256",
          "name": "amount",
          "type": "uint256"
        }
      ],
      "name": "transfer",
      "outputs": [
        {
          "internalType": "bool",
          "name": "",
          "type": "bool"
        }
      ],
      "stateMutability": "nonpayable",
      "type": "function"
    },
    {
      "inputs": [
        {
          "internalType": "address",
          "name": "sender",
          "type": "address"
        },
        {
          "internalType": "address",
          "name": "recipient",
          "type": "address"
        },
        {
          "internalType": "uint256",
          "name": "amount",
          "type": "uint256"
        }
      ],
      "name": "transferFrom",
      "outputs": [
        {
          "internalType": "bool",
          "name": "",
          "type": "bool"
        }
      ],
      "stateMutability": "nonpayable",
      "type": "function"
    },
    {
      "inputs": [
        {
          "internalType": "address",
          "name": "newOwner",
          "type": "address"
        }
      ],
      "name": "transferOwnership",
      "outputs": [],
      "stateMutability": "nonpayable",
      "type": "function"
    },
    {
      "inputs": [
        {
          "internalType": "bool",
          "name": "_unlock",
          "type": "bool"
        }
      ],
      "name": "unlockAllFunds",
      "outputs": [],
      "stateMutability": "nonpayable",
      "type": "function"
    },
    {
      "inputs": [
        {
          "internalType": "uint256",
          "name": "_amount",
          "type": "uint256"
        }
      ],
      "name": "withdraw",
      "outputs": [],
      "stateMutability": "nonpayable",
      "type": "function"
    },
    {
      "stateMutability": "payable",
      "type": "receive"
    }
  ],
  "bytecode": "0x60c060405269bc0a9392c65c3b0000006008556d04ee2d6d415b85acef8100000000600955600a600c556161a8600d55611388600e55600f805460ff191660011790556103846010553480156200005557600080fd5b506040516200379e3803806200379e833981810160405260808110156200007b57600080fd5b50805160208083015160408085015160609095015181518083018352600c81526b5374616b656420484547494360a01b818601528251808401909352600683526573484547494360d01b94830194909452939491939192906000620000df6200039d565b600080546001600160a01b0319166001600160a01b0383169081178255604051929350917f8be0079c531659141344cd1fd0a4f28419497f9722a3daafe3b4186f6b6457e0908290a35081516200013e906004906020850190620003a1565b50805162000154906005906020840190620003a1565b50506006805460ff19166012179055506001600160601b0319606085811b821660805284901b1660a05281600760008060018111156200019057fe5b815260200190815260200160002060006101000a8154816001600160a01b0302191690836001600160a01b031602179055508060076000600180811115620001d457fe5b6001811115620001e057fe5b81526020808201929092526040908101600090812080546001600160a01b039586166001600160a01b031991821617909155600b8054821633908117909155600a8054909216179055808052600783527f6d5257204ebe7d88fd91ae87941cb2dd9d8062b64ae5a2bd2d28ec40b9fbf6df54825163095ea7b360e01b815290851660048201526d2bc822bff2746599448e00000000602482015291519388169363095ea7b3936044808501949193918390030190829087803b158015620002a657600080fd5b505af1158015620002bb573d6000803e3d6000fd5b505050506040513d6020811015620002d257600080fd5b505060016000908152600760209081527fb39221ace053465ec3453ce2b36430bd138b997ecea25c1043da0c366812b828546040805163095ea7b360e01b81526001600160a01b0392831660048201526d2bc822bff2746599448e00000000602482015290519188169363095ea7b39360448084019491939192918390030190829087803b1580156200036457600080fd5b505af115801562000379573d6000803e3d6000fd5b505050506040513d60208110156200039057600080fd5b506200043d945050505050565b3390565b828054600181600116156101000203166002900490600052602060002090601f016020900481019282601f10620003e457805160ff191683800117855562000414565b8280016001018555821562000414579182015b8281111562000414578251825591602001919060010190620003f7565b506200042292915062000426565b5090565b5b8082111562000422576000815560010162000427565b60805160601c60a05160601c61331e6200048060003980610ee4528061278e52806127c65280612d6152508061100c5280611ffd52806120ef525061331e6000f3fe6080604052600436106102cd5760003560e01c806385335da811610175578063b6b55f25116100dc578063ebd0905411610095578063f6156d5a1161006f578063f6156d5a14610a39578063fbcd9b0514610a63578063fbf683c114610a78578063ff4dfa9614610a8d576102d4565b8063ebd09054146109be578063f02a7d19146109d3578063f2fde38b14610a06576102d4565b8063b6b55f25146108ae578063bc41ab72146108d8578063bdd79f0714610905578063dd62ed3e14610941578063de886eab1461097c578063e32d03bf14610991576102d4565b8063940b26551161012e578063940b2655146107d157806395d89b41146107e65780639a213763146107fb578063a457c2d714610827578063a9059cbb14610860578063ad7a672f14610899576102d4565b806385335da81461071d578063877887821461074a5780638ad8a5391461075f5780638da5cb5b146107925780638eaa9597146107a75780638f76137f146107bc576102d4565b80632d3008dd116102345780636132ac36116101ed57806370a08231116101c757806370a08231146106ab578063715018a6146106de57806371e395a8146106f35780637b80889b14610708576102d4565b80636132ac36146106365780636c6925f9146106695780636cc94a691461067e576102d4565b80632d3008dd146105695780632e1a7d4d1461057e578063313ce567146105a857806339509351146105d35780634dede3de1461060c5780635c029ac814610621576102d4565b80631b016373116102865780631b0163731461046b5780631cc233411461049c5780631e8bc190146104b157806323604071146104c657806323b872dd146104f95780632c2e33c31461053c576102d4565b80630100670b146102d9578063025277531461030757806306fdde031461034c578063095ea7b3146103d657806318160ddd1461042357806319262d3014610438576102d4565b366102d457005b600080fd5b3480156102e557600080fd5b50610305600480360360208110156102fc57600080fd5b50351515610ac9565b005b34801561031357600080fd5b5061033a6004803603602081101561032a57600080fd5b50356001600160a01b0316610b34565b60408051918252519081900360200190f35b34801561035857600080fd5b50610361610b46565b6040805160208082528351818301528351919283929083019185019080838360005b8381101561039b578181015183820152602001610383565b50505050905090810190601f1680156103c85780820380516001836020036101000a031916815260200191505b509250505060405180910390f35b3480156103e257600080fd5b5061040f600480360360408110156103f957600080fd5b506001600160a01b038135169060200135610bdc565b604080519115158252519081900360200190f35b34801561042f57600080fd5b5061033a610bfa565b34801561044457600080fd5b5061040f6004803603602081101561045b57600080fd5b50356001600160a01b0316610c00565b34801561047757600080fd5b50610480610c31565b604080516001600160a01b039092168252519081900360200190f35b3480156104a857600080fd5b50610305610c40565b3480156104bd57600080fd5b50610480610c5b565b3480156104d257600080fd5b50610305600480360360208110156104e957600080fd5b50356001600160a01b0316610c8d565b34801561050557600080fd5b5061040f6004803603606081101561051c57600080fd5b506001600160a01b03813581169160208101359091169060400135610d07565b34801561054857600080fd5b5061033a6004803603602081101561055f57600080fd5b503560ff16610d8e565b34801561057557600080fd5b5061033a610da0565b34801561058a57600080fd5b50610305600480360360208110156105a157600080fd5b5035610da6565b3480156105b457600080fd5b506105bd610e8b565b6040805160ff9092168252519081900360200190f35b3480156105df57600080fd5b5061040f600480360360408110156105f657600080fd5b506001600160a01b038135169060200135610e94565b34801561061857600080fd5b50610480610ee2565b34801561062d57600080fd5b50610305610f06565b34801561064257600080fd5b5061033a6004803603602081101561065957600080fd5b50356001600160a01b0316610f1a565b34801561067557600080fd5b5061033a610f2c565b34801561068a57600080fd5b50610480600480360360208110156106a157600080fd5b503560ff16610f32565b3480156106b757600080fd5b5061033a600480360360208110156106ce57600080fd5b50356001600160a01b0316610f4d565b3480156106ea57600080fd5b50610305610f68565b3480156106ff57600080fd5b5061048061100a565b34801561071457600080fd5b5061033a61102e565b34801561072957600080fd5b5061033a6004803603602081101561074057600080fd5b503560ff16611034565b34801561075657600080fd5b5061033a6110f8565b34801561076b57600080fd5b5061040f6004803603602081101561078257600080fd5b50356001600160a01b03166110fe565b34801561079e57600080fd5b50610480611113565b3480156107b357600080fd5b50610480611122565b3480156107c857600080fd5b5061040f61112d565b3480156107dd57600080fd5b5061033a611136565b3480156107f257600080fd5b5061036161113c565b34801561080757600080fd5b506103056004803603602081101561081e57600080fd5b5035151561119d565b34801561083357600080fd5b5061040f6004803603604081101561084a57600080fd5b506001600160a01b03813516906020013561120e565b34801561086c57600080fd5b5061040f6004803603604081101561088357600080fd5b506001600160a01b038135169060200135611276565b3480156108a557600080fd5b5061033a61128a565b3480156108ba57600080fd5b50610305600480360360208110156108d157600080fd5b5035611290565b3480156108e457600080fd5b5061033a600480360360208110156108fb57600080fd5b503560ff16611425565b34801561091157600080fd5b5061033a6004803603604081101561092857600080fd5b5080356001600160a01b0316906020013560ff16611437565b34801561094d57600080fd5b5061033a6004803603604081101561096457600080fd5b506001600160a01b0381358116916020013516611493565b34801561098857600080fd5b5061033a6114be565b34801561099d57600080fd5b50610305600480360360208110156109b457600080fd5b503560ff166114c4565b3480156109ca57600080fd5b50610480611542565b3480156109df57600080fd5b50610305600480360360208110156109f657600080fd5b50356001600160a01b0316611551565b348015610a1257600080fd5b5061030560048036036020811015610a2957600080fd5b50356001600160a01b03166115cb565b348015610a4557600080fd5b5061030560048036036020811015610a5c57600080fd5b50356116c3565b348015610a6f57600080fd5b5061033a611766565b348015610a8457600080fd5b5061033a61176c565b348015610a9957600080fd5b5061033a60048036036040811015610ab057600080fd5b5080356001600160a01b0316906020013560ff16611772565b610ad1611818565b6000546001600160a01b03908116911614610b21576040805162461bcd60e51b815260206004820181905260248201526000805160206131bd833981519152604482015290519081900360640190fd5b600f805460ff1916911515919091179055565b60196020526000908152604090205481565b60048054604080516020601f6002600019610100600188161502019095169490940493840181900481028201810190925282815260609390929091830182828015610bd25780601f10610ba757610100808354040283529160200191610bd2565b820191906000526020600020905b815481529060010190602001808311610bb557829003601f168201915b5050505050905090565b6000610bf0610be9611818565b848461181c565b5060015b92915050565b60035490565b6010546001600160a01b03821660009081526019602052604081205490914291610c2991611908565b111592915050565b600a546001600160a01b031681565b610c48610f06565b610c59610c5433610f4d565b610da6565b565b600060078160015b6001811115610c6e57fe5b81526020810191909152604001600020546001600160a01b0316905090565b610c95611818565b6000546001600160a01b03908116911614610ce5576040805162461bcd60e51b815260206004820181905260248201526000805160206131bd833981519152604482015290519081900360640190fd5b600b80546001600160a01b0319166001600160a01b0392909216919091179055565b6000610d14848484611962565b610d8484610d20611818565b610d7f85604051806060016040528060288152602001613195602891396001600160a01b038a16600090815260026020526040812090610d5e611818565b6001600160a01b031681526020810191909152604001600020549190611abf565b61181c565b5060019392505050565b60146020526000908152604090205481565b60085481565b610daf33610f4d565b811115610df8576040805162461bcd60e51b81526020600482015260126024820152714e6f7420656e6f7567682062616c616e636560701b604482015290519081900360640190fd5b601054336000908152601960205260409020544291610e179190611908565b1115610e545760405162461bcd60e51b815260040180806020018281038252603a815260200180613063603a913960400191505060405180910390fd5b80610e6c601254601154611b5690919063ffffffff16565b1015610e7f57610e7a611b98565b610e54565b610e8881611fab565b50565b60065460ff1690565b6000610bf0610ea1611818565b84610d7f8560026000610eb2611818565b6001600160a01b03908116825260208083019390935260409182016000908120918c168152925290205490611908565b7f000000000000000000000000000000000000000000000000000000000000000081565b610f1060006114c4565b610c5960016114c4565b60176020526000908152604090205481565b60105481565b6007602052600090815260409020546001600160a01b031681565b6001600160a01b031660009081526001602052604090205490565b610f70611818565b6000546001600160a01b03908116911614610fc0576040805162461bcd60e51b815260206004820181905260248201526000805160206131bd833981519152604482015290519081900360640190fd5b600080546040516001600160a01b03909116907f8be0079c531659141344cd1fd0a4f28419497f9722a3daafe3b4186f6b6457e0908390a3600080546001600160a01b0319169055565b7f000000000000000000000000000000000000000000000000000000000000000081565b60125481565b6000806007600084600181111561104757fe5b600181111561105257fe5b815260208082019290925260409081016000205481516354198ce960e01b815230600482015291516001600160a01b03909116926354198ce99260248082019391829003018186803b1580156110a757600080fd5b505afa1580156110bb573d6000803e3d6000fd5b505050506040513d60208110156110d157600080fd5b50516011546009549192506110f1916110eb908490612037565b90612090565b9392505050565b600e5481565b60186020526000908152604090205460ff1681565b6000546001600160a01b031690565b600060078180610c63565b600f5460ff1681565b600c5481565b60058054604080516020601f6002600019610100600188161502019095169490940493840181900481028201810190925282815260609390929091830182828015610bd25780601f10610ba757610100808354040283529160200191610bd2565b6111a5611818565b6000546001600160a01b039081169116146111f5576040805162461bcd60e51b815260206004820181905260248201526000805160206131bd833981519152604482015290519081900360640190fd5b8015611205576000601055610e88565b61038460105550565b6000610bf061121b611818565b84610d7f8560405180606001604052806025815260200161329e6025913960026000611245611818565b6001600160a01b03908116825260208083019390935260409182016000908120918d16815292529020549190611abf565b6000610bf0611283611818565b8484611962565b60115481565b600081116112d6576040805162461bcd60e51b815260206004820152600e60248201526d416d6f756e7420746f6f206c6f7760901b604482015290519081900360640190fd5b600f5460ff166113175760405162461bcd60e51b81526004018080602001828103825260268152602001806132c36026913960400191505060405180910390fd5b600e5433600090815260176020526040902054118061134657503360009081526018602052604090205460ff16155b156113e657600e543360009081526017602090815260408083209390935560189052205460ff1615801561137d5750600c54601354105b156113cb576113ba620186a06110eb6113a4600d54620186a0611b5690919063ffffffff16565b3360009081526017602052604090205490612037565b336000908152601760205260409020555b336000908152601860205260409020805460ff191660011790555b336000908152601960205260409020429055611401816120d2565b60085460125460115461141391611b56565b10610e8857611420612121565b611401565b60156020526000908152604090205481565b60006110f16114468484611772565b6001600160a01b0385166000908152601b602052604081209085600181111561146b57fe5b600181111561147657fe5b81526020019081526020016000205461190890919063ffffffff16565b6001600160a01b03918216600090815260026020908152604080832093909416825291909152205490565b600d5481565b60006114d0338361259e565b336000908152601b6020526040812091925090818460018111156114f057fe5b60018111156114fb57fe5b81526020019081526020016000208190555061153e81833360176000336001600160a01b03166001600160a01b03168152602001908152602001600020546126b5565b5050565b600b546001600160a01b031681565b611559611818565b6000546001600160a01b039081169116146115a9576040805162461bcd60e51b815260206004820181905260248201526000805160206131bd833981519152604482015290519081900360640190fd5b600a80546001600160a01b0319166001600160a01b0392909216919091179055565b6115d3611818565b6000546001600160a01b03908116911614611623576040805162461bcd60e51b815260206004820181905260248201526000805160206131bd833981519152604482015290519081900360640190fd5b6001600160a01b0381166116685760405162461bcd60e51b81526004018080602001828103825260268152602001806130bf6026913960400191505060405180910390fd5b600080546040516001600160a01b03808516939216917f8be0079c531659141344cd1fd0a4f28419497f9722a3daafe3b4186f6b6457e091a3600080546001600160a01b0319166001600160a01b0392909216919091179055565b6116cb611818565b6000546001600160a01b0390811691161461171b576040805162461bcd60e51b815260206004820181905260248201526000805160206131bd833981519152604482015290519081900360640190fd5b611f40811115611761576040805162461bcd60e51b815260206004820152600c60248201526b08ccaca40e8dede40d0d2ced60a31b604482015290519081900360640190fd5b600e55565b60095481565b60135481565b60006110f16009546110eb61178686610f4d565b61181261179287611034565b6001600160a01b0389166000908152601a6020526040812061180c918a60018111156117ba57fe5b60018111156117c557fe5b815260200190815260200160002054601560008b60018111156117e457fe5b60018111156117ef57fe5b815260200190815260200160002054611b5690919063ffffffff16565b90611908565b90612037565b3390565b6001600160a01b0383166118615760405162461bcd60e51b81526004018080602001828103825260248152602001806132236024913960400191505060405180910390fd5b6001600160a01b0382166118a65760405162461bcd60e51b81526004018080602001828103825260228152602001806130e56022913960400191505060405180910390fd5b6001600160a01b03808416600081815260026020908152604080832094871680845294825291829020859055815185815291517f8c5be1e5ebec7d5bd14f71427d1e84f3dd0314c0f7b2291e5b200ac8c7c3b9259281900390910190a3505050565b6000828201838110156110f1576040805162461bcd60e51b815260206004820152601b60248201527f536166654d6174683a206164646974696f6e206f766572666c6f770000000000604482015290519081900360640190fd5b6001600160a01b0383166119a75760405162461bcd60e51b81526004018080602001828103825260258152602001806131fe6025913960400191505060405180910390fd5b6001600160a01b0382166119ec5760405162461bcd60e51b81526004018080602001828103825260238152602001806130406023913960400191505060405180910390fd5b6119f783838361285a565b611a3481604051806060016040528060268152602001613107602691396001600160a01b0386166000908152600160205260409020549190611abf565b6001600160a01b038085166000908152600160205260408082209390935590841681522054611a639082611908565b6001600160a01b0380841660008181526001602090815260409182902094909455805185815290519193928716927fddf252ad1be2c89b69c2b068fc378daa952ba7f163c4a11628f55a4df523b3ef92918290030190a3505050565b60008184841115611b4e5760405162461bcd60e51b81526004018080602001828103825283818151815260200191508051906020019080838360005b83811015611b13578181015183820152602001611afb565b50505050905090810190601f168015611b405780820380516001836020036101000a031916815260200191505b509250505060405180910390fd5b505050900390565b60006110f183836040518060400160405280601e81526020017f536166654d6174683a207375627472616374696f6e206f766572666c6f770000815250611abf565b60146020527f4f26c3876aa9f4b92579780beea1161a61f87ebf1ec6ee865b299e447ecba99c54600160008190527fb6c61a840592cc84133e4b25bd509abf4659307c57b160799b38490a5aa48f2c5490911115611bf4575060005b42611d3b60076000846001811115611c0857fe5b6001811115611c1357fe5b815260200190815260200160002060009054906101000a90046001600160a01b03166001600160a01b031663ee947a7c6040518163ffffffff1660e01b815260040160206040518083038186803b158015611c6d57600080fd5b505afa158015611c81573d6000803e3d6000fd5b505050506040513d6020811015611c9757600080fd5b505160076000856001811115611ca957fe5b6001811115611cb457fe5b8152602080820192909252604090810160002054815163a673729160e01b815230600482015291516001600160a01b039091169263a67372919260248082019391829003018186803b158015611d0957600080fd5b505afa158015611d1d573d6000803e3d6000fd5b505050506040513d6020811015611d3357600080fd5b505190611908565b1115611d61576001816001811115611d4f57fe5b1415611d5d57506000611d61565b5060015b60076000826001811115611d7157fe5b6001811115611d7c57fe5b815260208082019290925260409081016000205481516370a0823160e01b815230600482015291516001600160a01b03909116926370a082319260248082019391829003018186803b158015611dd157600080fd5b505afa158015611de5573d6000803e3d6000fd5b505050506040513d6020811015611dfb57600080fd5b5051611e21576001816001811115611e0f57fe5b1415611e1d57506000611e21565b5060015b42611e3560076000846001811115611c0857fe5b1115611e725760405162461bcd60e51b815260040180806020018281038252604781526020018061312d6047913960600191505060405180910390fd5b600854601254611e8191611b56565b60125560076000826001811115611e9457fe5b6001811115611e9f57fe5b81526020810191909152604090810160009081205482516372424d9960e11b81526001600482015292516001600160a01b039091169263e4849b3292602480830193919282900301818387803b158015611ef857600080fd5b505af1158015611f0c573d6000803e3d6000fd5b505050507f24cd5f994ad649e7a524dd5aced6dd8e80ca7541246c3cf335422bd80c565caa42823360405180848152602001836001811115611f4a57fe5b8152602001826001600160a01b03168152602001935050505060405180910390a16013805460001901905560146000826001811115611f8557fe5b6001811115611f9057fe5b81526020810191909152604001600020805460001901905550565b604080513381526020810183905281517f884edad9ce6fa2440d8a54cc123490eb96d2768479d49ff9c7366125a9424364929181900390910190a1611ff0338261288f565b6120246001600160a01b037f000000000000000000000000000000000000000000000000000000000000000016338361298b565b6011546120319082611b56565b60115550565b60008261204657506000610bf4565b8282028284828161205357fe5b04146110f15760405162461bcd60e51b81526004018080602001828103825260218152602001806131746021913960400191505060405180910390fd5b60006110f183836040518060400160405280601a81526020017f536166654d6174683a206469766973696f6e206279207a65726f0000000000008152506129dd565b6011546120df9082611908565b6011556121176001600160a01b037f000000000000000000000000000000000000000000000000000000000000000016333084612a42565b610e883382612aa2565b60146020527f4f26c3876aa9f4b92579780beea1161a61f87ebf1ec6ee865b299e447ecba99c54600160008190527fb6c61a840592cc84133e4b25bd509abf4659307c57b160799b38490a5aa48f2c549091101561217d575060005b6007600082600181111561218d57fe5b600181111561219857fe5b815260200190815260200160002060009054906101000a90046001600160a01b03166001600160a01b03166332cb6b0c6040518163ffffffff1660e01b815260040160206040518083038186803b1580156121f257600080fd5b505afa158015612206573d6000803e3d6000fd5b505050506040513d602081101561221c57600080fd5b50516007600083600181111561222e57fe5b600181111561223957fe5b815260200190815260200160002060009054906101000a90046001600160a01b03166001600160a01b03166318160ddd6040518163ffffffff1660e01b815260040160206040518083038186803b15801561229357600080fd5b505afa1580156122a7573d6000803e3d6000fd5b505050506040513d60208110156122bd57600080fd5b505114156122e55760018160018111156122d357fe5b14156122e1575060006122e5565b5060015b600760008260018111156122f557fe5b600181111561230057fe5b815260200190815260200160002060009054906101000a90046001600160a01b03166001600160a01b03166332cb6b0c6040518163ffffffff1660e01b815260040160206040518083038186803b15801561235a57600080fd5b505afa15801561236e573d6000803e3d6000fd5b505050506040513d602081101561238457600080fd5b50516007600083600181111561239657fe5b60018111156123a157fe5b815260200190815260200160002060009054906101000a90046001600160a01b03166001600160a01b03166318160ddd6040518163ffffffff1660e01b815260040160206040518083038186803b1580156123fb57600080fd5b505afa15801561240f573d6000803e3d6000fd5b505050506040513d602081101561242557600080fd5b5051106124635760405162461bcd60e51b815260040180806020018281038252602d815260200180613247602d913960400191505060405180910390fd5b60085460125461247291611908565b6012556007600082600181111561248557fe5b600181111561249057fe5b8152602081019190915260409081016000908120548251636cb504a560e11b81526001600482015292516001600160a01b039091169263d96a094a92602480830193919282900301818387803b1580156124e957600080fd5b505af11580156124fd573d6000803e3d6000fd5b505050507fd1b43b4b3653b24940204c31867a89713bb84aabe4ee82be10570f0dd791ccb04282336040518084815260200183600181111561253b57fe5b8152602001826001600160a01b03168152602001935050505060405180910390a1601380546001908101909155601490600090839081111561257957fe5b600181111561258457fe5b815260208101919091526040016000208054600101905550565b60006125a982612b94565b60006125b58484611772565b9050601560008460018111156125c757fe5b60018111156125d257fe5b815260200190815260200160002054601a6000866001600160a01b03166001600160a01b03168152602001908152602001600020600085600181111561261457fe5b600181111561261f57fe5b81526020019081526020016000208190555061266881601b6000876001600160a01b03166001600160a01b03168152602001908152602001600020600086600181111561146b57fe5b6001600160a01b0385166000908152601b6020526040812091935083919085600181111561269257fe5b600181111561269d57fe5b81526020810191909152604001600020555092915050565b60006126d2620186a06110eb6126cb8286611b56565b8890612037565b905060006126e08683611b56565b905060018560018111156126f057fe5b141561276d576040516001600160a01b0385169083156108fc029084906000818181858888f1935050505015801561272c573d6000803e3d6000fd5b50600b546040516001600160a01b039091169082156108fc029083906000818181858888f19350505050158015612767573d6000803e3d6000fd5b506127ef565b600085600181111561277b57fe5b14156127ef576127b56001600160a01b037f000000000000000000000000000000000000000000000000000000000000000016858461298b565b600b546127ef906001600160a01b037f0000000000000000000000000000000000000000000000000000000000000000811691168361298b565b7f42bf830ec222b3077f036a1be5d7d50fd1fc16cfcb9c67a8547cf0241679eae08486848460405180856001600160a01b0316815260200184600181111561283357fe5b815260200183815260200182815260200194505050505060405180910390a1505050505050565b6001600160a01b038316156128725761287283612ded565b6001600160a01b0382161561288a5761288a82612ded565b505050565b6001600160a01b0382166128d45760405162461bcd60e51b81526004018080602001828103825260218152602001806131dd6021913960400191505060405180910390fd5b6128e08260008361285a565b61291d8160405180606001604052806022815260200161309d602291396001600160a01b0385166000908152600160205260409020549190611abf565b6001600160a01b0383166000908152600160205260409020556003546129439082611b56565b6003556040805182815290516000916001600160a01b038516917fddf252ad1be2c89b69c2b068fc378daa952ba7f163c4a11628f55a4df523b3ef9181900360200190a35050565b604080516001600160a01b038416602482015260448082018490528251808303909101815260649091019091526020810180516001600160e01b031663a9059cbb60e01b17905261288a908490612e04565b60008183612a2c5760405162461bcd60e51b8152602060048201818152835160248401528351909283926044909101919085019080838360008315611b13578181015183820152602001611afb565b506000838581612a3857fe5b0495945050505050565b604080516001600160a01b0380861660248301528416604482015260648082018490528251808303909101815260849091019091526020810180516001600160e01b03166323b872dd60e01b179052612a9c908590612e04565b50505050565b6001600160a01b038216612afd576040805162461bcd60e51b815260206004820152601f60248201527f45524332303a206d696e7420746f20746865207a65726f206164647265737300604482015290519081900360640190fd5b612b096000838361285a565b600354612b169082611908565b6003556001600160a01b038216600090815260016020526040902054612b3c9082611908565b6001600160a01b03831660008181526001602090815260408083209490945583518581529351929391927fddf252ad1be2c89b69c2b068fc378daa952ba7f163c4a11628f55a4df523b3ef9281900390910190a35050565b600060076000836001811115612ba657fe5b6001811115612bb157fe5b815260208082019290925260409081016000205481516354198ce960e01b815230600482015291516001600160a01b03909116926354198ce99260248082019391829003018186803b158015612c0657600080fd5b505afa158015612c1a573d6000803e3d6000fd5b505050506040513d6020811015612c3057600080fd5b505190508015612cde5760076000836001811115612c4a57fe5b6001811115612c5557fe5b815260200190815260200160002060009054906101000a90046001600160a01b03166001600160a01b031663f011a7af6040518163ffffffff1660e01b8152600401602060405180830381600087803b158015612cb157600080fd5b505af1158015612cc5573d6000803e3d6000fd5b505050506040513d6020811015612cdb57600080fd5b50505b600060115411612d8f576001826001811115612cf657fe5b1415612d3c57600a546040516001600160a01b039091169082156108fc029083906000818181858888f19350505050158015612d36573d6000803e3d6000fd5b50612d8a565b6000826001811115612d4a57fe5b1415612d8a57600a54612d8a906001600160a01b037f0000000000000000000000000000000000000000000000000000000000000000811691168361298b565b61153e565b612dbd612dad6011546110eb6009548561203790919063ffffffff16565b6015600085600181111561146b57fe5b60156000846001811115612dcd57fe5b6001811115612dd857fe5b81526020810191909152604001600020555050565b612df881600061259e565b5061153e81600161259e565b6060612e59826040518060400160405280602081526020017f5361666545524332303a206c6f772d6c6576656c2063616c6c206661696c6564815250856001600160a01b0316612eb59092919063ffffffff16565b80519091501561288a57808060200190516020811015612e7857600080fd5b505161288a5760405162461bcd60e51b815260040180806020018281038252602a815260200180613274602a913960400191505060405180910390fd5b6060612ec48484600085612ecc565b949350505050565b6060612ed785613039565b612f28576040805162461bcd60e51b815260206004820152601d60248201527f416464726573733a2063616c6c20746f206e6f6e2d636f6e7472616374000000604482015290519081900360640190fd5b60006060866001600160a01b031685876040518082805190602001908083835b60208310612f675780518252601f199092019160209182019101612f48565b6001836020036101000a03801982511681845116808217855250505050505090500191505060006040518083038185875af1925050503d8060008114612fc9576040519150601f19603f3d011682016040523d82523d6000602084013e612fce565b606091505b50915091508115612fe2579150612ec49050565b805115612ff25780518082602001fd5b60405162461bcd60e51b8152602060048201818152865160248401528651879391928392604401919085019080838360008315611b13578181015183820152602001611afb565b3b15159056fe45524332303a207472616e7366657220746f20746865207a65726f2061646472657373596f75206465706f7369746564206c657373207468616e203135206d696e732061676f2e20596f75722066756e647320617265206c6f636b656445524332303a206275726e20616d6f756e7420657863656564732062616c616e63654f776e61626c653a206e6577206f776e657220697320746865207a65726f206164647265737345524332303a20617070726f766520746f20746865207a65726f206164647265737345524332303a207472616e7366657220616d6f756e7420657863656564732062616c616e63654c6f742073616c65206973206c6f636b65642062792048656769632e2046756e64732073686f756c6420626520617661696c61626c6520696e206c657373207468616e20323468536166654d6174683a206d756c7469706c69636174696f6e206f766572666c6f7745524332303a207472616e7366657220616d6f756e74206578636565647320616c6c6f77616e63654f776e61626c653a2063616c6c6572206973206e6f7420746865206f776e657245524332303a206275726e2066726f6d20746865207a65726f206164647265737345524332303a207472616e736665722066726f6d20746865207a65726f206164647265737345524332303a20617070726f76652066726f6d20746865207a65726f2061646472657373546865726520617265206e6f206d6f726520617661696c61626c65206c6f747320666f722070757263686173655361666545524332303a204552433230206f7065726174696f6e20646964206e6f74207375636365656445524332303a2064656372656173656420616c6c6f77616e63652062656c6f77207a65726f4465706f7369747320617265206e6f7420616c6c6f77656420617420746865206d6f6d656e74a26469706673582212203243b25a93eff3e758d65470d0f2c12da00475bbb4b756553e7d0e33e5bfc41064736f6c634300060c0033",
  "linkReferences": {},
  "deployedLinkReferences": {}
}